{
  "_format": "hh-sol-artifact-1",
  "contractName": "MusicNFT",
  "sourceName": "contracts/MusicNFT.sol",
  "abi": [
    {
      "inputs": [
        {
          "internalType": "string",
          "name": "name_",
          "type": "string"
        },
        {
          "internalType": "string",
          "name": "symbol_",
          "type": "string"
        },
        {
          "internalType": "address",
          "name": "_lzEndpoint",
          "type": "address"
        },
        {
          "internalType": "uint256",
          "name": "_minMintId",
          "type": "uint256"
        },
        {
          "internalType": "uint256",
          "name": "_maxMintId",
          "type": "uint256"
        },
        {
          "internalType": "uint16",
          "name": "_defaultDstChainId",
          "type": "uint16"
        }
      ],
      "stateMutability": "nonpayable",
      "type": "constructor"
    },
    {
      "anonymous": false,
      "inputs": [
        {
          "indexed": true,
          "internalType": "address",
          "name": "account",
          "type": "address"
        },
        {
          "indexed": true,
          "internalType": "address",
          "name": "operator",
          "type": "address"
        },
        {
          "indexed": false,
          "internalType": "bool",
          "name": "approved",
          "type": "bool"
        }
      ],
      "name": "ApprovalForAll",
      "type": "event"
    },
    {
      "anonymous": false,
      "inputs": [
        {
          "indexed": false,
          "internalType": "uint16",
          "name": "_srcChainId",
          "type": "uint16"
        },
        {
          "indexed": false,
          "internalType": "bytes",
          "name": "_srcAddress",
          "type": "bytes"
        },
        {
          "indexed": false,
          "internalType": "uint64",
          "name": "_nonce",
          "type": "uint64"
        },
        {
          "indexed": false,
          "internalType": "bytes",
          "name": "_payload",
          "type": "bytes"
        }
      ],
      "name": "MessageFailed",
      "type": "event"
    },
    {
      "anonymous": false,
      "inputs": [
        {
          "indexed": false,
          "internalType": "bool",
          "name": "_onsale",
          "type": "bool"
        }
      ],
      "name": "NowOnSale",
      "type": "event"
    },
    {
      "anonymous": false,
      "inputs": [
        {
          "indexed": true,
          "internalType": "address",
          "name": "previousOwner",
          "type": "address"
        },
        {
          "indexed": true,
          "internalType": "address",
          "name": "newOwner",
          "type": "address"
        }
      ],
      "name": "OwnershipTransferred",
      "type": "event"
    },
    {
      "anonymous": false,
      "inputs": [
        {
          "indexed": false,
          "internalType": "uint16",
          "name": "_srcChainId",
          "type": "uint16"
        },
        {
          "indexed": false,
          "internalType": "address",
          "name": "_toAddress",
          "type": "address"
        },
        {
          "indexed": false,
          "internalType": "uint256[]",
          "name": "_tokenIds",
          "type": "uint256[]"
        },
        {
          "indexed": false,
          "internalType": "uint256[]",
          "name": "_amounts",
          "type": "uint256[]"
        },
        {
          "indexed": false,
          "internalType": "uint64",
          "name": "_nonce",
          "type": "uint64"
        }
      ],
      "name": "ReceiveBatchFromChain",
      "type": "event"
    },
    {
      "anonymous": false,
      "inputs": [
        {
          "indexed": false,
          "internalType": "uint16",
          "name": "_srcChainId",
          "type": "uint16"
        },
        {
          "indexed": false,
          "internalType": "address",
          "name": "_toAddress",
          "type": "address"
        },
        {
          "indexed": false,
          "internalType": "uint256",
          "name": "_tokenId",
          "type": "uint256"
        },
        {
          "indexed": false,
          "internalType": "uint256",
          "name": "_amount",
          "type": "uint256"
        },
        {
          "indexed": false,
          "internalType": "uint64",
          "name": "_nonce",
          "type": "uint64"
        }
      ],
      "name": "ReceiveFromChain",
      "type": "event"
    },
    {
      "anonymous": false,
      "inputs": [
        {
          "indexed": true,
          "internalType": "address",
          "name": "_sender",
          "type": "address"
        },
        {
          "indexed": true,
          "internalType": "uint16",
          "name": "_dstChainId",
          "type": "uint16"
        },
        {
          "indexed": true,
          "internalType": "bytes",
          "name": "_toAddress",
          "type": "bytes"
        },
        {
          "indexed": false,
          "internalType": "uint256[]",
          "name": "_tokenIds",
          "type": "uint256[]"
        },
        {
          "indexed": false,
          "internalType": "uint256[]",
          "name": "_amounts",
          "type": "uint256[]"
        },
        {
          "indexed": false,
          "internalType": "uint64",
          "name": "_nonce",
          "type": "uint64"
        }
      ],
      "name": "SendBatchToChain",
      "type": "event"
    },
    {
      "anonymous": false,
      "inputs": [
        {
          "indexed": true,
          "internalType": "address",
          "name": "_sender",
          "type": "address"
        },
        {
          "indexed": true,
          "internalType": "uint16",
          "name": "_dstChainId",
          "type": "uint16"
        },
        {
          "indexed": true,
          "internalType": "bytes",
          "name": "_toAddress",
          "type": "bytes"
        },
        {
          "indexed": false,
          "internalType": "uint256",
          "name": "_tokenId",
          "type": "uint256"
        },
        {
          "indexed": false,
          "internalType": "uint256",
          "name": "_amount",
          "type": "uint256"
        },
        {
          "indexed": false,
          "internalType": "uint64",
          "name": "_nonce",
          "type": "uint64"
        }
      ],
      "name": "SendToChain",
      "type": "event"
    },
    {
      "anonymous": false,
      "inputs": [
        {
          "indexed": false,
          "internalType": "uint16",
          "name": "_srcChainId",
          "type": "uint16"
        },
        {
          "indexed": false,
          "internalType": "bytes",
          "name": "_srcAddress",
          "type": "bytes"
        }
      ],
      "name": "SetTrustedRemote",
      "type": "event"
    },
    {
      "anonymous": false,
      "inputs": [
        {
          "indexed": true,
          "internalType": "address",
          "name": "_from",
          "type": "address"
        },
        {
          "indexed": true,
          "internalType": "address",
          "name": "_to",
          "type": "address"
        },
        {
          "indexed": false,
          "internalType": "uint256",
          "name": "_id",
          "type": "uint256"
        },
        {
          "indexed": false,
          "internalType": "uint256",
          "name": "_amount",
          "type": "uint256"
        }
      ],
      "name": "SoldForGiveaway",
      "type": "event"
    },
    {
      "anonymous": false,
      "inputs": [
        {
          "indexed": true,
          "internalType": "address",
          "name": "_from",
          "type": "address"
        },
        {
          "indexed": true,
          "internalType": "address",
          "name": "_to",
          "type": "address"
        },
        {
          "indexed": false,
          "internalType": "uint256",
          "name": "_id",
          "type": "uint256"
        },
        {
          "indexed": false,
          "internalType": "uint256",
          "name": "_amount",
          "type": "uint256"
        }
      ],
      "name": "SoldForPresale",
      "type": "event"
    },
    {
      "anonymous": false,
      "inputs": [
        {
          "indexed": true,
          "internalType": "address",
          "name": "_from",
          "type": "address"
        },
        {
          "indexed": true,
          "internalType": "address",
          "name": "_to",
          "type": "address"
        },
        {
          "indexed": false,
          "internalType": "uint256",
          "name": "_id",
          "type": "uint256"
        },
        {
          "indexed": false,
          "internalType": "uint256",
          "name": "_amount",
          "type": "uint256"
        }
      ],
      "name": "SoldForPublicSale",
      "type": "event"
    },
    {
      "anonymous": false,
      "inputs": [
        {
          "indexed": true,
          "internalType": "address",
          "name": "operator",
          "type": "address"
        },
        {
          "indexed": true,
          "internalType": "address",
          "name": "from",
          "type": "address"
        },
        {
          "indexed": true,
          "internalType": "address",
          "name": "to",
          "type": "address"
        },
        {
          "indexed": false,
          "internalType": "uint256[]",
          "name": "ids",
          "type": "uint256[]"
        },
        {
          "indexed": false,
          "internalType": "uint256[]",
          "name": "values",
          "type": "uint256[]"
        }
      ],
      "name": "TransferBatch",
      "type": "event"
    },
    {
      "anonymous": false,
      "inputs": [
        {
          "indexed": true,
          "internalType": "address",
          "name": "operator",
          "type": "address"
        },
        {
          "indexed": true,
          "internalType": "address",
          "name": "from",
          "type": "address"
        },
        {
          "indexed": true,
          "internalType": "address",
          "name": "to",
          "type": "address"
        },
        {
          "indexed": false,
          "internalType": "uint256",
          "name": "id",
          "type": "uint256"
        },
        {
          "indexed": false,
          "internalType": "uint256",
          "name": "value",
          "type": "uint256"
        }
      ],
      "name": "TransferSingle",
      "type": "event"
    },
    {
      "anonymous": false,
      "inputs": [
        {
          "indexed": false,
          "internalType": "string",
          "name": "value",
          "type": "string"
        },
        {
          "indexed": true,
          "internalType": "uint256",
          "name": "id",
          "type": "uint256"
        }
      ],
      "name": "URI",
      "type": "event"
    },
    {
      "inputs": [
        {
          "internalType": "string",
          "name": "_EMGuri",
          "type": "string"
        }
      ],
      "name": "EMGreveal",
      "outputs": [],
      "stateMutability": "nonpayable",
      "type": "function"
    },
    {
      "inputs": [
        {
          "internalType": "address",
          "name": "allowAddr",
          "type": "address"
        }
      ],
      "name": "addAllowlist",
      "outputs": [],
      "stateMutability": "nonpayable",
      "type": "function"
    },
    {
      "inputs": [
        {
          "internalType": "address",
          "name": "account",
          "type": "address"
        },
        {
          "internalType": "uint256",
          "name": "id",
          "type": "uint256"
        }
      ],
      "name": "balanceOf",
      "outputs": [
        {
          "internalType": "uint256",
          "name": "",
          "type": "uint256"
        }
      ],
      "stateMutability": "view",
      "type": "function"
    },
    {
      "inputs": [
        {
          "internalType": "address[]",
          "name": "accounts",
          "type": "address[]"
        },
        {
          "internalType": "uint256[]",
          "name": "ids",
          "type": "uint256[]"
        }
      ],
      "name": "balanceOfBatch",
      "outputs": [
        {
          "internalType": "uint256[]",
          "name": "",
          "type": "uint256[]"
        }
      ],
      "stateMutability": "view",
      "type": "function"
    },
    {
      "inputs": [
        {
          "internalType": "uint16",
          "name": "_dstChainId",
          "type": "uint16"
        },
        {
          "internalType": "bytes",
          "name": "",
          "type": "bytes"
        },
        {
          "internalType": "uint256[]",
          "name": "_tokenIds",
          "type": "uint256[]"
        },
        {
          "internalType": "uint256[]",
          "name": "_amounts",
          "type": "uint256[]"
        },
        {
          "internalType": "bool",
          "name": "_useZro",
          "type": "bool"
        },
        {
          "internalType": "bytes",
          "name": "_adapterParams",
          "type": "bytes"
        }
      ],
      "name": "estimateSendBatchFee",
      "outputs": [
        {
          "internalType": "uint256",
          "name": "nativeFee",
          "type": "uint256"
        },
        {
          "internalType": "uint256",
          "name": "zroFee",
          "type": "uint256"
        }
      ],
      "stateMutability": "view",
      "type": "function"
    },
    {
      "inputs": [
        {
          "internalType": "uint16",
          "name": "_dstChainId",
          "type": "uint16"
        },
        {
          "internalType": "bytes",
          "name": "",
          "type": "bytes"
        },
        {
          "internalType": "uint256",
          "name": "",
          "type": "uint256"
        },
        {
          "internalType": "uint256",
          "name": "",
          "type": "uint256"
        },
        {
          "internalType": "bool",
          "name": "_useZro",
          "type": "bool"
        },
        {
          "internalType": "bytes",
          "name": "_adapterParams",
          "type": "bytes"
        }
      ],
      "name": "estimateSendFee",
      "outputs": [
        {
          "internalType": "uint256",
          "name": "nativeFee",
          "type": "uint256"
        },
        {
          "internalType": "uint256",
          "name": "zroFee",
          "type": "uint256"
        }
      ],
      "stateMutability": "view",
      "type": "function"
    },
    {
      "inputs": [
        {
          "internalType": "uint16",
          "name": "",
          "type": "uint16"
        },
        {
          "internalType": "bytes",
          "name": "",
          "type": "bytes"
        },
        {
          "internalType": "uint256",
          "name": "",
          "type": "uint256"
        }
      ],
      "name": "failedMessages",
      "outputs": [
        {
          "internalType": "bytes32",
          "name": "",
          "type": "bytes32"
        }
      ],
      "stateMutability": "view",
      "type": "function"
    },
    {
      "inputs": [
        {
          "internalType": "uint16",
          "name": "_srcChainId",
          "type": "uint16"
        },
        {
          "internalType": "bytes",
          "name": "_srcAddress",
          "type": "bytes"
        }
      ],
      "name": "forceResumeReceive",
      "outputs": [],
      "stateMutability": "nonpayable",
      "type": "function"
    },
    {
      "inputs": [
        {
          "internalType": "uint16",
          "name": "",
          "type": "uint16"
        },
        {
          "internalType": "uint16",
          "name": "_chainId",
          "type": "uint16"
        },
        {
          "internalType": "address",
          "name": "",
          "type": "address"
        },
        {
          "internalType": "uint256",
          "name": "_configType",
          "type": "uint256"
        }
      ],
      "name": "getConfig",
      "outputs": [
        {
          "internalType": "bytes",
          "name": "",
          "type": "bytes"
        }
      ],
      "stateMutability": "view",
      "type": "function"
    },
    {
      "inputs": [],
      "name": "getLzEndpoint",
      "outputs": [
        {
          "internalType": "address",
          "name": "",
          "type": "address"
        }
      ],
      "stateMutability": "view",
      "type": "function"
    },
    {
      "inputs": [
        {
          "internalType": "uint16",
          "name": "_chainId",
          "type": "uint16"
        }
      ],
      "name": "getTrustedRemote",
      "outputs": [
        {
          "internalType": "bytes",
          "name": "",
          "type": "bytes"
        }
      ],
      "stateMutability": "view",
      "type": "function"
    },
    {
      "inputs": [
        {
          "internalType": "address",
          "name": "account",
          "type": "address"
        },
        {
          "internalType": "address",
          "name": "operator",
          "type": "address"
        }
      ],
      "name": "isApprovedForAll",
      "outputs": [
        {
          "internalType": "bool",
          "name": "",
          "type": "bool"
        }
      ],
      "stateMutability": "view",
      "type": "function"
    },
    {
      "inputs": [
        {
          "internalType": "uint16",
          "name": "_srcChainId",
          "type": "uint16"
        },
        {
          "internalType": "bytes",
          "name": "_srcAddress",
          "type": "bytes"
        }
      ],
      "name": "isTrustedRemote",
      "outputs": [
        {
          "internalType": "bool",
          "name": "",
          "type": "bool"
        }
      ],
      "stateMutability": "view",
      "type": "function"
    },
    {
      "inputs": [
        {
          "internalType": "address",
          "name": "agentAddr",
          "type": "address"
        }
      ],
      "name": "license",
      "outputs": [],
      "stateMutability": "nonpayable",
      "type": "function"
    },
    {
      "inputs": [
        {
          "internalType": "uint16",
          "name": "_srcChainId",
          "type": "uint16"
        },
        {
          "internalType": "bytes",
          "name": "_srcAddress",
          "type": "bytes"
        },
        {
          "internalType": "uint64",
          "name": "_nonce",
          "type": "uint64"
        },
        {
          "internalType": "bytes",
          "name": "_payload",
          "type": "bytes"
        }
      ],
      "name": "lzReceive",
      "outputs": [],
      "stateMutability": "nonpayable",
      "type": "function"
    },
    {
      "inputs": [],
      "name": "maxMintId",
      "outputs": [
        {
          "internalType": "uint256",
          "name": "",
          "type": "uint256"
        }
      ],
      "stateMutability": "view",
      "type": "function"
    },
    {
      "inputs": [],
      "name": "minMintId",
      "outputs": [
        {
          "internalType": "uint256",
          "name": "",
          "type": "uint256"
        }
      ],
      "stateMutability": "view",
      "type": "function"
    },
    {
      "inputs": [
        {
          "internalType": "uint256",
          "name": "_tokenId",
          "type": "uint256"
        },
        {
          "internalType": "uint256",
          "name": "_amount",
          "type": "uint256"
        }
      ],
      "name": "mint",
      "outputs": [],
      "stateMutability": "nonpayable",
      "type": "function"
    },
    {
      "inputs": [
        {
          "internalType": "uint256[]",
          "name": "_tokenIds",
          "type": "uint256[]"
        },
        {
          "internalType": "uint256[]",
          "name": "_amounts",
          "type": "uint256[]"
        }
      ],
      "name": "mintBatch",
      "outputs": [],
      "stateMutability": "nonpayable",
      "type": "function"
    },
    {
      "inputs": [],
      "name": "name",
      "outputs": [
        {
          "internalType": "string",
          "name": "",
          "type": "string"
        }
      ],
      "stateMutability": "view",
      "type": "function"
    },
    {
      "inputs": [
        {
          "internalType": "uint16",
          "name": "_srcChainId",
          "type": "uint16"
        },
        {
          "internalType": "bytes",
          "name": "_srcAddress",
          "type": "bytes"
        },
        {
          "internalType": "uint64",
          "name": "_nonce",
          "type": "uint64"
        },
        {
          "internalType": "bytes",
          "name": "_payload",
          "type": "bytes"
        }
      ],
      "name": "nonblockingLzReceive",
      "outputs": [],
      "stateMutability": "nonpayable",
      "type": "function"
    },
    {
      "inputs": [],
      "name": "owner",
      "outputs": [
        {
          "internalType": "address",
          "name": "",
          "type": "address"
        }
      ],
      "stateMutability": "view",
      "type": "function"
    },
    {
      "inputs": [],
      "name": "releasedLimitations",
      "outputs": [],
      "stateMutability": "nonpayable",
      "type": "function"
    },
    {
      "inputs": [],
      "name": "renounceOwnership",
      "outputs": [],
      "stateMutability": "nonpayable",
      "type": "function"
    },
    {
      "inputs": [
        {
          "internalType": "uint16",
          "name": "_srcChainId",
          "type": "uint16"
        },
        {
          "internalType": "bytes",
          "name": "_srcAddress",
          "type": "bytes"
        },
        {
          "internalType": "uint64",
          "name": "_nonce",
          "type": "uint64"
        },
        {
          "internalType": "bytes",
          "name": "_payload",
          "type": "bytes"
        }
      ],
      "name": "retryMessage",
      "outputs": [],
      "stateMutability": "payable",
      "type": "function"
    },
    {
      "inputs": [],
      "name": "reveal",
      "outputs": [],
      "stateMutability": "nonpayable",
      "type": "function"
    },
    {
      "inputs": [
        {
          "internalType": "address",
          "name": "from",
          "type": "address"
        },
        {
          "internalType": "address",
          "name": "to",
          "type": "address"
        },
        {
          "internalType": "uint256[]",
          "name": "ids",
          "type": "uint256[]"
        },
        {
          "internalType": "uint256[]",
          "name": "amounts",
          "type": "uint256[]"
        },
        {
          "internalType": "bytes",
          "name": "data",
          "type": "bytes"
        }
      ],
      "name": "safeBatchTransferFrom",
      "outputs": [],
      "stateMutability": "nonpayable",
      "type": "function"
    },
    {
      "inputs": [
        {
          "internalType": "address",
          "name": "from",
          "type": "address"
        },
        {
          "internalType": "address",
          "name": "to",
          "type": "address"
        },
        {
          "internalType": "uint256",
          "name": "id",
          "type": "uint256"
        },
        {
          "internalType": "uint256",
          "name": "amount",
          "type": "uint256"
        },
        {
          "internalType": "bytes",
          "name": "data",
          "type": "bytes"
        }
      ],
      "name": "safeTransferFrom",
      "outputs": [],
      "stateMutability": "nonpayable",
      "type": "function"
    },
    {
      "inputs": [
        {
          "internalType": "uint16",
          "name": "_dstChainId",
          "type": "uint16"
        },
        {
          "internalType": "bytes",
          "name": "_toAddress",
          "type": "bytes"
        },
        {
          "internalType": "uint256",
          "name": "_tokenId",
          "type": "uint256"
        },
        {
          "internalType": "uint256",
          "name": "_amount",
          "type": "uint256"
        },
        {
          "internalType": "address payable",
          "name": "_refundAddress",
          "type": "address"
        },
        {
          "internalType": "address",
          "name": "_zroPaymentAddress",
          "type": "address"
        },
        {
          "internalType": "bytes",
          "name": "_adapterParam",
          "type": "bytes"
        }
      ],
      "name": "send",
      "outputs": [],
      "stateMutability": "payable",
      "type": "function"
    },
    {
      "inputs": [
        {
          "internalType": "uint16",
          "name": "_dstChainId",
          "type": "uint16"
        },
        {
          "internalType": "bytes",
          "name": "_toAddress",
          "type": "bytes"
        },
        {
          "internalType": "uint256[]",
          "name": "_tokenIds",
          "type": "uint256[]"
        },
        {
          "internalType": "uint256[]",
          "name": "_amounts",
          "type": "uint256[]"
        },
        {
          "internalType": "address payable",
          "name": "_refundAddress",
          "type": "address"
        },
        {
          "internalType": "address",
          "name": "_zroPaymentAddress",
          "type": "address"
        },
        {
          "internalType": "bytes",
          "name": "_adapterParam",
          "type": "bytes"
        }
      ],
      "name": "sendBatch",
      "outputs": [],
      "stateMutability": "payable",
      "type": "function"
    },
    {
      "inputs": [
        {
          "internalType": "address",
          "name": "_from",
          "type": "address"
        },
        {
          "internalType": "uint16",
          "name": "_dstChainId",
          "type": "uint16"
        },
        {
          "internalType": "bytes",
          "name": "_toAddress",
          "type": "bytes"
        },
        {
          "internalType": "uint256[]",
          "name": "_tokenIds",
          "type": "uint256[]"
        },
        {
          "internalType": "uint256[]",
          "name": "_amounts",
          "type": "uint256[]"
        },
        {
          "internalType": "address payable",
          "name": "_refundAddress",
          "type": "address"
        },
        {
          "internalType": "address",
          "name": "_zroPaymentAddress",
          "type": "address"
        },
        {
          "internalType": "bytes",
          "name": "_adapterParam",
          "type": "bytes"
        }
      ],
      "name": "sendBatchFrom",
      "outputs": [],
      "stateMutability": "payable",
      "type": "function"
    },
    {
      "inputs": [
        {
          "internalType": "address",
          "name": "_from",
          "type": "address"
        },
        {
          "internalType": "uint16",
          "name": "_dstChainId",
          "type": "uint16"
        },
        {
          "internalType": "bytes",
          "name": "_toAddress",
          "type": "bytes"
        },
        {
          "internalType": "uint256",
          "name": "_tokenId",
          "type": "uint256"
        },
        {
          "internalType": "uint256",
          "name": "_amount",
          "type": "uint256"
        },
        {
          "internalType": "address payable",
          "name": "_refundAddress",
          "type": "address"
        },
        {
          "internalType": "address",
          "name": "_zroPaymentAddress",
          "type": "address"
        },
        {
          "internalType": "bytes",
          "name": "_adapterParam",
          "type": "bytes"
        }
      ],
      "name": "sendFrom",
      "outputs": [],
      "stateMutability": "payable",
      "type": "function"
    },
    {
      "inputs": [
        {
          "internalType": "address",
          "name": "operator",
          "type": "address"
        },
        {
          "internalType": "bool",
          "name": "approved",
          "type": "bool"
        }
      ],
      "name": "setApprovalForAll",
      "outputs": [],
      "stateMutability": "nonpayable",
      "type": "function"
    },
    {
      "inputs": [
        {
          "internalType": "uint16",
          "name": "_version",
          "type": "uint16"
        },
        {
          "internalType": "uint16",
          "name": "_chainId",
          "type": "uint16"
        },
        {
          "internalType": "uint256",
          "name": "_configType",
          "type": "uint256"
        },
        {
          "internalType": "bytes",
          "name": "_config",
          "type": "bytes"
        }
      ],
      "name": "setConfig",
      "outputs": [],
      "stateMutability": "nonpayable",
      "type": "function"
    },
    {
      "inputs": [
        {
          "internalType": "uint16",
          "name": "_version",
          "type": "uint16"
        }
      ],
      "name": "setReceiveVersion",
      "outputs": [],
      "stateMutability": "nonpayable",
      "type": "function"
    },
    {
      "inputs": [
        {
          "internalType": "uint16",
          "name": "_version",
          "type": "uint16"
        }
      ],
      "name": "setSendVersion",
      "outputs": [],
      "stateMutability": "nonpayable",
      "type": "function"
    },
    {
      "inputs": [
        {
          "internalType": "uint16",
          "name": "_srcChainId",
          "type": "uint16"
        },
        {
          "internalType": "bytes",
          "name": "_srcAddress",
          "type": "bytes"
        }
      ],
      "name": "setTrustedRemote",
      "outputs": [],
      "stateMutability": "nonpayable",
      "type": "function"
    },
    {
      "inputs": [
        {
          "internalType": "uint256",
          "name": "_tokenId",
          "type": "uint256"
        },
        {
          "internalType": "uint256",
          "name": "_amount",
          "type": "uint256"
        },
        {
          "internalType": "bytes",
          "name": "_toAddress",
          "type": "bytes"
        },
        {
          "internalType": "bytes",
          "name": "_adapterParam",
          "type": "bytes"
        }
      ],
      "name": "simpleSend",
      "outputs": [],
      "stateMutability": "payable",
      "type": "function"
    },
    {
      "inputs": [],
      "name": "startSale",
      "outputs": [],
      "stateMutability": "nonpayable",
      "type": "function"
    },
    {
      "inputs": [
        {
          "internalType": "bytes4",
          "name": "interfaceId",
          "type": "bytes4"
        }
      ],
      "name": "supportsInterface",
      "outputs": [
        {
          "internalType": "bool",
          "name": "",
          "type": "bool"
        }
      ],
      "stateMutability": "view",
      "type": "function"
    },
    {
      "inputs": [],
      "name": "suspendSale",
      "outputs": [],
      "stateMutability": "nonpayable",
      "type": "function"
    },
    {
      "inputs": [],
      "name": "symbol",
      "outputs": [
        {
          "internalType": "string",
          "name": "",
          "type": "string"
        }
      ],
      "stateMutability": "view",
      "type": "function"
    },
    {
      "inputs": [],
      "name": "totalSupply",
      "outputs": [
        {
          "internalType": "uint256",
          "name": "",
          "type": "uint256"
        }
      ],
      "stateMutability": "view",
      "type": "function"
    },
    {
      "inputs": [
        {
          "internalType": "address",
          "name": "newOwner",
          "type": "address"
        }
      ],
      "name": "transferOwnership",
      "outputs": [],
      "stateMutability": "nonpayable",
      "type": "function"
    },
    {
      "inputs": [
        {
          "internalType": "address",
          "name": "agentAddr",
          "type": "address"
        }
      ],
      "name": "unlicense",
      "outputs": [],
      "stateMutability": "nonpayable",
      "type": "function"
    },
    {
      "inputs": [
        {
          "internalType": "uint256",
          "name": "",
          "type": "uint256"
        }
      ],
      "name": "uri",
      "outputs": [
        {
          "internalType": "string",
          "name": "",
          "type": "string"
        }
      ],
      "stateMutability": "view",
      "type": "function"
    }
  ],
  "bytecode": "0x600d805461ffff19169055610120604052604860a08181529062005c1560c03980516200003591600e91602090910190620004f5565b503480156200004357600080fd5b5060405162005c5d38038062005c5d833981016040819052620000669162000652565b600e805462000075906200070e565b80601f0160208091040260200160405190810160405280929190818152602001828054620000a3906200070e565b8015620000f45780601f10620000c857610100808354040283529160200191620000f4565b820191906000526020600020905b815481529060010190602001808311620000d657829003601f168201915b50505050508481818062000117620001116200048860201b60201c565b6200048c565b60601b6001600160601b031916608052506200013381620004dc565b50506010602090815260037f8c6065603763fec3f5742441d3833f3f43b982453612d76adb39a885e3006b5f8190557f853b2fefe141400fef543280f93d98bd49996069f632d0d20236afeeed8e46a25560027fb3edd0d534d647cffdae9f1294f11ad21f3fcf2814bea44c92bbb8d384a57d9e8190557f1588ac671d87f82adc0e6ae8ab009c0de98f92a20243897597e566bc59b9c12681905560017f61a7346ab5ebdac457db2a901eaf1b805239b6049a1b2f34bab85e2e274f39cb8190557f20edfb71820f6f00f6a84ccfefb91587cd9f849f8349b0a3182a4795899d9cd9819055600a7f4ef6145e44e4298293af15ae5f84f922a836b1d6db608fd5008f32a528b312a98190557f5f04e77c60ed37290f5789e2e9c5d396103f3c4b14614065cbb4c8362609d5a58190557fa8197f9f3066d467dba941614f445cf878e0beb059ed920f6258667ed2470eb8919091557fbbe6df1631c6a5c37158096bc15825d83d22eaca9ac1e829be6dfcdebed1d2d78290557f222281f8a778a50c678b18290b6f1f76b73341460456cd404319acd135fca47782905560147f1c47f412c035acfb11780222aae71bf1bbf164d6655f4eb426a4fdb92a17a32381905560057fdfb340902d3967fa50e8165d4f7a13c9cb160eea8fb21544939c9a839ac4b6c48190557fd331405802b48c62503c15f58c7a0f7d4e115b3f84eaa7ece1215aeb38f6b4bf8190557fad6509bb0b6dc44cf2f1c6595da7ff5ec660b594001258d15cd32de4206f0af08490557f70245aa8eee00889cc059fdc11a53867c856b61f1cf8bc3ee4f4442d6b5c3c37939093557f28f973f655c78d879d00767376b860c7f1ff781d69e5cd4aa2f5a99e2232013c8290557fe397cf9706f522dafff518f3ae63b4cdcabf8a93293fcc829843d749f8151bb08390557fab6e88ec9844f266cae57004e7e0869495b951c20b7a4491e795bfa666c3d0299290925560009190915260097ff2ef7423a23268829f7e276c7aa619cf68f387174646eff25875ddeaf25728cf81905586905584905587516200043b9250600791890190620004f5565b50845162000451906008906020880190620004f5565b50600680546001600160a01b03191633179055600b805461ffff9290921661ffff1990921691909117905550620007619350505050565b3390565b600080546001600160a01b038381166001600160a01b0319831681178455604051919092169283917f8be0079c531659141344cd1fd0a4f28419497f9722a3daafe3b4186f6b6457e09190a35050565b8051620004f1906005906020840190620004f5565b5050565b82805462000503906200070e565b90600052602060002090601f01602090048101928262000527576000855562000572565b82601f106200054257805160ff191683800117855562000572565b8280016001018555821562000572579182015b828111156200057257825182559160200191906001019062000555565b506200058092915062000584565b5090565b5b8082111562000580576000815560010162000585565b600082601f830112620005ad57600080fd5b81516001600160401b0380821115620005ca57620005ca6200074b565b604051601f8301601f19908116603f01168101908282118183101715620005f557620005f56200074b565b816040528381526020925086838588010111156200061257600080fd5b600091505b8382101562000636578582018301518183018401529082019062000617565b83821115620006485760008385830101525b9695505050505050565b60008060008060008060c087890312156200066c57600080fd5b86516001600160401b03808211156200068457600080fd5b620006928a838b016200059b565b97506020890151915080821115620006a957600080fd5b50620006b889828a016200059b565b604089015190965090506001600160a01b0381168114620006d857600080fd5b80945050606087015192506080870151915060a087015161ffff811681146200070057600080fd5b809150509295509295509295565b600181811c908216806200072357607f821691505b602082108114156200074557634e487b7160e01b600052602260045260246000fd5b50919050565b634e487b7160e01b600052604160045260246000fd5b60805160601c615448620007cd600039600081816107550152818161085b01528181610b1c01528181610c5b01528181610fa5015281816114b90152818161178d0152818161195301528181612004015281816125a5015281816127ed015261364f01526154486000f3fe60806040526004361061027b5760003560e01c80638608e5f81161014f578063c96e10b1116100c1578063e1d4c8701161007a578063e1d4c87014610779578063e985e9c51461078f578063eb8d72b7146107d8578063f242432a146107f8578063f2fde38b14610818578063f5ecbdbc1461083857600080fd5b8063c96e10b1146106c0578063cbed8b9c146106d3578063d1deba1f146106f3578063d351cfdc14610706578063d6062e4414610726578063dacbcbe21461074657600080fd5b80639d1835db116101135780639d1835db14610620578063a22cb46514610640578063a475b5dd14610660578063ae578cc114610675578063b25356631461068b578063b66a0e5d146106ab57600080fd5b80638608e5f8146105405780638da5cb5b146105755780638ee74912146105a757806393d88409146105f657806395d89b411461060b57600080fd5b80633d8b38f6116101f35780635f5e0710116101ac5780635f5e0710146104985780635f6928e2146104b857806366ad5c8a146104d857806369b41f95146104f85780636f6120a614610518578063715018a61461052b57600080fd5b80633d8b38f6146103f257806342d65a8d146104125780634ab4e687146104325780634be699cd146104455780634db8226a146104585780634e1273f41461046b57600080fd5b80630e89341c116102455780630e89341c1461034757806310ddb1371461036757806318160ddd146103875780631b2ef1ca1461039d5780631b548e99146103bd5780632eb2c2d6146103d257600080fd5b80621d356714610280578062fdd58e146102a257806301ffc9a7146102d557806306fdde031461030557806307e0db1714610327575b600080fd5b34801561028c57600080fd5b506102a061029b3660046146a4565b610858565b005b3480156102ae57600080fd5b506102c26102bd366004613fcc565b610961565b6040519081526020015b60405180910390f35b3480156102e157600080fd5b506102f56102f0366004614116565b6109f5565b60405190151581526020016102cc565b34801561031157600080fd5b5061031a610a47565b6040516102cc9190614b66565b34801561033357600080fd5b506102a061034236600461425b565b610ad9565b34801561035357600080fd5b5061031a6103623660046147e0565b610b84565b34801561037357600080fd5b506102a061038236600461425b565b610c18565b34801561039357600080fd5b506102c2600c5481565b3480156103a957600080fd5b506102a06103b83660046147f9565b610c92565b3480156103c957600080fd5b506102a0610e00565b3480156103de57600080fd5b506102a06103ed366004613cd6565b610e53565b3480156103fe57600080fd5b506102f561040d366004614295565b610e98565b34801561041e57600080fd5b506102a061042d366004614295565b610f64565b6102a0610440366004613e20565b611015565b6102a06104533660046144ae565b61106a565b6102a0610466366004613f1e565b6110be565b34801561047757600080fd5b5061048b610486366004613ff8565b611107565b6040516102cc9190614aef565b3480156104a457600080fd5b506102a06104b3366004613c80565b611230565b3480156104c457600080fd5b506102a06104d3366004613c80565b611295565b3480156104e457600080fd5b506102a06104f33660046146a4565b6112fd565b34801561050457600080fd5b5061031a61051336600461425b565b611363565b6102a06105263660046142e9565b611385565b34801561053757600080fd5b506102a06113ce565b34801561054c57600080fd5b5061056061055b36600461454a565b611404565b604080519283526020830191909152016102cc565b34801561058157600080fd5b506000546001600160a01b03165b6040516001600160a01b0390911681526020016102cc565b3480156105b357600080fd5b506102c26105c23660046145bb565b6002602090815260009384526040808520845180860184018051928152908401958401959095209452929052825290205481565b34801561060257600080fd5b506102a0611570565b34801561061757600080fd5b5061031a611607565b34801561062c57600080fd5b506102a061063b366004614213565b611616565b34801561064c57600080fd5b506102a061065b366004613deb565b611666565b34801561066c57600080fd5b506102a0611675565b34801561068157600080fd5b506102c260095481565b34801561069757600080fd5b506105606106a63660046143d5565b61174c565b3480156106b757600080fd5b506102a061182d565b6102a06106ce36600461483f565b6118bc565b3480156106df57600080fd5b506102a06106ee36600461477f565b611912565b6102a0610701366004614613565b6119be565b34801561071257600080fd5b506102a06107213660046140ca565b611b58565b34801561073257600080fd5b506102a0610741366004613c80565b611ddc565b34801561075257600080fd5b507f000000000000000000000000000000000000000000000000000000000000000061058f565b34801561078557600080fd5b506102c2600a5481565b34801561079b57600080fd5b506102f56107aa366004613c9d565b6001600160a01b03918216600090815260046020908152604080832093909416825291909152205460ff1690565b3480156107e457600080fd5b506102a06107f3366004614295565b611e44565b34801561080457600080fd5b506102a0610813366004613d83565b611ecd565b34801561082457600080fd5b506102a0610833366004613c80565b611f54565b34801561084457600080fd5b5061031a61085336600461472e565b611fec565b337f00000000000000000000000000000000000000000000000000000000000000006001600160a01b03161461088d57600080fd5b61ffff8416600090815260016020526040902080546108ab90615219565b905083511480156108ea575061ffff84166000908152600160205260409081902090516108d8919061499a565b60405180910390208380519060200120145b61094f5760405162461bcd60e51b815260206004820152602b60248201527f4c7a52656365697665723a20696e76616c696420736f757263652073656e646960448201526a1b99c818dbdb9d1c9858dd60aa1b60648201526084015b60405180910390fd5b61095b84848484612122565b50505050565b60006001600160a01b0383166109cd5760405162461bcd60e51b815260206004820152602b60248201527f455243313135353a2062616c616e636520717565727920666f7220746865207a60448201526a65726f206164647265737360a81b6064820152608401610946565b5060009081526003602090815260408083206001600160a01b03949094168352929052205490565b60006001600160e01b03198216636cdb3d1360e11b1480610a2657506001600160e01b031982166303a24d0760e21b145b80610a4157506301ffc9a760e01b6001600160e01b03198316145b92915050565b606060078054610a5690615219565b80601f0160208091040260200160405190810160405280929190818152602001828054610a8290615219565b8015610acf5780601f10610aa457610100808354040283529160200191610acf565b820191906000526020600020905b815481529060010190602001808311610ab257829003601f168201915b5050505050905090565b6000546001600160a01b03163314610b035760405162461bcd60e51b815260040161094690614db1565b6040516307e0db1760e01b815261ffff821660048201527f00000000000000000000000000000000000000000000000000000000000000006001600160a01b0316906307e0db17906024015b600060405180830381600087803b158015610b6957600080fd5b505af1158015610b7d573d6000803e3d6000fd5b5050505050565b606060058054610b9390615219565b80601f0160208091040260200160405190810160405280929190818152602001828054610bbf90615219565b8015610c0c5780601f10610be157610100808354040283529160200191610c0c565b820191906000526020600020905b815481529060010190602001808311610bef57829003601f168201915b50505050509050919050565b6000546001600160a01b03163314610c425760405162461bcd60e51b815260040161094690614db1565b6040516310ddb13760e01b815261ffff821660048201527f00000000000000000000000000000000000000000000000000000000000000006001600160a01b0316906310ddb13790602401610b4f565b6006546001600160a01b0316331480610cba57503360009081526012602052604090205460ff165b610cd65760405162461bcd60e51b815260040161094690614cd5565b600082815260106020908152604080832054600f9092529091205483918391610d009083906151d5565b1115610d435760405162461bcd60e51b815260206004820152601260248201527113585e081cdd5c1c1b1e481c995858da195960721b6044820152606401610946565b6009548410158015610d575750600a548411155b610d735760405162461bcd60e51b815260040161094690614e27565b6000848152600f602052604081208054859290610d919084906151d5565b9250508190555082600c6000828254610daa91906151d5565b90915550610dcb905033858560405180602001604052806000815250612213565b6040805185815260208101859052339160009183916000805160206153f383398151915291015b60405180910390a450505050565b6006546001600160a01b0316331480610e2857503360009081526012602052604090205460ff165b610e445760405162461bcd60e51b815260040161094690614cd5565b600d805460ff19166001179055565b6001600160a01b038516331480610e6f5750610e6f85336107aa565b610e8b5760405162461bcd60e51b815260040161094690614c83565b610b7d85858585856122d9565b61ffff831660009081526001602052604081208054829190610eb990615219565b80601f0160208091040260200160405190810160405280929190818152602001828054610ee590615219565b8015610f325780601f10610f0757610100808354040283529160200191610f32565b820191906000526020600020905b815481529060010190602001808311610f1557829003601f168201915b505050505090508383604051610f4992919061496e565b60405180910390208180519060200120149150509392505050565b6000546001600160a01b03163314610f8e5760405162461bcd60e51b815260040161094690614db1565b6040516342d65a8d60e01b81526001600160a01b037f000000000000000000000000000000000000000000000000000000000000000016906342d65a8d90610fde90869086908690600401614fef565b600060405180830381600087803b158015610ff857600080fd5b505af115801561100c573d6000803e3d6000fd5b50505050505050565b61105e8a8a8a8a8080601f0160208091040260200160405190810160405280939291908181526020018383808284376000920191909152508c92508b91508a905089898961246c565b50505050505050505050565b6110b3338a8a8a8080601f0160208091040260200160405190810160405280939291908181526020018383808284376000920191909152508c92508b91508a9050898989612696565b505050505050505050565b61105e8a8a8a8a8080601f0160208091040260200160405190810160405280939291908181526020018383808284376000920191909152508c92508b91508a9050898989612696565b6060815183511461116c5760405162461bcd60e51b815260206004820152602960248201527f455243313135353a206163636f756e747320616e6420696473206c656e677468604482015268040dad2e6dac2e8c6d60bb1b6064820152608401610946565b600083516001600160401b03811115611187576111876152c7565b6040519080825280602002602001820160405280156111b0578160200160208202803683370190505b50905060005b8451811015611228576111fb8582815181106111d4576111d46152b1565b60200260200101518583815181106111ee576111ee6152b1565b6020026020010151610961565b82828151811061120d5761120d6152b1565b602090810291909101015261122181615280565b90506111b6565b509392505050565b6006546001600160a01b031633148061125857503360009081526012602052604090205460ff165b6112745760405162461bcd60e51b815260040161094690614cd5565b6001600160a01b03166000908152601260205260409020805460ff19169055565b6006546001600160a01b03163314806112bd57503360009081526012602052604090205460ff165b6112d95760405162461bcd60e51b815260040161094690614cd5565b6001600160a01b03166000908152601160205260409020805460ff19166001179055565b3330146113575760405162461bcd60e51b815260206004820152602260248201527f4c7a52656365697665723a2063616c6c6572206d757374206265204272696467604482015261329760f11b6064820152608401610946565b61095b848484846128fa565b61ffff81166000908152600160205260409020805460609190610b9390615219565b6110b3338a8a8a8080601f0160208091040260200160405190810160405280939291908181526020018383808284376000920191909152508c92508b91508a905089898961246c565b6000546001600160a01b031633146113f85760405162461bcd60e51b815260040161094690614db1565b6114026000612a6d565b565b60408051600180825281830190925260009182918291602080830190803683375050604080516001808252818301909252929350600092915060208083019080368337019050509050600082600081518110611462576114626152b1565b602002602001018181525050600081600081518110611483576114836152b1565b60200260200101818152505060008083836040516020016114a693929190614aaf565b60405160208183030381529060405290507f00000000000000000000000000000000000000000000000000000000000000006001600160a01b03166340a7bb108e30848c8c8c6040518763ffffffff1660e01b815260040161150d96959493929190614f99565b604080518083038186803b15801561152457600080fd5b505afa158015611538573d6000803e3d6000fd5b505050506040513d601f19601f8201168201806040525081019061155c919061481b565b945094505050509850989650505050505050565b6006546001600160a01b031633148061159857503360009081526012602052604090205460ff165b6115b45760405162461bcd60e51b815260040161094690614cd5565b600d805461ff001916908190556040517f550905f1da7012a5beef71875850a6d1570b14618f64bdcc3cb876b9a231f5a3916115fd9161010090910460ff161515815260200190565b60405180910390a1565b606060088054610a5690615219565b6006546001600160a01b031633148061163e57503360009081526012602052604090205460ff165b61165a5760405162461bcd60e51b815260040161094690614cd5565b61166381612abd565b50565b611671338383612ad0565b5050565b6006546001600160a01b031633148061169d57503360009081526012602052604090205460ff165b6116b95760405162461bcd60e51b815260040161094690614cd5565b611402600e80546116c990615219565b80601f01602080910402602001604051908101604052809291908181526020018280546116f590615219565b80156117425780601f1061171757610100808354040283529160200191611742565b820191906000526020600020905b81548152906001019060200180831161172557829003601f168201915b5050505050612abd565b600080600080888860405160200161176693929190614aaf565b60408051601f198184030181529082905263040a7bb160e41b825291506001600160a01b037f000000000000000000000000000000000000000000000000000000000000000016906340a7bb10906117cc908e90309086908c908c908c90600401614f99565b604080518083038186803b1580156117e357600080fd5b505afa1580156117f7573d6000803e3d6000fd5b505050506040513d601f19601f8201168201806040525081019061181b919061481b565b92509250509850989650505050505050565b6006546001600160a01b031633148061185557503360009081526012602052604090205460ff165b6118715760405162461bcd60e51b815260040161094690614cd5565b600d805461ff001916610100908117918290556040517f550905f1da7012a5beef71875850a6d1570b14618f64bdcc3cb876b9a231f5a3926115fd92900460ff161515815260200190565b61190a33600b54604080516020601f890181900481028201810190925287815261ffff9092169190889088908190840183828082843760009201829052508d93508c92503391508989612696565b505050505050565b6000546001600160a01b0316331461193c5760405162461bcd60e51b815260040161094690614db1565b6040516332fb62e760e21b81526001600160a01b037f0000000000000000000000000000000000000000000000000000000000000000169063cbed8b9c90611990908890889088908890889060040161515d565b600060405180830381600087803b1580156119aa57600080fd5b505af11580156110b3573d6000803e3d6000fd5b61ffff851660009081526002602052604080822090516119df90879061497e565b90815260408051602092819003830190206001600160401b03871660009081529252902054905080611a535760405162461bcd60e51b815260206004820152601d60248201527f4c7a52656365697665723a206e6f2073746f726564206d6573736167650000006044820152606401610946565b808383604051611a6492919061496e565b604051809103902014611ab95760405162461bcd60e51b815260206004820152601b60248201527f4c7a52656365697665723a20696e76616c6964207061796c6f616400000000006044820152606401610946565b61ffff86166000908152600260205260408082209051611ada90889061497e565b9081526040805191829003602090810183206001600160401b038916600090815291522091909155633356ae4560e11b815230906366ad5c8a90611b2a908990899089908990899060040161500d565b600060405180830381600087803b158015611b4457600080fd5b505af115801561105e573d6000803e3d6000fd5b6006546001600160a01b0316331480611b8057503360009081526012602052604090205460ff165b611b9c5760405162461bcd60e51b815260040161094690614cd5565b818160005b8251811015611c7d5760106000848381518110611bc057611bc06152b1565b6020026020010151815260200190815260200160002054828281518110611be957611be96152b1565b6020026020010151600f6000868581518110611c0757611c076152b1565b6020026020010151815260200190815260200160002054611c2891906151d5565b1115611c6b5760405162461bcd60e51b815260206004820152601260248201527113585e081cdd5c1c1b1e481c995858da195960721b6044820152606401610946565b80611c7581615280565b915050611ba1565b5060005b8451811015611d8b57600954858281518110611c9f57611c9f6152b1565b602002602001015110158015611cd05750600a54858281518110611cc557611cc56152b1565b602002602001015111155b611cec5760405162461bcd60e51b815260040161094690614e27565b838181518110611cfe57611cfe6152b1565b6020026020010151600f6000878481518110611d1c57611d1c6152b1565b602002602001015181526020019081526020016000206000828254611d4191906151d5565b92505081905550838181518110611d5a57611d5a6152b1565b6020026020010151600c6000828254611d7391906151d5565b90915550819050611d8381615280565b915050611c81565b50611da733858560405180602001604052806000815250612bb1565b336001600160a01b03166000336001600160a01b03166000805160206153d38339815191528787604051610df2929190614b02565b6006546001600160a01b0316331480611e0457503360009081526012602052604090205460ff165b611e205760405162461bcd60e51b815260040161094690614cd5565b6001600160a01b03166000908152601260205260409020805460ff19166001179055565b6000546001600160a01b03163314611e6e5760405162461bcd60e51b815260040161094690614db1565b61ffff83166000908152600160205260409020611e8c908383613963565b507ffa41487ad5d6728f0b19276fa1eddc16558578f5109fc39d2dc33c3230470dab838383604051611ec093929190614fef565b60405180910390a1505050565b6001600160a01b038516331480611ee95750611ee985336107aa565b611f475760405162461bcd60e51b815260206004820152602960248201527f455243313135353a2063616c6c6572206973206e6f74206f776e6572206e6f7260448201526808185c1c1c9bdd995960ba1b6064820152608401610946565b610b7d8585858585612cfa565b6000546001600160a01b03163314611f7e5760405162461bcd60e51b815260040161094690614db1565b6001600160a01b038116611fe35760405162461bcd60e51b815260206004820152602660248201527f4f776e61626c653a206e6577206f776e657220697320746865207a65726f206160448201526564647265737360d01b6064820152608401610946565b61166381612a6d565b6040516304b2b47b60e11b81523060048201526060907f00000000000000000000000000000000000000000000000000000000000000006001600160a01b03169063f5ecbdbc90829063096568f69060240160206040518083038186803b15801561205657600080fd5b505afa15801561206a573d6000803e3d6000fd5b505050506040513d601f19601f8201168201806040525081019061208e9190614278565b6040516001600160e01b031960e084901b16815261ffff918216600482015290871660248201523060448201526064810185905260840160006040518083038186803b1580156120dd57600080fd5b505afa1580156120f1573d6000803e3d6000fd5b505050506040513d6000823e601f3d908101601f191682016040526121199190810190614150565b95945050505050565b604051633356ae4560e11b815230906366ad5c8a9061214b90879087908790879060040161504c565b600060405180830381600087803b15801561216557600080fd5b505af1925050508015612176575060015b61095b578080519060200120600260008661ffff1661ffff168152602001908152602001600020846040516121ab919061497e565b9081526040805191829003602090810183206001600160401b0387166000908152915220919091557fe6f254030bcb01ffd20558175c13fcaed6d1520be7becee4c961b65f79243b0d9061220690869086908690869061504c565b60405180910390a161095b565b6001600160a01b0384166122395760405162461bcd60e51b815260040161094690614efc565b336122598160008761224a88612e00565b61225388612e00565b87612e4b565b60008481526003602090815260408083206001600160a01b03891684529091528120805485929061228b9084906151d5565b909155505060408051858152602081018590526001600160a01b0380881692600092918516916000805160206153f3833981519152910160405180910390a4610b7d8160008787878761335c565b81518351146122fa5760405162461bcd60e51b815260040161094690614eb4565b6001600160a01b0384166123205760405162461bcd60e51b815260040161094690614c3e565b3361232f818787878787612e4b565b60005b845181101561241857600085828151811061234f5761234f6152b1565b60200260200101519050600085838151811061236d5761236d6152b1565b60209081029190910181015160008481526003835260408082206001600160a01b038e1683529093529190912054909150818110156123be5760405162461bcd60e51b815260040161094690614d67565b60008381526003602090815260408083206001600160a01b038e8116855292528083208585039055908b168252812080548492906123fd9084906151d5565b925050819055505050508061241190615280565b9050612332565b50846001600160a01b0316866001600160a01b0316826001600160a01b03166000805160206153d38339815191528787604051612456929190614b02565b60405180910390a461190a8187878787876134c7565b84518651146124d35760405162461bcd60e51b815260206004820152602d60248201527f4f4e4654313135353a2069647320616e6420616d6f756e7473206d757374206260448201526c0ca40e6c2daca40d8cadccee8d609b1b6064820152608401610946565b336001600160a01b038a1614806124ef57506124ef33336107aa565b61250b5760405162461bcd60e51b815260040161094690614c83565b6125188989898989613591565b600087878760405160200161252f93929190614b79565b60405160208183030381529060405290506125838982878787878080601f01602080910402602001604051908101604052809392919081815260200183838082843760009201919091525061359c92505050565b604051630f428ae960e31b815261ffff8a1660048201523060248201526000907f00000000000000000000000000000000000000000000000000000000000000006001600160a01b031690637a1457489060440160206040518083038186803b1580156125ef57600080fd5b505afa158015612603573d6000803e3d6000fd5b505050506040513d601f19601f8201168201806040525081019061262791906148c1565b905088604051612637919061497e565b60405180910390208a61ffff168c6001600160a01b03167f2d31495ecbe799a81d5475c03585aa019860601fed836229d70e335b732eab3d8b8b8660405161268193929190614b27565b60405180910390a45050505050505050505050565b336001600160a01b038a1614806126b257506126b289336107aa565b6126ce5760405162461bcd60e51b815260040161094690614c83565b6126db89898989896136a8565b6040805160018082528183019092526000916020808301908036833750506040805160018082528183019092529293506000929150602080830190803683370190505090508782600081518110612734576127346152b1565b6020026020010181815250508681600081518110612754576127546152b1565b602002602001018181525050600089838360405160200161277793929190614b79565b60405160208183030381529060405290506127cb8b82898989898080601f01602080910402602001604051908101604052809392919081815260200183838082843760009201919091525061359c92505050565b604051630f428ae960e31b815261ffff8c1660048201523060248201526000907f00000000000000000000000000000000000000000000000000000000000000006001600160a01b031690637a1457489060440160206040518083038186803b15801561283757600080fd5b505afa15801561284b573d6000803e3d6000fd5b505050506040513d601f19601f8201168201806040525081019061286f91906148c1565b90508a60405161287f919061497e565b60405180910390208c61ffff168e6001600160a01b03167f65f8f231660ef9add3da95eb0bbdae4c246f6c10e274fae37b17190637080d4c8d8d866040516128e39392919092835260208301919091526001600160401b0316604082015260600190565b60405180910390a450505050505050505050505050565b600080600083806020019051810190612913919061418c565b60148301519295509093509150825160011415612a0d5761296a888285600081518110612942576129426152b1565b60200260200101518560008151811061295d5761295d6152b1565b60200260200101516136b3565b7f8bccaf86bd8794bd0e54aefcb70b3fc3311241ce1d3079856c598be6f28d22ed8882856000815181106129a0576129a06152b1565b6020026020010151856000815181106129bb576129bb6152b1565b6020908102919091018101516040805161ffff90961686526001600160a01b03909416918501919091529183015260608201526001600160401b038816608082015260a00160405180910390a1612a63565b600183511115612a6357612a23888285856136d9565b7f33d59524159626dcbabfbceab8649c13e2c5dbe300a211f844fcff8697e81cc2888285858a604051612a5a959493929190614f3d565b60405180910390a15b5050505050505050565b600080546001600160a01b038381166001600160a01b0319831681178455604051919092169283917f8be0079c531659141344cd1fd0a4f28419497f9722a3daafe3b4186f6b6457e09190a35050565b80516116719060059060208401906139e7565b816001600160a01b0316836001600160a01b03161415612b445760405162461bcd60e51b815260206004820152602960248201527f455243313135353a2073657474696e6720617070726f76616c20737461747573604482015268103337b91039b2b63360b91b6064820152608401610946565b6001600160a01b03838116600081815260046020908152604080832094871680845294825291829020805460ff191686151590811790915591519182527f17307eab39ab6107e8899845ad3d59bd9653f200f220920489ca2b5937696c31910160405180910390a3505050565b6001600160a01b038416612bd75760405162461bcd60e51b815260040161094690614efc565b8151835114612bf85760405162461bcd60e51b815260040161094690614eb4565b33612c0881600087878787612e4b565b60005b8451811015612ca457838181518110612c2657612c266152b1565b602002602001015160036000878481518110612c4457612c446152b1565b602002602001015181526020019081526020016000206000886001600160a01b03166001600160a01b031681526020019081526020016000206000828254612c8c91906151d5565b90915550819050612c9c81615280565b915050612c0b565b50846001600160a01b031660006001600160a01b0316826001600160a01b03166000805160206153d38339815191528787604051612ce3929190614b02565b60405180910390a4610b7d816000878787876134c7565b6001600160a01b038416612d205760405162461bcd60e51b815260040161094690614c3e565b33612d3081878761224a88612e00565b60008481526003602090815260408083206001600160a01b038a16845290915290205483811015612d735760405162461bcd60e51b815260040161094690614d67565b60008581526003602090815260408083206001600160a01b038b8116855292528083208785039055908816825281208054869290612db29084906151d5565b909155505060408051868152602081018690526001600160a01b03808916928a821692918616916000805160206153f3833981519152910160405180910390a461100c82888888888861335c565b60408051600180825281830190925260609160009190602080830190803683370190505090508281600081518110612e3a57612e3a6152b1565b602090810291909101015292915050565b6001600160a01b0385161580612e6857506001600160a01b038416155b80612e8157506000546001600160a01b03868116911614155b15612e8b5761190a565b600d54610100900460ff16612eda5760405162461bcd60e51b815260206004820152601560248201527453616c652069732073757370656e646564206e6f7760581b6044820152606401610946565b600d54610100900460ff168015612ef45750600d5460ff16155b1561190a5760005b835181101561100c576002848281518110612f1957612f196152b1565b602002602001015111613045576001600160a01b03851660009081526011602052604090205460ff16612f5e5760405162461bcd60e51b815260040161094690614de6565b6001838281518110612f7257612f726152b1565b6020026020010151612f90878785815181106111ee576111ee6152b1565b612f9a91906151d5565b1115612fb85760405162461bcd60e51b815260040161094690614e6b565b846001600160a01b0316866001600160a01b03167fae4f547fa32bbfb0aacef985ccda1764fe4c357ccd59f52d389308624e764f06868481518110612fff57612fff6152b1565b6020026020010151868581518110613019576130196152b1565b6020026020010151604051613038929190918252602082015260400190565b60405180910390a361334a565b6004848281518110613059576130596152b1565b60200260200101511161310757600183828151811061307a5761307a6152b1565b6020026020010151613098878785815181106111ee576111ee6152b1565b6130a291906151d5565b11156130c05760405162461bcd60e51b815260040161094690614e6b565b846001600160a01b0316866001600160a01b03167f9ee02141e53f94da9d53ecdc053896751d8482788078a5a339cc9654d67d9bc4868481518110612fff57612fff6152b1565b600984828151811061311b5761311b6152b1565b60200260200101511161316c576006546001600160a01b031633148061315057503360009081526012602052604090205460ff165b6130c05760405162461bcd60e51b815260040161094690614cd5565b600b848281518110613180576131806152b1565b6020026020010151116131c5576001600160a01b03851660009081526011602052604090205460ff16612f5e5760405162461bcd60e51b815260040161094690614de6565b600e8482815181106131d9576131d96152b1565b602002602001015111613232576001600160a01b03851660009081526011602052604090205460ff1661321e5760405162461bcd60e51b815260040161094690614de6565b6002838281518110612f7257612f726152b1565b6010848281518110613246576132466152b1565b60200260200101511161326757600183828151811061307a5761307a6152b1565b600283828151811061327b5761327b6152b1565b6020026020010151613299878785815181106111ee576111ee6152b1565b6132a391906151d5565b11156132c15760405162461bcd60e51b815260040161094690614e6b565b846001600160a01b0316866001600160a01b03167fae4f547fa32bbfb0aacef985ccda1764fe4c357ccd59f52d389308624e764f06868481518110613308576133086152b1565b6020026020010151868581518110613322576133226152b1565b6020026020010151604051613341929190918252602082015260400190565b60405180910390a35b8061335481615280565b915050612efc565b6001600160a01b0384163b1561190a5760405163f23a6e6160e01b81526001600160a01b0385169063f23a6e61906133a09089908990889088908890600401614a6a565b602060405180830381600087803b1580156133ba57600080fd5b505af19250505080156133ea575060408051601f3d908101601f191682019092526133e791810190614133565b60015b613497576133f66152dd565b806308c379a01415613430575061340b6152f9565b806134165750613432565b8060405162461bcd60e51b81526004016109469190614b66565b505b60405162461bcd60e51b815260206004820152603460248201527f455243313135353a207472616e7366657220746f206e6f6e20455243313135356044820152732932b1b2b4bb32b91034b6b83632b6b2b73a32b960611b6064820152608401610946565b6001600160e01b0319811663f23a6e6160e01b1461100c5760405162461bcd60e51b815260040161094690614bb2565b6001600160a01b0384163b1561190a5760405163bc197c8160e01b81526001600160a01b0385169063bc197c819061350b9089908990889088908890600401614a0c565b602060405180830381600087803b15801561352557600080fd5b505af1925050508015613555575060408051601f3d908101601f1916820190925261355291810190614133565b60015b613561576133f66152dd565b6001600160e01b0319811663bc197c8160e01b1461100c5760405162461bcd60e51b815260040161094690614bb2565b610b7d8583836136ff565b61ffff8516600090815260016020526040902080546135ba90615219565b151590506136255760405162461bcd60e51b815260206004820152603260248201527f4c7a53656e643a2064657374696e6174696f6e20636861696e206973206e6f746044820152711030903a393ab9ba32b21039b7bab931b29760711b6064820152608401610946565b61ffff851660009081526001602052604090819020905162c5803160e81b81526001600160a01b037f0000000000000000000000000000000000000000000000000000000000000000169163c580310091349161368f918a91908a908a908a908a9060040161508a565b6000604051808303818588803b158015611b4457600080fd5b610b7d858383613870565b61095b83838360405180604001604052806002815260200161060f60f31b815250612213565b61095b83838360405180604001604052806002815260200161060f60f31b815250612bb1565b6001600160a01b0383166137255760405162461bcd60e51b815260040161094690614d24565b80518251146137465760405162461bcd60e51b815260040161094690614eb4565b600033905061376981856000868660405180602001604052806000815250612e4b565b60005b8351811015613831576000848281518110613789576137896152b1565b6020026020010151905060008483815181106137a7576137a76152b1565b60209081029190910181015160008481526003835260408082206001600160a01b038c1683529093529190912054909150818110156137f85760405162461bcd60e51b815260040161094690614bfa565b60009283526003602090815260408085206001600160a01b038b168652909152909220910390558061382981615280565b91505061376c565b5060006001600160a01b0316846001600160a01b0316826001600160a01b03166000805160206153d38339815191528686604051610df2929190614b02565b6001600160a01b0383166138965760405162461bcd60e51b815260040161094690614d24565b336138c5818560006138a787612e00565b6138b087612e00565b60405180602001604052806000815250612e4b565b60008381526003602090815260408083206001600160a01b0388168452909152902054828110156139085760405162461bcd60e51b815260040161094690614bfa565b60008481526003602090815260408083206001600160a01b03898116808652918452828520888703905582518981529384018890529092908616916000805160206153f3833981519152910160405180910390a45050505050565b82805461396f90615219565b90600052602060002090601f01602090048101928261399157600085556139d7565b82601f106139aa5782800160ff198235161785556139d7565b828001600101855582156139d7579182015b828111156139d75782358255916020019190600101906139bc565b506139e3929150613a5b565b5090565b8280546139f390615219565b90600052602060002090601f016020900481019282613a1557600085556139d7565b82601f10613a2e57805160ff19168380011785556139d7565b828001600101855582156139d7579182015b828111156139d7578251825591602001919060010190613a40565b5b808211156139e35760008155600101613a5c565b6000613a7b836151ae565b604051613a888282615254565b809250848152858585011115613a9d57600080fd5b8484602083013760006020868301015250509392505050565b8035613ac181615382565b919050565b600082601f830112613ad757600080fd5b81356020613ae48261518b565b604051613af18282615254565b8381528281019150858301600585901b87018401881015613b1157600080fd5b60005b85811015613b3057813584529284019290840190600101613b14565b5090979650505050505050565b600082601f830112613b4e57600080fd5b81516020613b5b8261518b565b604051613b688282615254565b8381528281019150858301600585901b87018401881015613b8857600080fd5b60005b85811015613b3057815184529284019290840190600101613b8b565b80358015158114613ac157600080fd5b60008083601f840112613bc957600080fd5b5081356001600160401b03811115613be057600080fd5b602083019150836020828501011115613bf857600080fd5b9250929050565b600082601f830112613c1057600080fd5b613c1f83833560208501613a70565b9392505050565b600082601f830112613c3757600080fd5b8151613c42816151ae565b604051613c4f8282615254565b828152856020848701011115613c6457600080fd5b6121198360208301602088016151ed565b8035613ac1816153ad565b600060208284031215613c9257600080fd5b8135613c1f81615382565b60008060408385031215613cb057600080fd5b8235613cbb81615382565b91506020830135613ccb81615382565b809150509250929050565b600080600080600060a08688031215613cee57600080fd5b8535613cf981615382565b94506020860135613d0981615382565b935060408601356001600160401b0380821115613d2557600080fd5b613d3189838a01613ac6565b94506060880135915080821115613d4757600080fd5b613d5389838a01613ac6565b93506080880135915080821115613d6957600080fd5b50613d7688828901613bff565b9150509295509295909350565b600080600080600060a08688031215613d9b57600080fd5b8535613da681615382565b94506020860135613db681615382565b9350604086013592506060860135915060808601356001600160401b03811115613ddf57600080fd5b613d7688828901613bff565b60008060408385031215613dfe57600080fd5b8235613e0981615382565b9150613e1760208401613ba7565b90509250929050565b6000806000806000806000806000806101008b8d031215613e4057600080fd5b613e498b613ab6565b9950613e5760208c01613c75565b985060408b01356001600160401b0380821115613e7357600080fd5b613e7f8e838f01613bb7565b909a50985060608d0135915080821115613e9857600080fd5b613ea48e838f01613ac6565b975060808d0135915080821115613eba57600080fd5b613ec68e838f01613ac6565b9650613ed460a08e01613ab6565b9550613ee260c08e01613ab6565b945060e08d0135915080821115613ef857600080fd5b50613f058d828e01613bb7565b915080935050809150509295989b9194979a5092959850565b6000806000806000806000806000806101008b8d031215613f3e57600080fd5b8a35613f4981615382565b995060208b0135613f59816153ad565b985060408b01356001600160401b0380821115613f7557600080fd5b613f818e838f01613bb7565b909a50985060608d0135975060808d0135965060a08d01359150613fa482615382565b90945060c08c013590613fb682615382565b90935060e08c01359080821115613ef857600080fd5b60008060408385031215613fdf57600080fd5b8235613fea81615382565b946020939093013593505050565b6000806040838503121561400b57600080fd5b82356001600160401b038082111561402257600080fd5b818501915085601f83011261403657600080fd5b813560206140438261518b565b6040516140508282615254565b8381528281019150858301600585901b870184018b101561407057600080fd5b600096505b8487101561409c57803561408881615382565b835260019690960195918301918301614075565b50965050860135925050808211156140b357600080fd5b506140c085828601613ac6565b9150509250929050565b600080604083850312156140dd57600080fd5b82356001600160401b03808211156140f457600080fd5b61410086838701613ac6565b935060208501359150808211156140b357600080fd5b60006020828403121561412857600080fd5b8135613c1f81615397565b60006020828403121561414557600080fd5b8151613c1f81615397565b60006020828403121561416257600080fd5b81516001600160401b0381111561417857600080fd5b61418484828501613c26565b949350505050565b6000806000606084860312156141a157600080fd5b83516001600160401b03808211156141b857600080fd5b6141c487838801613c26565b945060208601519150808211156141da57600080fd5b6141e687838801613b3d565b935060408601519150808211156141fc57600080fd5b5061420986828701613b3d565b9150509250925092565b60006020828403121561422557600080fd5b81356001600160401b0381111561423b57600080fd5b8201601f8101841361424c57600080fd5b61418484823560208401613a70565b60006020828403121561426d57600080fd5b8135613c1f816153ad565b60006020828403121561428a57600080fd5b8151613c1f816153ad565b6000806000604084860312156142aa57600080fd5b83356142b5816153ad565b925060208401356001600160401b038111156142d057600080fd5b6142dc86828701613bb7565b9497909650939450505050565b600080600080600080600080600060e08a8c03121561430757600080fd5b6143108a613c75565b985060208a01356001600160401b038082111561432c57600080fd5b6143388d838e01613bb7565b909a50985060408c013591508082111561435157600080fd5b61435d8d838e01613ac6565b975060608c013591508082111561437357600080fd5b61437f8d838e01613ac6565b965061438d60808d01613ab6565b955061439b60a08d01613ab6565b945060c08c01359150808211156143b157600080fd5b506143be8c828d01613bb7565b915080935050809150509295985092959850929598565b60008060008060008060008060c0898b0312156143f157600080fd5b6143fa89613c75565b975060208901356001600160401b038082111561441657600080fd5b6144228c838d01613bb7565b909950975060408b013591508082111561443b57600080fd5b6144478c838d01613ac6565b965060608b013591508082111561445d57600080fd5b6144698c838d01613ac6565b955061447760808c01613ba7565b945060a08b013591508082111561448d57600080fd5b5061449a8b828c01613bb7565b999c989b5096995094979396929594505050565b600080600080600080600080600060e08a8c0312156144cc57600080fd5b89356144d7816153ad565b985060208a01356001600160401b03808211156144f357600080fd5b6144ff8d838e01613bb7565b909a50985060408c0135975060608c0135965060808c0135915061452282615382565b90945060a08b01359061453482615382565b90935060c08b013590808211156143b157600080fd5b60008060008060008060008060c0898b03121561456657600080fd5b8835614571816153ad565b975060208901356001600160401b038082111561458d57600080fd5b6145998c838d01613bb7565b909950975060408b0135965060608b0135955087915061447760808c01613ba7565b6000806000606084860312156145d057600080fd5b83356145db816153ad565b925060208401356001600160401b038111156145f657600080fd5b61460286828701613bff565b925050604084013590509250925092565b60008060008060006080868803121561462b57600080fd5b8535614636816153ad565b945060208601356001600160401b038082111561465257600080fd5b61465e89838a01613bff565b955060408801359150614670826153bd565b9093506060870135908082111561468657600080fd5b5061469388828901613bb7565b969995985093965092949392505050565b600080600080608085870312156146ba57600080fd5b84356146c5816153ad565b935060208501356001600160401b03808211156146e157600080fd5b6146ed88838901613bff565b9450604087013591506146ff826153bd565b9092506060860135908082111561471557600080fd5b5061472287828801613bff565b91505092959194509250565b6000806000806080858703121561474457600080fd5b843561474f816153ad565b9350602085013561475f816153ad565b9250604085013561476f81615382565b9396929550929360600135925050565b60008060008060006080868803121561479757600080fd5b85356147a2816153ad565b945060208601356147b2816153ad565b93506040860135925060608601356001600160401b038111156147d457600080fd5b61469388828901613bb7565b6000602082840312156147f257600080fd5b5035919050565b6000806040838503121561480c57600080fd5b50508035926020909101359150565b6000806040838503121561482e57600080fd5b505080516020909101519092909150565b6000806000806000806080878903121561485857600080fd5b863595506020870135945060408701356001600160401b038082111561487d57600080fd5b6148898a838b01613bb7565b909650945060608901359150808211156148a257600080fd5b506148af89828a01613bb7565b979a9699509497509295939492505050565b6000602082840312156148d357600080fd5b8151613c1f816153bd565b600081518084526020808501945080840160005b8381101561490e578151875295820195908201906001016148f2565b509495945050505050565b81835281816020850137506000828201602090810191909152601f909101601f19169091010190565b6000815180845261495a8160208601602086016151ed565b601f01601f19169290920160200192915050565b8183823760009101908152919050565b600082516149908184602087016151ed565b9190910192915050565b60008083546149a881615219565b600182811680156149c057600181146149d157614a00565b60ff19841687528287019450614a00565b8760005260208060002060005b858110156149f75781548a8201529084019082016149de565b50505082870194505b50929695505050505050565b6001600160a01b0386811682528516602082015260a060408201819052600090614a38908301866148de565b8281036060840152614a4a81866148de565b90508281036080840152614a5e8185614942565b98975050505050505050565b6001600160a01b03868116825285166020820152604081018490526060810183905260a060808201819052600090614aa490830184614942565b979650505050505050565b6001600160a01b0384168152606060208201819052600090614ad3908301856148de565b8281036040840152614ae581856148de565b9695505050505050565b602081526000613c1f60208301846148de565b604081526000614b1560408301856148de565b828103602084015261211981856148de565b606081526000614b3a60608301866148de565b8281036020840152614b4c81866148de565b9150506001600160401b0383166040830152949350505050565b602081526000613c1f6020830184614942565b606081526000614b8c6060830186614942565b8281036020840152614b9e81866148de565b90508281036040840152614ae581856148de565b60208082526028908201527f455243313135353a204552433131353552656365697665722072656a656374656040820152676420746f6b656e7360c01b606082015260800190565b60208082526024908201527f455243313135353a206275726e20616d6f756e7420657863656564732062616c604082015263616e636560e01b606082015260800190565b60208082526025908201527f455243313135353a207472616e7366657220746f20746865207a65726f206164604082015264647265737360d81b606082015260800190565b60208082526032908201527f455243313135353a207472616e736665722063616c6c6572206973206e6f74206040820152711bdddb995c881b9bdc88185c1c1c9bdd995960721b606082015260800190565b6020808252602f908201527f54686973206973206e6f7420616c6c6f7765642065786365707420666f72206360408201526e1c99585d1bdc881bdc881859d95b9d608a1b606082015260800190565b60208082526023908201527f455243313135353a206275726e2066726f6d20746865207a65726f206164647260408201526265737360e81b606082015260800190565b6020808252602a908201527f455243313135353a20696e73756666696369656e742062616c616e636520666f60408201526939103a3930b739b332b960b11b606082015260800190565b6020808252818101527f4f776e61626c653a2063616c6c6572206973206e6f7420746865206f776e6572604082015260600190565b60208082526021908201527f546869732061646472657373206973206e6f742061757468656e7469636174656040820152601960fa1b606082015260800190565b60208082526024908201527f746f6b656e4964206973206e6f7420616c6c6f776564206f6e207468697320636040820152633430b4b760e11b606082015260800190565b60208082526029908201527f43616e2774206275792073616d6520736f6e6773206d6f7265207468616e20746040820152681ddbc81c9958dbdc9960ba1b606082015260800190565b60208082526028908201527f455243313135353a2069647320616e6420616d6f756e7473206c656e677468206040820152670dad2e6dac2e8c6d60c31b606082015260800190565b60208082526021908201527f455243313135353a206d696e7420746f20746865207a65726f206164647265736040820152607360f81b606082015260800190565b61ffff861681526001600160a01b038516602082015260a060408201819052600090614f6b908301866148de565b8281036060840152614f7d81866148de565b9150506001600160401b03831660808301529695505050505050565b61ffff871681526001600160a01b038616602082015260a060408201819052600090614fc790830187614942565b85151560608401528281036080840152614fe2818587614919565b9998505050505050505050565b61ffff84168152604060208201526000612119604083018486614919565b61ffff8616815260806020820152600061502a6080830187614942565b6001600160401b03861660408401528281036060840152614a5e818587614919565b61ffff851681526080602082015260006150696080830186614942565b6001600160401b03851660408401528281036060840152614aa48185614942565b61ffff871681526000602060c081840152600088546150a881615219565b8060c087015260e06001808416600081146150ca57600181146150df5761510d565b60ff198516898401526101008901955061510d565b8d6000528660002060005b858110156151055781548b82018601529083019088016150ea565b8a0184019650505b505050505083810360408501526151248189614942565b91505061513c60608401876001600160a01b03169052565b6001600160a01b038516608084015282810360a0840152614fe28185614942565b600061ffff808816835280871660208401525084604083015260806060830152614aa4608083018486614919565b60006001600160401b038211156151a4576151a46152c7565b5060051b60200190565b60006001600160401b038211156151c7576151c76152c7565b50601f01601f191660200190565b600082198211156151e8576151e861529b565b500190565b60005b838110156152085781810151838201526020016151f0565b8381111561095b5750506000910152565b600181811c9082168061522d57607f821691505b6020821081141561524e57634e487b7160e01b600052602260045260246000fd5b50919050565b601f8201601f191681016001600160401b0381118282101715615279576152796152c7565b6040525050565b60006000198214156152945761529461529b565b5060010190565b634e487b7160e01b600052601160045260246000fd5b634e487b7160e01b600052603260045260246000fd5b634e487b7160e01b600052604160045260246000fd5b600060033d11156152f65760046000803e5060005160e01c5b90565b600060443d10156153075790565b6040516003193d81016004833e81513d6001600160401b03816024840111818411171561533657505050505090565b828501915081518181111561534e5750505050505090565b843d87010160208285010111156153685750505050505090565b61537760208286010187615254565b509095945050505050565b6001600160a01b038116811461166357600080fd5b6001600160e01b03198116811461166357600080fd5b61ffff8116811461166357600080fd5b6001600160401b038116811461166357600080fdfe4a39dc06d4c0dbc64b70af90fd698a233a518aa5d07e595d983b8c0526c8f7fbc3d58168c5ae7397731d063d5bbf3d657854427343f4c083240f7aacaa2d0f62a26469706673582212209146de23ac73d265ebc9eea93b70cdb36bda1e48c583b48543d09a25d48242df64736f6c63430008070033697066733a2f2f516d5a557a5a38384858385553426b6147436f7778567a61736669345374734571733554757857595763695537782f6d657461646174612f7b69647d2e6a736f6e",
  "linkReferences": {},
  "deployedLinkReferences": {}
}