{
  "_format": "hh-sol-artifact-1",
  "contractName": "MusicNFT",
  "sourceName": "contracts/MusicNFT.sol",
  "abi": [
    {
      "inputs": [],
      "stateMutability": "nonpayable",
      "type": "constructor"
    },
    {
      "anonymous": false,
      "inputs": [
        {
          "indexed": true,
          "internalType": "address",
          "name": "owner",
          "type": "address"
        },
        {
          "indexed": true,
          "internalType": "address",
          "name": "approved",
          "type": "address"
        },
        {
          "indexed": true,
          "internalType": "uint256",
          "name": "tokenId",
          "type": "uint256"
        }
      ],
      "name": "Approval",
      "type": "event"
    },
    {
      "anonymous": false,
      "inputs": [
        {
          "indexed": true,
          "internalType": "address",
          "name": "owner",
          "type": "address"
        },
        {
          "indexed": true,
          "internalType": "address",
          "name": "operator",
          "type": "address"
        },
        {
          "indexed": false,
          "internalType": "bool",
          "name": "approved",
          "type": "bool"
        }
      ],
      "name": "ApprovalForAll",
      "type": "event"
    },
    {
      "anonymous": false,
      "inputs": [
        {
          "indexed": true,
          "internalType": "address",
          "name": "previousOwner",
          "type": "address"
        },
        {
          "indexed": true,
          "internalType": "address",
          "name": "newOwner",
          "type": "address"
        }
      ],
      "name": "OwnershipTransferred",
      "type": "event"
    },
    {
      "anonymous": false,
      "inputs": [
        {
          "indexed": true,
          "internalType": "address",
          "name": "from",
          "type": "address"
        },
        {
          "indexed": true,
          "internalType": "address",
          "name": "to",
          "type": "address"
        },
        {
          "indexed": true,
          "internalType": "uint256",
          "name": "tokenId",
          "type": "uint256"
        }
      ],
      "name": "Transfer",
      "type": "event"
    },
    {
      "inputs": [
        {
          "internalType": "address",
          "name": "to",
          "type": "address"
        },
        {
          "internalType": "uint256",
          "name": "tokenId",
          "type": "uint256"
        }
      ],
      "name": "approve",
      "outputs": [],
      "stateMutability": "nonpayable",
      "type": "function"
    },
    {
      "inputs": [
        {
          "internalType": "address",
          "name": "owner",
          "type": "address"
        }
      ],
      "name": "balanceOf",
      "outputs": [
        {
          "internalType": "uint256",
          "name": "",
          "type": "uint256"
        }
      ],
      "stateMutability": "view",
      "type": "function"
    },
    {
      "inputs": [
        {
          "internalType": "uint256",
          "name": "tokenId",
          "type": "uint256"
        }
      ],
      "name": "getApproved",
      "outputs": [
        {
          "internalType": "address",
          "name": "",
          "type": "address"
        }
      ],
      "stateMutability": "view",
      "type": "function"
    },
    {
      "inputs": [
        {
          "internalType": "address",
          "name": "owner",
          "type": "address"
        },
        {
          "internalType": "address",
          "name": "operator",
          "type": "address"
        }
      ],
      "name": "isApprovedForAll",
      "outputs": [
        {
          "internalType": "bool",
          "name": "",
          "type": "bool"
        }
      ],
      "stateMutability": "view",
      "type": "function"
    },
    {
      "inputs": [
        {
          "internalType": "string",
          "name": "_tokenURI",
          "type": "string"
        }
      ],
      "name": "mint",
      "outputs": [],
      "stateMutability": "nonpayable",
      "type": "function"
    },
    {
      "inputs": [],
      "name": "name",
      "outputs": [
        {
          "internalType": "string",
          "name": "",
          "type": "string"
        }
      ],
      "stateMutability": "view",
      "type": "function"
    },
    {
      "inputs": [],
      "name": "owner",
      "outputs": [
        {
          "internalType": "address",
          "name": "",
          "type": "address"
        }
      ],
      "stateMutability": "view",
      "type": "function"
    },
    {
      "inputs": [
        {
          "internalType": "uint256",
          "name": "tokenId",
          "type": "uint256"
        }
      ],
      "name": "ownerOf",
      "outputs": [
        {
          "internalType": "address",
          "name": "",
          "type": "address"
        }
      ],
      "stateMutability": "view",
      "type": "function"
    },
    {
      "inputs": [],
      "name": "renounceOwnership",
      "outputs": [],
      "stateMutability": "nonpayable",
      "type": "function"
    },
    {
      "inputs": [
        {
          "internalType": "address",
          "name": "from",
          "type": "address"
        },
        {
          "internalType": "address",
          "name": "to",
          "type": "address"
        },
        {
          "internalType": "uint256",
          "name": "tokenId",
          "type": "uint256"
        }
      ],
      "name": "safeTransferFrom",
      "outputs": [],
      "stateMutability": "nonpayable",
      "type": "function"
    },
    {
      "inputs": [
        {
          "internalType": "address",
          "name": "from",
          "type": "address"
        },
        {
          "internalType": "address",
          "name": "to",
          "type": "address"
        },
        {
          "internalType": "uint256",
          "name": "tokenId",
          "type": "uint256"
        },
        {
          "internalType": "bytes",
          "name": "_data",
          "type": "bytes"
        }
      ],
      "name": "safeTransferFrom",
      "outputs": [],
      "stateMutability": "nonpayable",
      "type": "function"
    },
    {
      "inputs": [
        {
          "internalType": "address",
          "name": "operator",
          "type": "address"
        },
        {
          "internalType": "bool",
          "name": "approved",
          "type": "bool"
        }
      ],
      "name": "setApprovalForAll",
      "outputs": [],
      "stateMutability": "nonpayable",
      "type": "function"
    },
    {
      "inputs": [
        {
          "internalType": "bytes4",
          "name": "interfaceId",
          "type": "bytes4"
        }
      ],
      "name": "supportsInterface",
      "outputs": [
        {
          "internalType": "bool",
          "name": "",
          "type": "bool"
        }
      ],
      "stateMutability": "view",
      "type": "function"
    },
    {
      "inputs": [],
      "name": "symbol",
      "outputs": [
        {
          "internalType": "string",
          "name": "",
          "type": "string"
        }
      ],
      "stateMutability": "view",
      "type": "function"
    },
    {
      "inputs": [
        {
          "internalType": "uint256",
          "name": "tokenId",
          "type": "uint256"
        }
      ],
      "name": "tokenURI",
      "outputs": [
        {
          "internalType": "string",
          "name": "",
          "type": "string"
        }
      ],
      "stateMutability": "view",
      "type": "function"
    },
    {
      "inputs": [
        {
          "internalType": "address",
          "name": "_to",
          "type": "address"
        },
        {
          "internalType": "uint256",
          "name": "_itemId",
          "type": "uint256"
        }
      ],
      "name": "transfer",
      "outputs": [],
      "stateMutability": "nonpayable",
      "type": "function"
    },
    {
      "inputs": [
        {
          "internalType": "address",
          "name": "from",
          "type": "address"
        },
        {
          "internalType": "address",
          "name": "to",
          "type": "address"
        },
        {
          "internalType": "uint256",
          "name": "tokenId",
          "type": "uint256"
        }
      ],
      "name": "transferFrom",
      "outputs": [],
      "stateMutability": "nonpayable",
      "type": "function"
    },
    {
      "inputs": [
        {
          "internalType": "address",
          "name": "newOwner",
          "type": "address"
        }
      ],
      "name": "transferOwnership",
      "outputs": [],
      "stateMutability": "nonpayable",
      "type": "function"
    }
  ],
  "bytecode": "0x60806040523480156200001157600080fd5b506040805180820182526008815267135d5cda58d3919560c21b6020808301918252835180850190945260058452644d7573696360d81b9084015281519192916200005f91600091620000ee565b50805162000075906001906020840190620000ee565b505050620000926200008c6200009860201b60201c565b6200009c565b620001d1565b3390565b600780546001600160a01b038381166001600160a01b0319831681179093556040519116919082907f8be0079c531659141344cd1fd0a4f28419497f9722a3daafe3b4186f6b6457e090600090a35050565b828054620000fc9062000194565b90600052602060002090601f0160209004810192826200012057600085556200016b565b82601f106200013b57805160ff19168380011785556200016b565b828001600101855582156200016b579182015b828111156200016b5782518255916020019190600101906200014e565b50620001799291506200017d565b5090565b5b808211156200017957600081556001016200017e565b600181811c90821680620001a957607f821691505b60208210811415620001cb57634e487b7160e01b600052602260045260246000fd5b50919050565b61194080620001e16000396000f3fe608060405234801561001057600080fd5b50600436106101165760003560e01c80638da5cb5b116100a2578063b88d4fde11610071578063b88d4fde14610239578063c87b56dd1461024c578063d85d3d271461025f578063e985e9c514610272578063f2fde38b146102ae57600080fd5b80638da5cb5b146101fa57806395d89b411461020b578063a22cb46514610213578063a9059cbb1461022657600080fd5b806323b872dd116100e957806323b872dd1461019857806342842e0e146101ab5780636352211e146101be57806370a08231146101d1578063715018a6146101f257600080fd5b806301ffc9a71461011b57806306fdde0314610143578063081812fc14610158578063095ea7b314610183575b600080fd5b61012e6101293660046115a4565b6102c1565b60405190151581526020015b60405180910390f35b61014b610313565b60405161013a91906116d8565b61016b610166366004611627565b6103a5565b6040516001600160a01b03909116815260200161013a565b61019661019136600461157a565b610432565b005b6101966101a6366004611486565b610548565b6101966101b9366004611486565b610579565b61016b6101cc366004611627565b610594565b6101e46101df366004611438565b61060b565b60405190815260200161013a565b610196610692565b6007546001600160a01b031661016b565b61014b6106c8565b61019661022136600461153e565b6106d7565b61019661023436600461157a565b6106e6565b6101966102473660046114c2565b61071b565b61014b61025a366004611627565b610753565b61019661026d3660046115de565b6108ca565b61012e610280366004611453565b6001600160a01b03918216600090815260056020908152604080832093909416825291909152205460ff1690565b6101966102bc366004611438565b610923565b60006001600160e01b031982166380ac58cd60e01b14806102f257506001600160e01b03198216635b5e139f60e01b145b8061030d57506301ffc9a760e01b6001600160e01b03198316145b92915050565b60606000805461032290611832565b80601f016020809104026020016040519081016040528092919081815260200182805461034e90611832565b801561039b5780601f106103705761010080835404028352916020019161039b565b820191906000526020600020905b81548152906001019060200180831161037e57829003601f168201915b5050505050905090565b60006103b0826109be565b6104165760405162461bcd60e51b815260206004820152602c60248201527f4552433732313a20617070726f76656420717565727920666f72206e6f6e657860448201526b34b9ba32b73a103a37b5b2b760a11b60648201526084015b60405180910390fd5b506000908152600460205260409020546001600160a01b031690565b600061043d82610594565b9050806001600160a01b0316836001600160a01b031614156104ab5760405162461bcd60e51b815260206004820152602160248201527f4552433732313a20617070726f76616c20746f2063757272656e74206f776e656044820152603960f91b606482015260840161040d565b336001600160a01b03821614806104c757506104c78133610280565b6105395760405162461bcd60e51b815260206004820152603860248201527f4552433732313a20617070726f76652063616c6c6572206973206e6f74206f7760448201527f6e6572206e6f7220617070726f76656420666f7220616c6c0000000000000000606482015260840161040d565b61054383836109db565b505050565b6105523382610a49565b61056e5760405162461bcd60e51b815260040161040d90611772565b610543838383610b2f565b6105438383836040518060200160405280600081525061071b565b6000818152600260205260408120546001600160a01b03168061030d5760405162461bcd60e51b815260206004820152602960248201527f4552433732313a206f776e657220717565727920666f72206e6f6e657869737460448201526832b73a103a37b5b2b760b91b606482015260840161040d565b60006001600160a01b0382166106765760405162461bcd60e51b815260206004820152602a60248201527f4552433732313a2062616c616e636520717565727920666f7220746865207a65604482015269726f206164647265737360b01b606482015260840161040d565b506001600160a01b031660009081526003602052604090205490565b6007546001600160a01b031633146106bc5760405162461bcd60e51b815260040161040d9061173d565b6106c66000610ccb565b565b60606001805461032290611832565b6106e2338383610d1d565b5050565b6007546001600160a01b031633146107105760405162461bcd60e51b815260040161040d9061173d565b6106e2338383610579565b6107253383610a49565b6107415760405162461bcd60e51b815260040161040d90611772565b61074d84848484610dec565b50505050565b606061075e826109be565b6107c45760405162461bcd60e51b815260206004820152603160248201527f45524337323155524953746f726167653a2055524920717565727920666f72206044820152703737b732bc34b9ba32b73a103a37b5b2b760791b606482015260840161040d565b600082815260066020526040812080546107dd90611832565b80601f016020809104026020016040519081016040528092919081815260200182805461080990611832565b80156108565780601f1061082b57610100808354040283529160200191610856565b820191906000526020600020905b81548152906001019060200180831161083957829003601f168201915b50505050509050600061087460408051602081019091526000815290565b9050805160001415610887575092915050565b8151156108b95780826040516020016108a192919061166c565b60405160208183030381529060405292505050919050565b6108c284610e1f565b949350505050565b6007546001600160a01b031633146108f45760405162461bcd60e51b815260040161040d9061173d565b610902600880546001019055565b600061090d60085490565b90506109193382610ef7565b6106e28183610f11565b6007546001600160a01b0316331461094d5760405162461bcd60e51b815260040161040d9061173d565b6001600160a01b0381166109b25760405162461bcd60e51b815260206004820152602660248201527f4f776e61626c653a206e6577206f776e657220697320746865207a65726f206160448201526564647265737360d01b606482015260840161040d565b6109bb81610ccb565b50565b6000908152600260205260409020546001600160a01b0316151590565b600081815260046020526040902080546001600160a01b0319166001600160a01b0384169081179091558190610a1082610594565b6001600160a01b03167f8c5be1e5ebec7d5bd14f71427d1e84f3dd0314c0f7b2291e5b200ac8c7c3b92560405160405180910390a45050565b6000610a54826109be565b610ab55760405162461bcd60e51b815260206004820152602c60248201527f4552433732313a206f70657261746f7220717565727920666f72206e6f6e657860448201526b34b9ba32b73a103a37b5b2b760a11b606482015260840161040d565b6000610ac083610594565b9050806001600160a01b0316846001600160a01b03161480610afb5750836001600160a01b0316610af0846103a5565b6001600160a01b0316145b806108c257506001600160a01b0380821660009081526005602090815260408083209388168352929052205460ff166108c2565b826001600160a01b0316610b4282610594565b6001600160a01b031614610ba65760405162461bcd60e51b815260206004820152602560248201527f4552433732313a207472616e736665722066726f6d20696e636f72726563742060448201526437bbb732b960d91b606482015260840161040d565b6001600160a01b038216610c085760405162461bcd60e51b8152602060048201526024808201527f4552433732313a207472616e7366657220746f20746865207a65726f206164646044820152637265737360e01b606482015260840161040d565b610c136000826109db565b6001600160a01b0383166000908152600360205260408120805460019290610c3c9084906117ef565b90915550506001600160a01b0382166000908152600360205260408120805460019290610c6a9084906117c3565b909155505060008181526002602052604080822080546001600160a01b0319166001600160a01b0386811691821790925591518493918716917fddf252ad1be2c89b69c2b068fc378daa952ba7f163c4a11628f55a4df523b3ef91a4505050565b600780546001600160a01b038381166001600160a01b0319831681179093556040519116919082907f8be0079c531659141344cd1fd0a4f28419497f9722a3daafe3b4186f6b6457e090600090a35050565b816001600160a01b0316836001600160a01b03161415610d7f5760405162461bcd60e51b815260206004820152601960248201527f4552433732313a20617070726f766520746f2063616c6c657200000000000000604482015260640161040d565b6001600160a01b03838116600081815260056020908152604080832094871680845294825291829020805460ff191686151590811790915591519182527f17307eab39ab6107e8899845ad3d59bd9653f200f220920489ca2b5937696c31910160405180910390a3505050565b610df7848484610b2f565b610e0384848484610f9c565b61074d5760405162461bcd60e51b815260040161040d906116eb565b6060610e2a826109be565b610e8e5760405162461bcd60e51b815260206004820152602f60248201527f4552433732314d657461646174613a2055524920717565727920666f72206e6f60448201526e3732bc34b9ba32b73a103a37b5b2b760891b606482015260840161040d565b6000610ea560408051602081019091526000815290565b90506000815111610ec55760405180602001604052806000815250610ef0565b80610ecf846110a9565b604051602001610ee092919061166c565b6040516020818303038152906040525b9392505050565b6106e28282604051806020016040528060008152506111a7565b610f1a826109be565b610f7d5760405162461bcd60e51b815260206004820152602e60248201527f45524337323155524953746f726167653a2055524920736574206f66206e6f6e60448201526d32bc34b9ba32b73a103a37b5b2b760911b606482015260840161040d565b600082815260066020908152604090912082516105439284019061130d565b60006001600160a01b0384163b1561109e57604051630a85bd0160e11b81526001600160a01b0385169063150b7a0290610fe090339089908890889060040161169b565b602060405180830381600087803b158015610ffa57600080fd5b505af192505050801561102a575060408051601f3d908101601f19168201909252611027918101906115c1565b60015b611084573d808015611058576040519150601f19603f3d011682016040523d82523d6000602084013e61105d565b606091505b50805161107c5760405162461bcd60e51b815260040161040d906116eb565b805181602001fd5b6001600160e01b031916630a85bd0160e11b1490506108c2565b506001949350505050565b6060816110cd5750506040805180820190915260018152600360fc1b602082015290565b8160005b81156110f757806110e18161186d565b91506110f09050600a836117db565b91506110d1565b60008167ffffffffffffffff811115611112576111126118de565b6040519080825280601f01601f19166020018201604052801561113c576020820181803683370190505b5090505b84156108c2576111516001836117ef565b915061115e600a86611888565b6111699060306117c3565b60f81b81838151811061117e5761117e6118c8565b60200101906001600160f81b031916908160001a9053506111a0600a866117db565b9450611140565b6111b183836111da565b6111be6000848484610f9c565b6105435760405162461bcd60e51b815260040161040d906116eb565b6001600160a01b0382166112305760405162461bcd60e51b815260206004820181905260248201527f4552433732313a206d696e7420746f20746865207a65726f2061646472657373604482015260640161040d565b611239816109be565b156112865760405162461bcd60e51b815260206004820152601c60248201527f4552433732313a20746f6b656e20616c7265616479206d696e74656400000000604482015260640161040d565b6001600160a01b03821660009081526003602052604081208054600192906112af9084906117c3565b909155505060008181526002602052604080822080546001600160a01b0319166001600160a01b03861690811790915590518392907fddf252ad1be2c89b69c2b068fc378daa952ba7f163c4a11628f55a4df523b3ef908290a45050565b82805461131990611832565b90600052602060002090601f01602090048101928261133b5760008555611381565b82601f1061135457805160ff1916838001178555611381565b82800160010185558215611381579182015b82811115611381578251825591602001919060010190611366565b5061138d929150611391565b5090565b5b8082111561138d5760008155600101611392565b600067ffffffffffffffff808411156113c1576113c16118de565b604051601f8501601f19908116603f011681019082821181831017156113e9576113e96118de565b8160405280935085815286868601111561140257600080fd5b858560208301376000602087830101525050509392505050565b80356001600160a01b038116811461143357600080fd5b919050565b60006020828403121561144a57600080fd5b610ef08261141c565b6000806040838503121561146657600080fd5b61146f8361141c565b915061147d6020840161141c565b90509250929050565b60008060006060848603121561149b57600080fd5b6114a48461141c565b92506114b26020850161141c565b9150604084013590509250925092565b600080600080608085870312156114d857600080fd5b6114e18561141c565b93506114ef6020860161141c565b925060408501359150606085013567ffffffffffffffff81111561151257600080fd5b8501601f8101871361152357600080fd5b611532878235602084016113a6565b91505092959194509250565b6000806040838503121561155157600080fd5b61155a8361141c565b91506020830135801515811461156f57600080fd5b809150509250929050565b6000806040838503121561158d57600080fd5b6115968361141c565b946020939093013593505050565b6000602082840312156115b657600080fd5b8135610ef0816118f4565b6000602082840312156115d357600080fd5b8151610ef0816118f4565b6000602082840312156115f057600080fd5b813567ffffffffffffffff81111561160757600080fd5b8201601f8101841361161857600080fd5b6108c2848235602084016113a6565b60006020828403121561163957600080fd5b5035919050565b60008151808452611658816020860160208601611806565b601f01601f19169290920160200192915050565b6000835161167e818460208801611806565b835190830190611692818360208801611806565b01949350505050565b6001600160a01b03858116825284166020820152604081018390526080606082018190526000906116ce90830184611640565b9695505050505050565b602081526000610ef06020830184611640565b60208082526032908201527f4552433732313a207472616e7366657220746f206e6f6e20455243373231526560408201527131b2b4bb32b91034b6b83632b6b2b73a32b960711b606082015260800190565b6020808252818101527f4f776e61626c653a2063616c6c6572206973206e6f7420746865206f776e6572604082015260600190565b60208082526031908201527f4552433732313a207472616e736665722063616c6c6572206973206e6f74206f6040820152701ddb995c881b9bdc88185c1c1c9bdd9959607a1b606082015260800190565b600082198211156117d6576117d661189c565b500190565b6000826117ea576117ea6118b2565b500490565b6000828210156118015761180161189c565b500390565b60005b83811015611821578181015183820152602001611809565b8381111561074d5750506000910152565b600181811c9082168061184657607f821691505b6020821081141561186757634e487b7160e01b600052602260045260246000fd5b50919050565b60006000198214156118815761188161189c565b5060010190565b600082611897576118976118b2565b500690565b634e487b7160e01b600052601160045260246000fd5b634e487b7160e01b600052601260045260246000fd5b634e487b7160e01b600052603260045260246000fd5b634e487b7160e01b600052604160045260246000fd5b6001600160e01b0319811681146109bb57600080fdfea2646970667358221220dc472a19c17a9c5fd7193af9a0800687843c1da47f8859559e650d38e07a379a64736f6c63430008070033",
  "linkReferences": {},
  "deployedLinkReferences": {}
}