{
  "_format": "hh-sol-artifact-1",
  "contractName": "MusicNFT",
  "sourceName": "contracts/MusicNFT.sol",
  "abi": [
    {
      "inputs": [
        {
          "internalType": "address",
          "name": "_lzEndpoint",
          "type": "address"
        },
        {
          "internalType": "uint256",
          "name": "_minMintId",
          "type": "uint256"
        },
        {
          "internalType": "uint256",
          "name": "_maxMintId",
          "type": "uint256"
        }
      ],
      "stateMutability": "nonpayable",
      "type": "constructor"
    },
    {
      "anonymous": false,
      "inputs": [
        {
          "indexed": true,
          "internalType": "address",
          "name": "account",
          "type": "address"
        },
        {
          "indexed": true,
          "internalType": "address",
          "name": "operator",
          "type": "address"
        },
        {
          "indexed": false,
          "internalType": "bool",
          "name": "approved",
          "type": "bool"
        }
      ],
      "name": "ApprovalForAll",
      "type": "event"
    },
    {
      "anonymous": false,
      "inputs": [
        {
          "indexed": false,
          "internalType": "uint16",
          "name": "_srcChainId",
          "type": "uint16"
        },
        {
          "indexed": false,
          "internalType": "bytes",
          "name": "_srcAddress",
          "type": "bytes"
        },
        {
          "indexed": false,
          "internalType": "uint64",
          "name": "_nonce",
          "type": "uint64"
        },
        {
          "indexed": false,
          "internalType": "bytes",
          "name": "_payload",
          "type": "bytes"
        }
      ],
      "name": "MessageFailed",
      "type": "event"
    },
    {
      "anonymous": false,
      "inputs": [
        {
          "indexed": false,
          "internalType": "bool",
          "name": "_onsale",
          "type": "bool"
        }
      ],
      "name": "NowOnSale",
      "type": "event"
    },
    {
      "anonymous": false,
      "inputs": [
        {
          "indexed": true,
          "internalType": "address",
          "name": "previousOwner",
          "type": "address"
        },
        {
          "indexed": true,
          "internalType": "address",
          "name": "newOwner",
          "type": "address"
        }
      ],
      "name": "OwnershipTransferred",
      "type": "event"
    },
    {
      "anonymous": false,
      "inputs": [
        {
          "indexed": false,
          "internalType": "uint16",
          "name": "_srcChainId",
          "type": "uint16"
        },
        {
          "indexed": false,
          "internalType": "address",
          "name": "_toAddress",
          "type": "address"
        },
        {
          "indexed": false,
          "internalType": "uint256",
          "name": "_tokenId",
          "type": "uint256"
        },
        {
          "indexed": false,
          "internalType": "uint64",
          "name": "_nonce",
          "type": "uint64"
        }
      ],
      "name": "ReceiveFromChain",
      "type": "event"
    },
    {
      "anonymous": false,
      "inputs": [
        {
          "indexed": true,
          "internalType": "address",
          "name": "_sender",
          "type": "address"
        },
        {
          "indexed": true,
          "internalType": "uint16",
          "name": "_dstChainId",
          "type": "uint16"
        },
        {
          "indexed": true,
          "internalType": "bytes",
          "name": "_toAddress",
          "type": "bytes"
        },
        {
          "indexed": false,
          "internalType": "uint256",
          "name": "_tokenId",
          "type": "uint256"
        },
        {
          "indexed": false,
          "internalType": "uint64",
          "name": "_nonce",
          "type": "uint64"
        }
      ],
      "name": "SendToChain",
      "type": "event"
    },
    {
      "anonymous": false,
      "inputs": [
        {
          "indexed": false,
          "internalType": "uint16",
          "name": "_srcChainId",
          "type": "uint16"
        },
        {
          "indexed": false,
          "internalType": "bytes",
          "name": "_srcAddress",
          "type": "bytes"
        }
      ],
      "name": "SetTrustedRemote",
      "type": "event"
    },
    {
      "anonymous": false,
      "inputs": [
        {
          "indexed": true,
          "internalType": "address",
          "name": "_from",
          "type": "address"
        },
        {
          "indexed": true,
          "internalType": "address",
          "name": "_to",
          "type": "address"
        },
        {
          "indexed": false,
          "internalType": "uint256",
          "name": "_id",
          "type": "uint256"
        },
        {
          "indexed": false,
          "internalType": "uint256",
          "name": "_amount",
          "type": "uint256"
        }
      ],
      "name": "SoldForGiveaway",
      "type": "event"
    },
    {
      "anonymous": false,
      "inputs": [
        {
          "indexed": true,
          "internalType": "address",
          "name": "_from",
          "type": "address"
        },
        {
          "indexed": true,
          "internalType": "address",
          "name": "_to",
          "type": "address"
        },
        {
          "indexed": false,
          "internalType": "uint256",
          "name": "_id",
          "type": "uint256"
        },
        {
          "indexed": false,
          "internalType": "uint256",
          "name": "_amount",
          "type": "uint256"
        }
      ],
      "name": "SoldForPresale",
      "type": "event"
    },
    {
      "anonymous": false,
      "inputs": [
        {
          "indexed": true,
          "internalType": "address",
          "name": "_from",
          "type": "address"
        },
        {
          "indexed": true,
          "internalType": "address",
          "name": "_to",
          "type": "address"
        },
        {
          "indexed": false,
          "internalType": "uint256",
          "name": "_id",
          "type": "uint256"
        },
        {
          "indexed": false,
          "internalType": "uint256",
          "name": "_amount",
          "type": "uint256"
        }
      ],
      "name": "SoldForPublicSale",
      "type": "event"
    },
    {
      "anonymous": false,
      "inputs": [
        {
          "indexed": true,
          "internalType": "address",
          "name": "operator",
          "type": "address"
        },
        {
          "indexed": true,
          "internalType": "address",
          "name": "from",
          "type": "address"
        },
        {
          "indexed": true,
          "internalType": "address",
          "name": "to",
          "type": "address"
        },
        {
          "indexed": false,
          "internalType": "uint256[]",
          "name": "ids",
          "type": "uint256[]"
        },
        {
          "indexed": false,
          "internalType": "uint256[]",
          "name": "values",
          "type": "uint256[]"
        }
      ],
      "name": "TransferBatch",
      "type": "event"
    },
    {
      "anonymous": false,
      "inputs": [
        {
          "indexed": true,
          "internalType": "address",
          "name": "operator",
          "type": "address"
        },
        {
          "indexed": true,
          "internalType": "address",
          "name": "from",
          "type": "address"
        },
        {
          "indexed": true,
          "internalType": "address",
          "name": "to",
          "type": "address"
        },
        {
          "indexed": false,
          "internalType": "uint256",
          "name": "id",
          "type": "uint256"
        },
        {
          "indexed": false,
          "internalType": "uint256",
          "name": "value",
          "type": "uint256"
        }
      ],
      "name": "TransferSingle",
      "type": "event"
    },
    {
      "anonymous": false,
      "inputs": [
        {
          "indexed": false,
          "internalType": "string",
          "name": "value",
          "type": "string"
        },
        {
          "indexed": true,
          "internalType": "uint256",
          "name": "id",
          "type": "uint256"
        }
      ],
      "name": "URI",
      "type": "event"
    },
    {
      "inputs": [
        {
          "internalType": "string",
          "name": "_EMGuri",
          "type": "string"
        }
      ],
      "name": "EMGreveal",
      "outputs": [],
      "stateMutability": "nonpayable",
      "type": "function"
    },
    {
      "inputs": [
        {
          "internalType": "address",
          "name": "account",
          "type": "address"
        },
        {
          "internalType": "uint256",
          "name": "id",
          "type": "uint256"
        }
      ],
      "name": "balanceOf",
      "outputs": [
        {
          "internalType": "uint256",
          "name": "",
          "type": "uint256"
        }
      ],
      "stateMutability": "view",
      "type": "function"
    },
    {
      "inputs": [
        {
          "internalType": "address[]",
          "name": "accounts",
          "type": "address[]"
        },
        {
          "internalType": "uint256[]",
          "name": "ids",
          "type": "uint256[]"
        }
      ],
      "name": "balanceOfBatch",
      "outputs": [
        {
          "internalType": "uint256[]",
          "name": "",
          "type": "uint256[]"
        }
      ],
      "stateMutability": "view",
      "type": "function"
    },
    {
      "inputs": [
        {
          "internalType": "uint16",
          "name": "",
          "type": "uint16"
        },
        {
          "internalType": "bytes",
          "name": "",
          "type": "bytes"
        },
        {
          "internalType": "uint256",
          "name": "",
          "type": "uint256"
        }
      ],
      "name": "failedMessages",
      "outputs": [
        {
          "internalType": "bytes32",
          "name": "",
          "type": "bytes32"
        }
      ],
      "stateMutability": "view",
      "type": "function"
    },
    {
      "inputs": [
        {
          "internalType": "uint16",
          "name": "_srcChainId",
          "type": "uint16"
        },
        {
          "internalType": "bytes",
          "name": "_srcAddress",
          "type": "bytes"
        }
      ],
      "name": "forceResumeReceive",
      "outputs": [],
      "stateMutability": "nonpayable",
      "type": "function"
    },
    {
      "inputs": [
        {
          "internalType": "uint16",
          "name": "",
          "type": "uint16"
        },
        {
          "internalType": "uint16",
          "name": "_chainId",
          "type": "uint16"
        },
        {
          "internalType": "address",
          "name": "",
          "type": "address"
        },
        {
          "internalType": "uint256",
          "name": "_configType",
          "type": "uint256"
        }
      ],
      "name": "getConfig",
      "outputs": [
        {
          "internalType": "bytes",
          "name": "",
          "type": "bytes"
        }
      ],
      "stateMutability": "view",
      "type": "function"
    },
    {
      "inputs": [],
      "name": "getLzEndpoint",
      "outputs": [
        {
          "internalType": "address",
          "name": "",
          "type": "address"
        }
      ],
      "stateMutability": "view",
      "type": "function"
    },
    {
      "inputs": [
        {
          "internalType": "uint16",
          "name": "_chainId",
          "type": "uint16"
        }
      ],
      "name": "getTrustedRemote",
      "outputs": [
        {
          "internalType": "bytes",
          "name": "",
          "type": "bytes"
        }
      ],
      "stateMutability": "view",
      "type": "function"
    },
    {
      "inputs": [
        {
          "internalType": "address",
          "name": "account",
          "type": "address"
        },
        {
          "internalType": "address",
          "name": "operator",
          "type": "address"
        }
      ],
      "name": "isApprovedForAll",
      "outputs": [
        {
          "internalType": "bool",
          "name": "",
          "type": "bool"
        }
      ],
      "stateMutability": "view",
      "type": "function"
    },
    {
      "inputs": [
        {
          "internalType": "uint16",
          "name": "_srcChainId",
          "type": "uint16"
        },
        {
          "internalType": "bytes",
          "name": "_srcAddress",
          "type": "bytes"
        }
      ],
      "name": "isTrustedRemote",
      "outputs": [
        {
          "internalType": "bool",
          "name": "",
          "type": "bool"
        }
      ],
      "stateMutability": "view",
      "type": "function"
    },
    {
      "inputs": [
        {
          "internalType": "address",
          "name": "agentAddr",
          "type": "address"
        }
      ],
      "name": "license",
      "outputs": [],
      "stateMutability": "nonpayable",
      "type": "function"
    },
    {
      "inputs": [
        {
          "internalType": "uint16",
          "name": "_srcChainId",
          "type": "uint16"
        },
        {
          "internalType": "bytes",
          "name": "_srcAddress",
          "type": "bytes"
        },
        {
          "internalType": "uint64",
          "name": "_nonce",
          "type": "uint64"
        },
        {
          "internalType": "bytes",
          "name": "_payload",
          "type": "bytes"
        }
      ],
      "name": "lzReceive",
      "outputs": [],
      "stateMutability": "nonpayable",
      "type": "function"
    },
    {
      "inputs": [],
      "name": "maxMintId",
      "outputs": [
        {
          "internalType": "uint256",
          "name": "",
          "type": "uint256"
        }
      ],
      "stateMutability": "view",
      "type": "function"
    },
    {
      "inputs": [],
      "name": "minMintId",
      "outputs": [
        {
          "internalType": "uint256",
          "name": "",
          "type": "uint256"
        }
      ],
      "stateMutability": "view",
      "type": "function"
    },
    {
      "inputs": [
        {
          "internalType": "uint256",
          "name": "_tokenId",
          "type": "uint256"
        },
        {
          "internalType": "uint256",
          "name": "_amount",
          "type": "uint256"
        }
      ],
      "name": "mint",
      "outputs": [],
      "stateMutability": "nonpayable",
      "type": "function"
    },
    {
      "inputs": [
        {
          "internalType": "uint256[]",
          "name": "_tokenIds",
          "type": "uint256[]"
        },
        {
          "internalType": "uint256[]",
          "name": "_amounts",
          "type": "uint256[]"
        }
      ],
      "name": "mintBatch",
      "outputs": [],
      "stateMutability": "nonpayable",
      "type": "function"
    },
    {
      "inputs": [],
      "name": "name",
      "outputs": [
        {
          "internalType": "string",
          "name": "",
          "type": "string"
        }
      ],
      "stateMutability": "view",
      "type": "function"
    },
    {
      "inputs": [
        {
          "internalType": "uint16",
          "name": "_srcChainId",
          "type": "uint16"
        },
        {
          "internalType": "bytes",
          "name": "_srcAddress",
          "type": "bytes"
        },
        {
          "internalType": "uint64",
          "name": "_nonce",
          "type": "uint64"
        },
        {
          "internalType": "bytes",
          "name": "_payload",
          "type": "bytes"
        }
      ],
      "name": "nonblockingLzReceive",
      "outputs": [],
      "stateMutability": "nonpayable",
      "type": "function"
    },
    {
      "inputs": [],
      "name": "owner",
      "outputs": [
        {
          "internalType": "address",
          "name": "",
          "type": "address"
        }
      ],
      "stateMutability": "view",
      "type": "function"
    },
    {
      "inputs": [],
      "name": "releasedLimitations",
      "outputs": [],
      "stateMutability": "nonpayable",
      "type": "function"
    },
    {
      "inputs": [],
      "name": "renounceOwnership",
      "outputs": [],
      "stateMutability": "nonpayable",
      "type": "function"
    },
    {
      "inputs": [
        {
          "internalType": "uint16",
          "name": "_srcChainId",
          "type": "uint16"
        },
        {
          "internalType": "bytes",
          "name": "_srcAddress",
          "type": "bytes"
        },
        {
          "internalType": "uint64",
          "name": "_nonce",
          "type": "uint64"
        },
        {
          "internalType": "bytes",
          "name": "_payload",
          "type": "bytes"
        }
      ],
      "name": "retryMessage",
      "outputs": [],
      "stateMutability": "payable",
      "type": "function"
    },
    {
      "inputs": [],
      "name": "reveal",
      "outputs": [],
      "stateMutability": "nonpayable",
      "type": "function"
    },
    {
      "inputs": [
        {
          "internalType": "address",
          "name": "from",
          "type": "address"
        },
        {
          "internalType": "address",
          "name": "to",
          "type": "address"
        },
        {
          "internalType": "uint256[]",
          "name": "ids",
          "type": "uint256[]"
        },
        {
          "internalType": "uint256[]",
          "name": "amounts",
          "type": "uint256[]"
        },
        {
          "internalType": "bytes",
          "name": "data",
          "type": "bytes"
        }
      ],
      "name": "safeBatchTransferFrom",
      "outputs": [],
      "stateMutability": "nonpayable",
      "type": "function"
    },
    {
      "inputs": [
        {
          "internalType": "address",
          "name": "from",
          "type": "address"
        },
        {
          "internalType": "address",
          "name": "to",
          "type": "address"
        },
        {
          "internalType": "uint256",
          "name": "id",
          "type": "uint256"
        },
        {
          "internalType": "uint256",
          "name": "amount",
          "type": "uint256"
        },
        {
          "internalType": "bytes",
          "name": "data",
          "type": "bytes"
        }
      ],
      "name": "safeTransferFrom",
      "outputs": [],
      "stateMutability": "nonpayable",
      "type": "function"
    },
    {
      "inputs": [
        {
          "internalType": "uint16",
          "name": "_dstChainId",
          "type": "uint16"
        },
        {
          "internalType": "bytes",
          "name": "_toAddress",
          "type": "bytes"
        },
        {
          "internalType": "uint256",
          "name": "_tokenId",
          "type": "uint256"
        },
        {
          "internalType": "address payable",
          "name": "_refundAddress",
          "type": "address"
        },
        {
          "internalType": "address",
          "name": "_zroPaymentAddress",
          "type": "address"
        },
        {
          "internalType": "bytes",
          "name": "_adapterParam",
          "type": "bytes"
        }
      ],
      "name": "send",
      "outputs": [],
      "stateMutability": "payable",
      "type": "function"
    },
    {
      "inputs": [
        {
          "internalType": "address",
          "name": "_from",
          "type": "address"
        },
        {
          "internalType": "uint16",
          "name": "_dstChainId",
          "type": "uint16"
        },
        {
          "internalType": "bytes",
          "name": "_toAddress",
          "type": "bytes"
        },
        {
          "internalType": "uint256",
          "name": "_tokenId",
          "type": "uint256"
        },
        {
          "internalType": "address payable",
          "name": "_refundAddress",
          "type": "address"
        },
        {
          "internalType": "address",
          "name": "_zroPaymentAddress",
          "type": "address"
        },
        {
          "internalType": "bytes",
          "name": "_adapterParam",
          "type": "bytes"
        }
      ],
      "name": "sendFrom",
      "outputs": [],
      "stateMutability": "payable",
      "type": "function"
    },
    {
      "inputs": [
        {
          "internalType": "address",
          "name": "operator",
          "type": "address"
        },
        {
          "internalType": "bool",
          "name": "approved",
          "type": "bool"
        }
      ],
      "name": "setApprovalForAll",
      "outputs": [],
      "stateMutability": "nonpayable",
      "type": "function"
    },
    {
      "inputs": [
        {
          "internalType": "uint16",
          "name": "_version",
          "type": "uint16"
        },
        {
          "internalType": "uint16",
          "name": "_chainId",
          "type": "uint16"
        },
        {
          "internalType": "uint256",
          "name": "_configType",
          "type": "uint256"
        },
        {
          "internalType": "bytes",
          "name": "_config",
          "type": "bytes"
        }
      ],
      "name": "setConfig",
      "outputs": [],
      "stateMutability": "nonpayable",
      "type": "function"
    },
    {
      "inputs": [
        {
          "internalType": "uint16",
          "name": "_version",
          "type": "uint16"
        }
      ],
      "name": "setReceiveVersion",
      "outputs": [],
      "stateMutability": "nonpayable",
      "type": "function"
    },
    {
      "inputs": [
        {
          "internalType": "uint16",
          "name": "_version",
          "type": "uint16"
        }
      ],
      "name": "setSendVersion",
      "outputs": [],
      "stateMutability": "nonpayable",
      "type": "function"
    },
    {
      "inputs": [
        {
          "internalType": "uint16",
          "name": "_srcChainId",
          "type": "uint16"
        },
        {
          "internalType": "bytes",
          "name": "_srcAddress",
          "type": "bytes"
        }
      ],
      "name": "setTrustedRemote",
      "outputs": [],
      "stateMutability": "nonpayable",
      "type": "function"
    },
    {
      "inputs": [],
      "name": "startSale",
      "outputs": [],
      "stateMutability": "nonpayable",
      "type": "function"
    },
    {
      "inputs": [
        {
          "internalType": "bytes4",
          "name": "interfaceId",
          "type": "bytes4"
        }
      ],
      "name": "supportsInterface",
      "outputs": [
        {
          "internalType": "bool",
          "name": "",
          "type": "bool"
        }
      ],
      "stateMutability": "view",
      "type": "function"
    },
    {
      "inputs": [],
      "name": "suspendSale",
      "outputs": [],
      "stateMutability": "nonpayable",
      "type": "function"
    },
    {
      "inputs": [],
      "name": "symbol",
      "outputs": [
        {
          "internalType": "string",
          "name": "",
          "type": "string"
        }
      ],
      "stateMutability": "view",
      "type": "function"
    },
    {
      "inputs": [],
      "name": "totalSupply",
      "outputs": [
        {
          "internalType": "uint256",
          "name": "",
          "type": "uint256"
        }
      ],
      "stateMutability": "view",
      "type": "function"
    },
    {
      "inputs": [
        {
          "internalType": "address",
          "name": "newOwner",
          "type": "address"
        }
      ],
      "name": "transferOwnership",
      "outputs": [],
      "stateMutability": "nonpayable",
      "type": "function"
    },
    {
      "inputs": [
        {
          "internalType": "address",
          "name": "agentAddr",
          "type": "address"
        }
      ],
      "name": "unlicense",
      "outputs": [],
      "stateMutability": "nonpayable",
      "type": "function"
    },
    {
      "inputs": [
        {
          "internalType": "uint256",
          "name": "",
          "type": "uint256"
        }
      ],
      "name": "uri",
      "outputs": [
        {
          "internalType": "string",
          "name": "",
          "type": "string"
        }
      ],
      "stateMutability": "view",
      "type": "function"
    }
  ],
  "bytecode": "0x600c805461ffff19169055610120604052604860a08181529062004ada60c03980516200003591600d91602090910190620004ac565b503480156200004357600080fd5b5060405162004b2238038062004b22833981016040819052620000669162000552565b600d8054620000759062000597565b80601f0160208091040260200160405190810160405280929190818152602001828054620000a39062000597565b8015620000f45780601f10620000c857610100808354040283529160200191620000f4565b820191906000526020600020905b815481529060010190602001808311620000d657829003601f168201915b50505050508381818062000117620001116200043f60201b60201c565b62000443565b60601b6001600160601b03191660805250620001338162000493565b5050600f6020525060037f169f97de0d9a84d840042b17d3c6b9638b3d6fd9024c9eb0c7a306a17b49f88f8190557fa74ba3945261e09fde15ba3db55005b205e61eeb4ad811ac0faa2b315bffeead5560027f45f76dafbbad695564362934e24d72eedc57f9fc1a65f39bca62176cc82968288190557f367ccd2d0ac16bf7110a5dffe0801fdc9452a95a1adb7e1a12fe97dd3e9a4edd81905560017f6bda57492eba051cb4a12a1e19df47c9755d78165341d4009b1d09b3f36162048190557fb5a1e7cda73b1608e93d4d50ab796c3d35aa6216cb006a1f920df154d13ff618819055600a7f73dfc495eb54bd6713ffc079b9f5e40f2fecd3793d143759ba0128fbedb402548190557f49a9092dc5c03b26195f6621c97b5cf515cb77afe659e3fe008a73456354eb688190557f3e674ca654b1063e821161bbf601452dd0f1671d575d614ba17ca7f3cdc76039919091557fa13a7a52a9cbb6a90f40d40fbf35f68146be73226e0f48ff16963183fd5684ad8290557f0db0e9d5a07148aa3e0acc10f721b78526b53a3f4f3d07794be76568de7347c582905560147faed549f926a17a28853af2d56b17ad8ad8d799c48d325a734362b810173b772981905560057fe48c37f5ec5b77098fcb2a7935f0925fec1a69796c076c65ed90d9c90ef07dc58190557f61510b1e54e804ee2580bac0a66e3ff0bcf8eecee98d26e41ad5e6195d21ef9f8190557f09567c41c2b819e512ebbfc896a7d795b901b9f15f7637726d97561d5276acb08490557f19a91e2e18c07202ee013c560f8ebffb9b71a05a6a09fdb1d62a413e2117a159939093557f8252d0af7d8ed7c10ea80b7c6f14fb078bd62e077f890e6c18f704b57caaa5fe8290557f765724b689e31218aaf382b54d4ef85ae8209f9da80544d7ed82a51797a64b6d8390557f5f17331c879675a751c0e3884b2f2126ab802511155fffcf04a93b2bacc61e499290925560009190915260097f7c16d5886e618926ff2a48ede610aee33ddc3e26b240b1a3e692dab251ff80af81905592909255905550600680546001600160a01b03191633179055620005d4565b3390565b600080546001600160a01b038381166001600160a01b0319831681178455604051919092169283917f8be0079c531659141344cd1fd0a4f28419497f9722a3daafe3b4186f6b6457e09190a35050565b8051620004a8906005906020840190620004ac565b5050565b828054620004ba9062000597565b90600052602060002090601f016020900481019282620004de576000855562000529565b82601f10620004f957805160ff191683800117855562000529565b8280016001018555821562000529579182015b82811115620005295782518255916020019190600101906200050c565b50620005379291506200053b565b5090565b5b808211156200053757600081556001016200053c565b6000806000606084860312156200056857600080fd5b83516001600160a01b03811681146200058057600080fd5b602085015160409095015190969495509392505050565b600181811c90821680620005ac57607f821691505b60208210811415620005ce57634e487b7160e01b600052602260045260246000fd5b50919050565b60805160601c6144af6200062b600039600081816106520152818161076b01528181610a2c01528181610b6b01528181610f00015281816114bb01528181611b9a015281816120eb0152612e4f01526144af6000f3fe6080604052600436106102395760003560e01c80638ee749121161012e578063d351cfdc116100ab578063eb8d72b71161006f578063eb8d72b7146106d5578063eed33cef146106f5578063f242432a14610708578063f2fde38b14610728578063f5ecbdbc1461074857600080fd5b8063d351cfdc14610603578063d6062e4414610623578063dacbcbe214610643578063e1d4c87014610676578063e985e9c51461068c57600080fd5b8063a475b5dd116100f2578063a475b5dd14610590578063ae578cc1146105a5578063b66a0e5d146105bb578063cbed8b9c146105d0578063d1deba1f146105f057600080fd5b80638ee74912146104d757806393d884091461052657806395d89b411461053b5780639d1835db14610550578063a22cb4651461057057600080fd5b80632eb2c2d6116101bc5780635f5e0710116101805780635f5e07101461043057806366ad5c8a1461045057806369b41f9514610470578063715018a6146104905780638da5cb5b146104a557600080fd5b80632eb2c2d6146103905780633d8b38f6146103b057806342d65a8d146103d05780634e1273f4146103f0578063519056361461041d57600080fd5b80630e89341c116102035780630e89341c1461030557806310ddb1371461032557806318160ddd146103455780631b2ef1ca1461035b5780631b548e991461037b57600080fd5b80621d35671461023e578062fdd58e1461026057806301ffc9a71461029357806306fdde03146102c357806307e0db17146102e5575b600080fd5b34801561024a57600080fd5b5061025e61025936600461399c565b610768565b005b34801561026c57600080fd5b5061028061027b366004613523565b610871565b6040519081526020015b60405180910390f35b34801561029f57600080fd5b506102b36102ae36600461366d565b610905565b604051901515815260200161028a565b3480156102cf57600080fd5b506102d8610957565b60405161028a9190613d39565b3480156102f157600080fd5b5061025e610300366004613771565b6109e9565b34801561031157600080fd5b506102d8610320366004613ad8565b610a94565b34801561033157600080fd5b5061025e610340366004613771565b610b28565b34801561035157600080fd5b50610280600b5481565b34801561036757600080fd5b5061025e610376366004613af1565b610ba2565b34801561038757600080fd5b5061025e610d10565b34801561039c57600080fd5b5061025e6103ab366004613312565b610d63565b3480156103bc57600080fd5b506102b36103cb3660046137ab565b610df3565b3480156103dc57600080fd5b5061025e6103eb3660046137ab565b610ebf565b3480156103fc57600080fd5b5061041061040b36600461354f565b610f70565b60405161028a9190613d01565b61025e61042b36600461345a565b611099565b34801561043c57600080fd5b5061025e61044b3660046132bc565b6110ec565b34801561045c57600080fd5b5061025e61046b36600461399c565b611151565b34801561047c57600080fd5b506102d861048b366004613771565b6111b7565b34801561049c57600080fd5b5061025e6111d9565b3480156104b157600080fd5b506000546001600160a01b03165b6040516001600160a01b03909116815260200161028a565b3480156104e357600080fd5b506102806104f23660046138b3565b6002602090815260009384526040808520845180860184018051928152908401958401959095209452929052825290205481565b34801561053257600080fd5b5061025e61120f565b34801561054757600080fd5b506102d86112a6565b34801561055c57600080fd5b5061025e61056b366004613729565b6112b5565b34801561057c57600080fd5b5061025e61058b366004613427565b611305565b34801561059c57600080fd5b5061025e611314565b3480156105b157600080fd5b5061028060095481565b3480156105c757600080fd5b5061025e6113eb565b3480156105dc57600080fd5b5061025e6105eb366004613a77565b61147a565b61025e6105fe36600461390b565b611526565b34801561060f57600080fd5b5061025e61061e366004613621565b6116cc565b34801561062f57600080fd5b5061025e61063e3660046132bc565b611962565b34801561064f57600080fd5b507f00000000000000000000000000000000000000000000000000000000000000006104bf565b34801561068257600080fd5b50610280600a5481565b34801561069857600080fd5b506102b36106a73660046132d9565b6001600160a01b03918216600090815260046020908152604080832093909416825291909152205460ff1690565b3480156106e157600080fd5b5061025e6106f03660046137ab565b6119ca565b61025e6107033660046137ff565b611a53565b34801561071457600080fd5b5061025e6107233660046133bf565b611aa5565b34801561073457600080fd5b5061025e6107433660046132bc565b611aea565b34801561075457600080fd5b506102d8610763366004613a26565b611b82565b337f00000000000000000000000000000000000000000000000000000000000000006001600160a01b03161461079d57600080fd5b61ffff8416600090815260016020526040902080546107bb906142a0565b905083511480156107fa575061ffff84166000908152600160205260409081902090516107e89190613bec565b60405180910390208380519060200120145b61085f5760405162461bcd60e51b815260206004820152602b60248201527f4c7a52656365697665723a20696e76616c696420736f757263652073656e646960448201526a1b99c818dbdb9d1c9858dd60aa1b60648201526084015b60405180910390fd5b61086b84848484611cb8565b50505050565b60006001600160a01b0383166108dd5760405162461bcd60e51b815260206004820152602b60248201527f455243313135353a2062616c616e636520717565727920666f7220746865207a60448201526a65726f206164647265737360a81b6064820152608401610856565b5060009081526003602090815260408083206001600160a01b03949094168352929052205490565b60006001600160e01b03198216636cdb3d1360e11b148061093657506001600160e01b031982166303a24d0760e21b145b8061095157506301ffc9a760e01b6001600160e01b03198316145b92915050565b606060078054610966906142a0565b80601f0160208091040260200160405190810160405280929190818152602001828054610992906142a0565b80156109df5780601f106109b4576101008083540402835291602001916109df565b820191906000526020600020905b8154815290600101906020018083116109c257829003601f168201915b5050505050905090565b6000546001600160a01b03163314610a135760405162461bcd60e51b815260040161085690613edd565b6040516307e0db1760e01b815261ffff821660048201527f00000000000000000000000000000000000000000000000000000000000000006001600160a01b0316906307e0db17906024015b600060405180830381600087803b158015610a7957600080fd5b505af1158015610a8d573d6000803e3d6000fd5b5050505050565b606060058054610aa3906142a0565b80601f0160208091040260200160405190810160405280929190818152602001828054610acf906142a0565b8015610b1c5780601f10610af157610100808354040283529160200191610b1c565b820191906000526020600020905b815481529060010190602001808311610aff57829003601f168201915b50505050509050919050565b6000546001600160a01b03163314610b525760405162461bcd60e51b815260040161085690613edd565b6040516310ddb13760e01b815261ffff821660048201527f00000000000000000000000000000000000000000000000000000000000000006001600160a01b0316906310ddb13790602401610a5f565b6006546001600160a01b0316331480610bca57503360009081526011602052604090205460ff165b610be65760405162461bcd60e51b815260040161085690613e44565b6000828152600f6020908152604080832054600e9092529091205483918391610c1090839061425c565b1115610c535760405162461bcd60e51b815260206004820152601260248201527113585e081cdd5c1c1b1e481c995858da195960721b6044820152606401610856565b6009548410158015610c675750600a548411155b610c835760405162461bcd60e51b815260040161085690613f53565b6000848152600e602052604081208054859290610ca190849061425c565b9250508190555082600b6000828254610cba919061425c565b90915550610cdb905033858560405180602001604052806000815250611da9565b60408051858152602081018590523391600091839160008051602061445a83398151915291015b60405180910390a450505050565b6006546001600160a01b0316331480610d3857503360009081526011602052604090205460ff165b610d545760405162461bcd60e51b815260040161085690613e44565b600c805460ff19166001179055565b6001600160a01b038516331480610d7f5750610d7f85336106a7565b610de65760405162461bcd60e51b815260206004820152603260248201527f455243313135353a207472616e736665722063616c6c6572206973206e6f74206044820152711bdddb995c881b9bdc88185c1c1c9bdd995960721b6064820152608401610856565b610a8d8585858585611e6f565b61ffff831660009081526001602052604081208054829190610e14906142a0565b80601f0160208091040260200160405190810160405280929190818152602001828054610e40906142a0565b8015610e8d5780601f10610e6257610100808354040283529160200191610e8d565b820191906000526020600020905b815481529060010190602001808311610e7057829003601f168201915b505050505090508383604051610ea4929190613bc0565b60405180910390208180519060200120149150509392505050565b6000546001600160a01b03163314610ee95760405162461bcd60e51b815260040161085690613edd565b6040516342d65a8d60e01b81526001600160a01b037f000000000000000000000000000000000000000000000000000000000000000016906342d65a8d90610f3990869086908690600401614069565b600060405180830381600087803b158015610f5357600080fd5b505af1158015610f67573d6000803e3d6000fd5b50505050505050565b60608151835114610fd55760405162461bcd60e51b815260206004820152602960248201527f455243313135353a206163636f756e747320616e6420696473206c656e677468604482015268040dad2e6dac2e8c6d60bb1b6064820152608401610856565b600083516001600160401b03811115610ff057610ff061434e565b604051908082528060200260200182016040528015611019578160200160208202803683370190505b50905060005b84518110156110915761106485828151811061103d5761103d614338565b602002602001015185838151811061105757611057614338565b6020026020010151610871565b82828151811061107657611076614338565b602090810291909101015261108a81614307565b905061101f565b509392505050565b6110e1898989898080601f0160208091040260200160405190810160405280939291908181526020018383808284376000920191909152508b92508a9150899050888861201c565b505050505050505050565b6006546001600160a01b031633148061111457503360009081526011602052604090205460ff165b6111305760405162461bcd60e51b815260040161085690613e44565b6001600160a01b03166000908152601160205260409020805460ff19169055565b3330146111ab5760405162461bcd60e51b815260206004820152602260248201527f4c7a52656365697665723a2063616c6c6572206d757374206265204272696467604482015261329760f11b6064820152608401610856565b61086b848484846121db565b61ffff81166000908152600160205260409020805460609190610aa3906142a0565b6000546001600160a01b031633146112035760405162461bcd60e51b815260040161085690613edd565b61120d600061226c565b565b6006546001600160a01b031633148061123757503360009081526011602052604090205460ff165b6112535760405162461bcd60e51b815260040161085690613e44565b600c805461ff001916908190556040517f550905f1da7012a5beef71875850a6d1570b14618f64bdcc3cb876b9a231f5a39161129c9161010090910460ff161515815260200190565b60405180910390a1565b606060088054610966906142a0565b6006546001600160a01b03163314806112dd57503360009081526011602052604090205460ff165b6112f95760405162461bcd60e51b815260040161085690613e44565b611302816122bc565b50565b6113103383836122cf565b5050565b6006546001600160a01b031633148061133c57503360009081526011602052604090205460ff165b6113585760405162461bcd60e51b815260040161085690613e44565b61120d600d8054611368906142a0565b80601f0160208091040260200160405190810160405280929190818152602001828054611394906142a0565b80156113e15780601f106113b6576101008083540402835291602001916113e1565b820191906000526020600020905b8154815290600101906020018083116113c457829003601f168201915b50505050506122bc565b6006546001600160a01b031633148061141357503360009081526011602052604090205460ff165b61142f5760405162461bcd60e51b815260040161085690613e44565b600c805461ff001916610100908117918290556040517f550905f1da7012a5beef71875850a6d1570b14618f64bdcc3cb876b9a231f5a39261129c92900460ff161515815260200190565b6000546001600160a01b031633146114a45760405162461bcd60e51b815260040161085690613edd565b6040516332fb62e760e21b81526001600160a01b037f0000000000000000000000000000000000000000000000000000000000000000169063cbed8b9c906114f890889088908890889088906004016141e4565b600060405180830381600087803b15801561151257600080fd5b505af11580156110e1573d6000803e3d6000fd5b61ffff85166000908152600260205260408082209051611547908790613bd0565b90815260408051602092819003830190206001600160401b038716600090815292529020549050806115bb5760405162461bcd60e51b815260206004820152601d60248201527f4c7a52656365697665723a206e6f2073746f726564206d6573736167650000006044820152606401610856565b8083836040516115cc929190613bc0565b6040518091039020146116215760405162461bcd60e51b815260206004820152601b60248201527f4c7a52656365697665723a20696e76616c6964207061796c6f616400000000006044820152606401610856565b61ffff86166000908152600260205260408082209051611642908890613bd0565b9081526040805191829003602090810183206001600160401b038916600090815291522091909155633356ae4560e11b815230906366ad5c8a906116929089908990899089908990600401614087565b600060405180830381600087803b1580156116ac57600080fd5b505af11580156116c0573d6000803e3d6000fd5b50505050505050505050565b6006546001600160a01b03163314806116f457503360009081526011602052604090205460ff165b6117105760405162461bcd60e51b815260040161085690613e44565b818160005b82518110156117f157600f600084838151811061173457611734614338565b602002602001015181526020019081526020016000205482828151811061175d5761175d614338565b6020026020010151600e600086858151811061177b5761177b614338565b602002602001015181526020019081526020016000205461179c919061425c565b11156117df5760405162461bcd60e51b815260206004820152601260248201527113585e081cdd5c1c1b1e481c995858da195960721b6044820152606401610856565b806117e981614307565b915050611715565b5060005b84518110156118ff5760095485828151811061181357611813614338565b6020026020010151101580156118445750600a5485828151811061183957611839614338565b602002602001015111155b6118605760405162461bcd60e51b815260040161085690613f53565b83818151811061187257611872614338565b6020026020010151600e600087848151811061189057611890614338565b6020026020010151815260200190815260200160002060008282546118b5919061425c565b925050819055508381815181106118ce576118ce614338565b6020026020010151600b60008282546118e7919061425c565b909155508190506118f781614307565b9150506117f5565b5061191b338585604051806020016040528060008152506123b0565b336001600160a01b03166000336001600160a01b03167f4a39dc06d4c0dbc64b70af90fd698a233a518aa5d07e595d983b8c0526c8f7fb8787604051610d02929190613d14565b6006546001600160a01b031633148061198a57503360009081526011602052604090205460ff165b6119a65760405162461bcd60e51b815260040161085690613e44565b6001600160a01b03166000908152601160205260409020805460ff19166001179055565b6000546001600160a01b031633146119f45760405162461bcd60e51b815260040161085690613edd565b61ffff83166000908152600160205260409020611a12908383613034565b507ffa41487ad5d6728f0b19276fa1eddc16558578f5109fc39d2dc33c3230470dab838383604051611a4693929190614069565b60405180910390a1505050565b611a9b338989898080601f0160208091040260200160405190810160405280939291908181526020018383808284376000920191909152508b92508a9150899050888861201c565b5050505050505050565b6001600160a01b038516331480611ac15750611ac185336106a7565b611add5760405162461bcd60e51b815260040161085690613db6565b610a8d858585858561250b565b6000546001600160a01b03163314611b145760405162461bcd60e51b815260040161085690613edd565b6001600160a01b038116611b795760405162461bcd60e51b815260206004820152602660248201527f4f776e61626c653a206e6577206f776e657220697320746865207a65726f206160448201526564647265737360d01b6064820152608401610856565b6113028161226c565b6040516304b2b47b60e11b81523060048201526060907f00000000000000000000000000000000000000000000000000000000000000006001600160a01b03169063f5ecbdbc90829063096568f69060240160206040518083038186803b158015611bec57600080fd5b505afa158015611c00573d6000803e3d6000fd5b505050506040513d601f19601f82011682018060405250810190611c24919061378e565b6040516001600160e01b031960e084901b16815261ffff918216600482015290871660248201523060448201526064810185905260840160006040518083038186803b158015611c7357600080fd5b505afa158015611c87573d6000803e3d6000fd5b505050506040513d6000823e601f3d908101601f19168201604052611caf91908101906136a7565b95945050505050565b604051633356ae4560e11b815230906366ad5c8a90611ce19087908790879087906004016140c6565b600060405180830381600087803b158015611cfb57600080fd5b505af1925050508015611d0c575060015b61086b578080519060200120600260008661ffff1661ffff16815260200190815260200160002084604051611d419190613bd0565b9081526040805191829003602090810183206001600160401b0387166000908152915220919091557fe6f254030bcb01ffd20558175c13fcaed6d1520be7becee4c961b65f79243b0d90611d9c9086908690869086906140c6565b60405180910390a161086b565b6001600160a01b038416611dcf5760405162461bcd60e51b815260040161085690614028565b33611def81600087611de088612611565b611de988612611565b8761265c565b60008481526003602090815260408083206001600160a01b038916845290915281208054859290611e2190849061425c565b909155505060408051858152602081018590526001600160a01b03808816926000929185169160008051602061445a833981519152910160405180910390a4610a8d81600087878787612b5b565b8151835114611e905760405162461bcd60e51b815260040161085690613fe0565b6001600160a01b038416611eb65760405162461bcd60e51b815260040161085690613dff565b33611ec581878787878761265c565b60005b8451811015611fae576000858281518110611ee557611ee5614338565b602002602001015190506000858381518110611f0357611f03614338565b60209081029190910181015160008481526003835260408082206001600160a01b038e168352909352919091205490915081811015611f545760405162461bcd60e51b815260040161085690613e93565b60008381526003602090815260408083206001600160a01b038e8116855292528083208585039055908b16825281208054849290611f9390849061425c565b9250508190555050505080611fa790614307565b9050611ec8565b50846001600160a01b0316866001600160a01b0316826001600160a01b03167f4a39dc06d4c0dbc64b70af90fd698a233a518aa5d07e595d983b8c0526c8f7fb8787604051611ffe929190613d14565b60405180910390a4612014818787878787612cc6565b505050505050565b6001600160a01b038816331480612038575061203888336106a7565b6120545760405162461bcd60e51b815260040161085690613db6565b61206088888888612d90565b60008686604051602001612075929190613d4c565b60405160208183030381529060405290506120c98882878787878080601f016020809104026020016040519081016040528093929190818152602001838380828437600092019190915250612d9c92505050565b604051630f428ae960e31b815261ffff891660048201523060248201526000907f00000000000000000000000000000000000000000000000000000000000000006001600160a01b031690637a1457489060440160206040518083038186803b15801561213557600080fd5b505afa158015612149573d6000803e3d6000fd5b505050506040513d601f19601f8201168201806040525081019061216d9190613b13565b90508760405161217d9190613bd0565b604080519182900382208983526001600160401b03841660208401529161ffff8c16916001600160a01b038e16917f024797cc77ce15dc717112d54fb1df125fdfd8c81344fb046c5e074427ce1543910160405180910390a46116c0565b600080828060200190518101906121f291906136e3565b60148201519193509150612207878284612ead565b6040805161ffff891681526001600160a01b03831660208201529081018390526001600160401b03861660608201527fd4d39d20f72eabd06c301e516d54653dfc9116de62c1d54bf1cb48cf3b42a7db9060800160405180910390a150505050505050565b600080546001600160a01b038381166001600160a01b0319831681178455604051919092169283917f8be0079c531659141344cd1fd0a4f28419497f9722a3daafe3b4186f6b6457e09190a35050565b80516113109060059060208401906130b8565b816001600160a01b0316836001600160a01b031614156123435760405162461bcd60e51b815260206004820152602960248201527f455243313135353a2073657474696e6720617070726f76616c20737461747573604482015268103337b91039b2b63360b91b6064820152608401610856565b6001600160a01b03838116600081815260046020908152604080832094871680845294825291829020805460ff191686151590811790915591519182527f17307eab39ab6107e8899845ad3d59bd9653f200f220920489ca2b5937696c31910160405180910390a3505050565b6001600160a01b0384166123d65760405162461bcd60e51b815260040161085690614028565b81518351146123f75760405162461bcd60e51b815260040161085690613fe0565b336124078160008787878761265c565b60005b84518110156124a35783818151811061242557612425614338565b60200260200101516003600087848151811061244357612443614338565b602002602001015181526020019081526020016000206000886001600160a01b03166001600160a01b03168152602001908152602001600020600082825461248b919061425c565b9091555081905061249b81614307565b91505061240a565b50846001600160a01b031660006001600160a01b0316826001600160a01b03167f4a39dc06d4c0dbc64b70af90fd698a233a518aa5d07e595d983b8c0526c8f7fb87876040516124f4929190613d14565b60405180910390a4610a8d81600087878787612cc6565b6001600160a01b0384166125315760405162461bcd60e51b815260040161085690613dff565b33612541818787611de088612611565b60008481526003602090815260408083206001600160a01b038a168452909152902054838110156125845760405162461bcd60e51b815260040161085690613e93565b60008581526003602090815260408083206001600160a01b038b81168552925280832087850390559088168252812080548692906125c390849061425c565b909155505060408051868152602081018690526001600160a01b03808916928a8216929186169160008051602061445a833981519152910160405180910390a4610f67828888888888612b5b565b6040805160018082528183019092526060916000919060208083019080368337019050509050828160008151811061264b5761264b614338565b602090810291909101015292915050565b6001600160a01b038516158061267957506001600160a01b038416155b8061269257506000546001600160a01b03868116911614155b1561269c57612014565b600c54610100900460ff166126eb5760405162461bcd60e51b815260206004820152601560248201527453616c652069732073757370656e646564206e6f7760581b6044820152606401610856565b600c54610100900460ff1680156127055750600c5460ff16155b156120145760005b8351811015610f6757600284828151811061272a5761272a614338565b60200260200101511161285c576001600160a01b03851660009081526010602052604090205460ff1661276f5760405162461bcd60e51b815260040161085690613f12565b600183828151811061278357612783614338565b60200260200101516127a76127953390565b87858151811061105757611057614338565b6127b1919061425c565b11156127cf5760405162461bcd60e51b815260040161085690613f97565b846001600160a01b0316866001600160a01b03167fae4f547fa32bbfb0aacef985ccda1764fe4c357ccd59f52d389308624e764f0686848151811061281657612816614338565b602002602001015186858151811061283057612830614338565b602002602001015160405161284f929190918252602082015260400190565b60405180910390a3612b49565b600484828151811061287057612870614338565b60200260200101511161291257600183828151811061289157612891614338565b60200260200101516128a36127953390565b6128ad919061425c565b11156128cb5760405162461bcd60e51b815260040161085690613f97565b846001600160a01b0316866001600160a01b03167f9ee02141e53f94da9d53ecdc053896751d8482788078a5a339cc9654d67d9bc486848151811061281657612816614338565b600984828151811061292657612926614338565b602002602001015111612977576006546001600160a01b031633148061295b57503360009081526011602052604090205460ff165b6128cb5760405162461bcd60e51b815260040161085690613e44565b600b84828151811061298b5761298b614338565b6020026020010151116129d0576001600160a01b03851660009081526010602052604090205460ff1661276f5760405162461bcd60e51b815260040161085690613f12565b600e8482815181106129e4576129e4614338565b602002602001015111612a3d576001600160a01b03851660009081526010602052604090205460ff16612a295760405162461bcd60e51b815260040161085690613f12565b600283828151811061278357612783614338565b6010848281518110612a5157612a51614338565b602002602001015111612a7257600183828151811061289157612891614338565b6002838281518110612a8657612a86614338565b6020026020010151612a986127953390565b612aa2919061425c565b1115612ac05760405162461bcd60e51b815260040161085690613f97565b846001600160a01b0316866001600160a01b03167fae4f547fa32bbfb0aacef985ccda1764fe4c357ccd59f52d389308624e764f06868481518110612b0757612b07614338565b6020026020010151868581518110612b2157612b21614338565b6020026020010151604051612b40929190918252602082015260400190565b60405180910390a35b80612b5381614307565b91505061270d565b6001600160a01b0384163b156120145760405163f23a6e6160e01b81526001600160a01b0385169063f23a6e6190612b9f9089908990889088908890600401613cbc565b602060405180830381600087803b158015612bb957600080fd5b505af1925050508015612be9575060408051601f3d908101601f19168201909252612be69181019061368a565b60015b612c9657612bf5614364565b806308c379a01415612c2f5750612c0a614380565b80612c155750612c31565b8060405162461bcd60e51b81526004016108569190613d39565b505b60405162461bcd60e51b815260206004820152603460248201527f455243313135353a207472616e7366657220746f206e6f6e20455243313135356044820152732932b1b2b4bb32b91034b6b83632b6b2b73a32b960611b6064820152608401610856565b6001600160e01b0319811663f23a6e6160e01b14610f675760405162461bcd60e51b815260040161085690613d6e565b6001600160a01b0384163b156120145760405163bc197c8160e01b81526001600160a01b0385169063bc197c8190612d0a9089908990889088908890600401613c5e565b602060405180830381600087803b158015612d2457600080fd5b505af1925050508015612d54575060408051601f3d908101601f19168201909252612d519181019061368a565b60015b612d6057612bf5614364565b6001600160e01b0319811663bc197c8160e01b14610f675760405162461bcd60e51b815260040161085690613d6e565b61086b33826001612ec9565b61ffff851660009081526001602052604090208054612dba906142a0565b15159050612e255760405162461bcd60e51b815260206004820152603260248201527f4c7a53656e643a2064657374696e6174696f6e20636861696e206973206e6f746044820152711030903a393ab9ba32b21039b7bab931b29760711b6064820152608401610856565b61ffff851660009081526001602052604090819020905162c5803160e81b81526001600160a01b037f0000000000000000000000000000000000000000000000000000000000000000169163c5803100913491612e8f918a91908a908a908a908a90600401614104565b6000604051808303818588803b1580156116ac57600080fd5b505050565b612ea88282600160405180602001604052806000815250611da9565b6001600160a01b038316612f2b5760405162461bcd60e51b815260206004820152602360248201527f455243313135353a206275726e2066726f6d20746865207a65726f206164647260448201526265737360e81b6064820152608401610856565b33612f5a81856000612f3c87612611565b612f4587612611565b6040518060200160405280600081525061265c565b60008381526003602090815260408083206001600160a01b038816845290915290205482811015612fd95760405162461bcd60e51b8152602060048201526024808201527f455243313135353a206275726e20616d6f756e7420657863656564732062616c604482015263616e636560e01b6064820152608401610856565b60008481526003602090815260408083206001600160a01b038981168086529184528285208887039055825189815293840188905290929086169160008051602061445a833981519152910160405180910390a45050505050565b828054613040906142a0565b90600052602060002090601f01602090048101928261306257600085556130a8565b82601f1061307b5782800160ff198235161785556130a8565b828001600101855582156130a8579182015b828111156130a857823582559160200191906001019061308d565b506130b492915061312c565b5090565b8280546130c4906142a0565b90600052602060002090601f0160209004810192826130e657600085556130a8565b82601f106130ff57805160ff19168380011785556130a8565b828001600101855582156130a8579182015b828111156130a8578251825591602001919060010190613111565b5b808211156130b4576000815560010161312d565b600061314c83614235565b60405161315982826142db565b80925084815285858501111561316e57600080fd5b8484602083013760006020868301015250509392505050565b600082601f83011261319857600080fd5b813560206131a582614212565b6040516131b282826142db565b8381528281019150858301600585901b870184018810156131d257600080fd5b60005b858110156131f1578135845292840192908401906001016131d5565b5090979650505050505050565b60008083601f84011261321057600080fd5b5081356001600160401b0381111561322757600080fd5b60208301915083602082850101111561323f57600080fd5b9250929050565b600082601f83011261325757600080fd5b61326683833560208501613141565b9392505050565b600082601f83011261327e57600080fd5b815161328981614235565b60405161329682826142db565b8281528560208487010111156132ab57600080fd5b611caf836020830160208801614274565b6000602082840312156132ce57600080fd5b813561326681614409565b600080604083850312156132ec57600080fd5b82356132f781614409565b9150602083013561330781614409565b809150509250929050565b600080600080600060a0868803121561332a57600080fd5b853561333581614409565b9450602086013561334581614409565b935060408601356001600160401b038082111561336157600080fd5b61336d89838a01613187565b9450606088013591508082111561338357600080fd5b61338f89838a01613187565b935060808801359150808211156133a557600080fd5b506133b288828901613246565b9150509295509295909350565b600080600080600060a086880312156133d757600080fd5b85356133e281614409565b945060208601356133f281614409565b9350604086013592506060860135915060808601356001600160401b0381111561341b57600080fd5b6133b288828901613246565b6000806040838503121561343a57600080fd5b823561344581614409565b91506020830135801515811461330757600080fd5b600080600080600080600080600060e08a8c03121561347857600080fd5b893561348381614409565b985060208a013561349381614434565b975060408a01356001600160401b03808211156134af57600080fd5b6134bb8d838e016131fe565b909950975060608c0135965060808c013591506134d782614409565b90945060a08b0135906134e982614409565b90935060c08b013590808211156134ff57600080fd5b5061350c8c828d016131fe565b915080935050809150509295985092959850929598565b6000806040838503121561353657600080fd5b823561354181614409565b946020939093013593505050565b6000806040838503121561356257600080fd5b82356001600160401b038082111561357957600080fd5b818501915085601f83011261358d57600080fd5b8135602061359a82614212565b6040516135a782826142db565b8381528281019150858301600585901b870184018b10156135c757600080fd5b600096505b848710156135f35780356135df81614409565b8352600196909601959183019183016135cc565b509650508601359250508082111561360a57600080fd5b5061361785828601613187565b9150509250929050565b6000806040838503121561363457600080fd5b82356001600160401b038082111561364b57600080fd5b61365786838701613187565b9350602085013591508082111561360a57600080fd5b60006020828403121561367f57600080fd5b81356132668161441e565b60006020828403121561369c57600080fd5b81516132668161441e565b6000602082840312156136b957600080fd5b81516001600160401b038111156136cf57600080fd5b6136db8482850161326d565b949350505050565b600080604083850312156136f657600080fd5b82516001600160401b0381111561370c57600080fd5b6137188582860161326d565b925050602083015190509250929050565b60006020828403121561373b57600080fd5b81356001600160401b0381111561375157600080fd5b8201601f8101841361376257600080fd5b6136db84823560208401613141565b60006020828403121561378357600080fd5b813561326681614434565b6000602082840312156137a057600080fd5b815161326681614434565b6000806000604084860312156137c057600080fd5b83356137cb81614434565b925060208401356001600160401b038111156137e657600080fd5b6137f2868287016131fe565b9497909650939450505050565b60008060008060008060008060c0898b03121561381b57600080fd5b883561382681614434565b975060208901356001600160401b038082111561384257600080fd5b61384e8c838d016131fe565b909950975060408b0135965060608b0135915061386a82614409565b90945060808a01359061387c82614409565b90935060a08a0135908082111561389257600080fd5b5061389f8b828c016131fe565b999c989b5096995094979396929594505050565b6000806000606084860312156138c857600080fd5b83356138d381614434565b925060208401356001600160401b038111156138ee57600080fd5b6138fa86828701613246565b925050604084013590509250925092565b60008060008060006080868803121561392357600080fd5b853561392e81614434565b945060208601356001600160401b038082111561394a57600080fd5b61395689838a01613246565b95506040880135915061396882614444565b9093506060870135908082111561397e57600080fd5b5061398b888289016131fe565b969995985093965092949392505050565b600080600080608085870312156139b257600080fd5b84356139bd81614434565b935060208501356001600160401b03808211156139d957600080fd5b6139e588838901613246565b9450604087013591506139f782614444565b90925060608601359080821115613a0d57600080fd5b50613a1a87828801613246565b91505092959194509250565b60008060008060808587031215613a3c57600080fd5b8435613a4781614434565b93506020850135613a5781614434565b92506040850135613a6781614409565b9396929550929360600135925050565b600080600080600060808688031215613a8f57600080fd5b8535613a9a81614434565b94506020860135613aaa81614434565b93506040860135925060608601356001600160401b03811115613acc57600080fd5b61398b888289016131fe565b600060208284031215613aea57600080fd5b5035919050565b60008060408385031215613b0457600080fd5b50508035926020909101359150565b600060208284031215613b2557600080fd5b815161326681614444565b600081518084526020808501945080840160005b83811015613b6057815187529582019590820190600101613b44565b509495945050505050565b81835281816020850137506000828201602090810191909152601f909101601f19169091010190565b60008151808452613bac816020860160208601614274565b601f01601f19169290920160200192915050565b8183823760009101908152919050565b60008251613be2818460208701614274565b9190910192915050565b6000808354613bfa816142a0565b60018281168015613c125760018114613c2357613c52565b60ff19841687528287019450613c52565b8760005260208060002060005b85811015613c495781548a820152908401908201613c30565b50505082870194505b50929695505050505050565b6001600160a01b0386811682528516602082015260a060408201819052600090613c8a90830186613b30565b8281036060840152613c9c8186613b30565b90508281036080840152613cb08185613b94565b98975050505050505050565b6001600160a01b03868116825285166020820152604081018490526060810183905260a060808201819052600090613cf690830184613b94565b979650505050505050565b6020815260006132666020830184613b30565b604081526000613d276040830185613b30565b8281036020840152611caf8185613b30565b6020815260006132666020830184613b94565b604081526000613d5f6040830185613b94565b90508260208301529392505050565b60208082526028908201527f455243313135353a204552433131353552656365697665722072656a656374656040820152676420746f6b656e7360c01b606082015260800190565b60208082526029908201527f455243313135353a2063616c6c6572206973206e6f74206f776e6572206e6f7260408201526808185c1c1c9bdd995960ba1b606082015260800190565b60208082526025908201527f455243313135353a207472616e7366657220746f20746865207a65726f206164604082015264647265737360d81b606082015260800190565b6020808252602f908201527f54686973206973206e6f7420616c6c6f7765642065786365707420666f72206360408201526e1c99585d1bdc881bdc881859d95b9d608a1b606082015260800190565b6020808252602a908201527f455243313135353a20696e73756666696369656e742062616c616e636520666f60408201526939103a3930b739b332b960b11b606082015260800190565b6020808252818101527f4f776e61626c653a2063616c6c6572206973206e6f7420746865206f776e6572604082015260600190565b60208082526021908201527f546869732061646472657373206973206e6f742061757468656e7469636174656040820152601960fa1b606082015260800190565b60208082526024908201527f746f6b656e4964206973206e6f7420616c6c6f776564206f6e207468697320636040820152633430b4b760e11b606082015260800190565b60208082526029908201527f43616e2774206275792073616d6520736f6e6773206d6f7265207468616e20746040820152681ddbc81c9958dbdc9960ba1b606082015260800190565b60208082526028908201527f455243313135353a2069647320616e6420616d6f756e7473206c656e677468206040820152670dad2e6dac2e8c6d60c31b606082015260800190565b60208082526021908201527f455243313135353a206d696e7420746f20746865207a65726f206164647265736040820152607360f81b606082015260800190565b61ffff84168152604060208201526000611caf604083018486613b6b565b61ffff861681526080602082015260006140a46080830187613b94565b6001600160401b03861660408401528281036060840152613cb0818587613b6b565b61ffff851681526080602082015260006140e36080830186613b94565b6001600160401b03851660408401528281036060840152613cf68185613b94565b61ffff871681526000602060c08184015260008854614122816142a0565b8060c087015260e0600180841660008114614144576001811461415957614187565b60ff1985168984015261010089019550614187565b8d6000528660002060005b8581101561417f5781548b8201860152908301908801614164565b8a0184019650505b5050505050838103604085015261419e8189613b94565b9150506141b660608401876001600160a01b03169052565b6001600160a01b038516608084015282810360a08401526141d78185613b94565b9998505050505050505050565b600061ffff808816835280871660208401525084604083015260806060830152613cf6608083018486613b6b565b60006001600160401b0382111561422b5761422b61434e565b5060051b60200190565b60006001600160401b0382111561424e5761424e61434e565b50601f01601f191660200190565b6000821982111561426f5761426f614322565b500190565b60005b8381101561428f578181015183820152602001614277565b8381111561086b5750506000910152565b600181811c908216806142b457607f821691505b602082108114156142d557634e487b7160e01b600052602260045260246000fd5b50919050565b601f8201601f191681016001600160401b03811182821017156143005761430061434e565b6040525050565b600060001982141561431b5761431b614322565b5060010190565b634e487b7160e01b600052601160045260246000fd5b634e487b7160e01b600052603260045260246000fd5b634e487b7160e01b600052604160045260246000fd5b600060033d111561437d5760046000803e5060005160e01c5b90565b600060443d101561438e5790565b6040516003193d81016004833e81513d6001600160401b0381602484011181841117156143bd57505050505090565b82850191508151818111156143d55750505050505090565b843d87010160208285010111156143ef5750505050505090565b6143fe602082860101876142db565b509095945050505050565b6001600160a01b038116811461130257600080fd5b6001600160e01b03198116811461130257600080fd5b61ffff8116811461130257600080fd5b6001600160401b038116811461130257600080fdfec3d58168c5ae7397731d063d5bbf3d657854427343f4c083240f7aacaa2d0f62a26469706673582212204b0d272924fa01e0ab010c2d54e93e0519995cf8aa0c5c86b18cf96d5670371964736f6c63430008070033697066733a2f2f516d5a557a5a38384858385553426b6147436f7778567a61736669345374734571733554757857595763695537782f6d657461646174612f7b69647d2e6a736f6e",
  "linkReferences": {},
  "deployedLinkReferences": {}
}