{
  "_format": "hh-sol-artifact-1",
  "contractName": "MusicNFT",
  "sourceName": "contracts/MusicNFT.sol",
  "abi": [
    {
      "inputs": [
        {
          "internalType": "address",
          "name": "_lzEndpoint",
          "type": "address"
        },
        {
          "internalType": "uint256",
          "name": "_minMintId",
          "type": "uint256"
        },
        {
          "internalType": "uint256",
          "name": "_maxMintId",
          "type": "uint256"
        }
      ],
      "stateMutability": "nonpayable",
      "type": "constructor"
    },
    {
      "anonymous": false,
      "inputs": [
        {
          "indexed": true,
          "internalType": "address",
          "name": "account",
          "type": "address"
        },
        {
          "indexed": true,
          "internalType": "address",
          "name": "operator",
          "type": "address"
        },
        {
          "indexed": false,
          "internalType": "bool",
          "name": "approved",
          "type": "bool"
        }
      ],
      "name": "ApprovalForAll",
      "type": "event"
    },
    {
      "anonymous": false,
      "inputs": [
        {
          "indexed": false,
          "internalType": "uint16",
          "name": "_srcChainId",
          "type": "uint16"
        },
        {
          "indexed": false,
          "internalType": "bytes",
          "name": "_srcAddress",
          "type": "bytes"
        },
        {
          "indexed": false,
          "internalType": "uint64",
          "name": "_nonce",
          "type": "uint64"
        },
        {
          "indexed": false,
          "internalType": "bytes",
          "name": "_payload",
          "type": "bytes"
        }
      ],
      "name": "MessageFailed",
      "type": "event"
    },
    {
      "anonymous": false,
      "inputs": [
        {
          "indexed": false,
          "internalType": "bool",
          "name": "_onsale",
          "type": "bool"
        }
      ],
      "name": "NowOnSale",
      "type": "event"
    },
    {
      "anonymous": false,
      "inputs": [
        {
          "indexed": true,
          "internalType": "address",
          "name": "previousOwner",
          "type": "address"
        },
        {
          "indexed": true,
          "internalType": "address",
          "name": "newOwner",
          "type": "address"
        }
      ],
      "name": "OwnershipTransferred",
      "type": "event"
    },
    {
      "anonymous": false,
      "inputs": [
        {
          "indexed": false,
          "internalType": "uint16",
          "name": "_srcChainId",
          "type": "uint16"
        },
        {
          "indexed": false,
          "internalType": "address",
          "name": "_toAddress",
          "type": "address"
        },
        {
          "indexed": false,
          "internalType": "uint256[]",
          "name": "_tokenIds",
          "type": "uint256[]"
        },
        {
          "indexed": false,
          "internalType": "uint256[]",
          "name": "_amounts",
          "type": "uint256[]"
        },
        {
          "indexed": false,
          "internalType": "uint64",
          "name": "_nonce",
          "type": "uint64"
        }
      ],
      "name": "ReceiveBatchFromChain",
      "type": "event"
    },
    {
      "anonymous": false,
      "inputs": [
        {
          "indexed": false,
          "internalType": "uint16",
          "name": "_srcChainId",
          "type": "uint16"
        },
        {
          "indexed": false,
          "internalType": "address",
          "name": "_toAddress",
          "type": "address"
        },
        {
          "indexed": false,
          "internalType": "uint256",
          "name": "_tokenId",
          "type": "uint256"
        },
        {
          "indexed": false,
          "internalType": "uint256",
          "name": "_amount",
          "type": "uint256"
        },
        {
          "indexed": false,
          "internalType": "uint64",
          "name": "_nonce",
          "type": "uint64"
        }
      ],
      "name": "ReceiveFromChain",
      "type": "event"
    },
    {
      "anonymous": false,
      "inputs": [
        {
          "indexed": true,
          "internalType": "address",
          "name": "_sender",
          "type": "address"
        },
        {
          "indexed": true,
          "internalType": "uint16",
          "name": "_dstChainId",
          "type": "uint16"
        },
        {
          "indexed": true,
          "internalType": "bytes",
          "name": "_toAddress",
          "type": "bytes"
        },
        {
          "indexed": false,
          "internalType": "uint256[]",
          "name": "_tokenIds",
          "type": "uint256[]"
        },
        {
          "indexed": false,
          "internalType": "uint256[]",
          "name": "_amounts",
          "type": "uint256[]"
        },
        {
          "indexed": false,
          "internalType": "uint64",
          "name": "_nonce",
          "type": "uint64"
        }
      ],
      "name": "SendBatchToChain",
      "type": "event"
    },
    {
      "anonymous": false,
      "inputs": [
        {
          "indexed": true,
          "internalType": "address",
          "name": "_sender",
          "type": "address"
        },
        {
          "indexed": true,
          "internalType": "uint16",
          "name": "_dstChainId",
          "type": "uint16"
        },
        {
          "indexed": true,
          "internalType": "bytes",
          "name": "_toAddress",
          "type": "bytes"
        },
        {
          "indexed": false,
          "internalType": "uint256",
          "name": "_tokenId",
          "type": "uint256"
        },
        {
          "indexed": false,
          "internalType": "uint256",
          "name": "_amount",
          "type": "uint256"
        },
        {
          "indexed": false,
          "internalType": "uint64",
          "name": "_nonce",
          "type": "uint64"
        }
      ],
      "name": "SendToChain",
      "type": "event"
    },
    {
      "anonymous": false,
      "inputs": [
        {
          "indexed": false,
          "internalType": "uint16",
          "name": "_srcChainId",
          "type": "uint16"
        },
        {
          "indexed": false,
          "internalType": "bytes",
          "name": "_srcAddress",
          "type": "bytes"
        }
      ],
      "name": "SetTrustedRemote",
      "type": "event"
    },
    {
      "anonymous": false,
      "inputs": [
        {
          "indexed": true,
          "internalType": "address",
          "name": "_from",
          "type": "address"
        },
        {
          "indexed": true,
          "internalType": "address",
          "name": "_to",
          "type": "address"
        },
        {
          "indexed": false,
          "internalType": "uint256",
          "name": "_id",
          "type": "uint256"
        },
        {
          "indexed": false,
          "internalType": "uint256",
          "name": "_amount",
          "type": "uint256"
        }
      ],
      "name": "SoldForGiveaway",
      "type": "event"
    },
    {
      "anonymous": false,
      "inputs": [
        {
          "indexed": true,
          "internalType": "address",
          "name": "_from",
          "type": "address"
        },
        {
          "indexed": true,
          "internalType": "address",
          "name": "_to",
          "type": "address"
        },
        {
          "indexed": false,
          "internalType": "uint256",
          "name": "_id",
          "type": "uint256"
        },
        {
          "indexed": false,
          "internalType": "uint256",
          "name": "_amount",
          "type": "uint256"
        }
      ],
      "name": "SoldForPresale",
      "type": "event"
    },
    {
      "anonymous": false,
      "inputs": [
        {
          "indexed": true,
          "internalType": "address",
          "name": "_from",
          "type": "address"
        },
        {
          "indexed": true,
          "internalType": "address",
          "name": "_to",
          "type": "address"
        },
        {
          "indexed": false,
          "internalType": "uint256",
          "name": "_id",
          "type": "uint256"
        },
        {
          "indexed": false,
          "internalType": "uint256",
          "name": "_amount",
          "type": "uint256"
        }
      ],
      "name": "SoldForPublicSale",
      "type": "event"
    },
    {
      "anonymous": false,
      "inputs": [
        {
          "indexed": true,
          "internalType": "address",
          "name": "operator",
          "type": "address"
        },
        {
          "indexed": true,
          "internalType": "address",
          "name": "from",
          "type": "address"
        },
        {
          "indexed": true,
          "internalType": "address",
          "name": "to",
          "type": "address"
        },
        {
          "indexed": false,
          "internalType": "uint256[]",
          "name": "ids",
          "type": "uint256[]"
        },
        {
          "indexed": false,
          "internalType": "uint256[]",
          "name": "values",
          "type": "uint256[]"
        }
      ],
      "name": "TransferBatch",
      "type": "event"
    },
    {
      "anonymous": false,
      "inputs": [
        {
          "indexed": true,
          "internalType": "address",
          "name": "operator",
          "type": "address"
        },
        {
          "indexed": true,
          "internalType": "address",
          "name": "from",
          "type": "address"
        },
        {
          "indexed": true,
          "internalType": "address",
          "name": "to",
          "type": "address"
        },
        {
          "indexed": false,
          "internalType": "uint256",
          "name": "id",
          "type": "uint256"
        },
        {
          "indexed": false,
          "internalType": "uint256",
          "name": "value",
          "type": "uint256"
        }
      ],
      "name": "TransferSingle",
      "type": "event"
    },
    {
      "anonymous": false,
      "inputs": [
        {
          "indexed": false,
          "internalType": "string",
          "name": "value",
          "type": "string"
        },
        {
          "indexed": true,
          "internalType": "uint256",
          "name": "id",
          "type": "uint256"
        }
      ],
      "name": "URI",
      "type": "event"
    },
    {
      "inputs": [
        {
          "internalType": "string",
          "name": "_EMGuri",
          "type": "string"
        }
      ],
      "name": "EMGreveal",
      "outputs": [],
      "stateMutability": "nonpayable",
      "type": "function"
    },
    {
      "inputs": [
        {
          "internalType": "address",
          "name": "allowAddr",
          "type": "address"
        }
      ],
      "name": "addAllowlist",
      "outputs": [],
      "stateMutability": "nonpayable",
      "type": "function"
    },
    {
      "inputs": [
        {
          "internalType": "address",
          "name": "account",
          "type": "address"
        },
        {
          "internalType": "uint256",
          "name": "id",
          "type": "uint256"
        }
      ],
      "name": "balanceOf",
      "outputs": [
        {
          "internalType": "uint256",
          "name": "",
          "type": "uint256"
        }
      ],
      "stateMutability": "view",
      "type": "function"
    },
    {
      "inputs": [
        {
          "internalType": "address[]",
          "name": "accounts",
          "type": "address[]"
        },
        {
          "internalType": "uint256[]",
          "name": "ids",
          "type": "uint256[]"
        }
      ],
      "name": "balanceOfBatch",
      "outputs": [
        {
          "internalType": "uint256[]",
          "name": "",
          "type": "uint256[]"
        }
      ],
      "stateMutability": "view",
      "type": "function"
    },
    {
      "inputs": [
        {
          "internalType": "uint16",
          "name": "_dstChainId",
          "type": "uint16"
        },
        {
          "internalType": "bytes",
          "name": "",
          "type": "bytes"
        },
        {
          "internalType": "uint256[]",
          "name": "_tokenIds",
          "type": "uint256[]"
        },
        {
          "internalType": "uint256[]",
          "name": "_amounts",
          "type": "uint256[]"
        },
        {
          "internalType": "bool",
          "name": "_useZro",
          "type": "bool"
        },
        {
          "internalType": "bytes",
          "name": "_adapterParams",
          "type": "bytes"
        }
      ],
      "name": "estimateSendBatchFee",
      "outputs": [
        {
          "internalType": "uint256",
          "name": "nativeFee",
          "type": "uint256"
        },
        {
          "internalType": "uint256",
          "name": "zroFee",
          "type": "uint256"
        }
      ],
      "stateMutability": "view",
      "type": "function"
    },
    {
      "inputs": [
        {
          "internalType": "uint16",
          "name": "_dstChainId",
          "type": "uint16"
        },
        {
          "internalType": "bytes",
          "name": "",
          "type": "bytes"
        },
        {
          "internalType": "uint256",
          "name": "",
          "type": "uint256"
        },
        {
          "internalType": "uint256",
          "name": "",
          "type": "uint256"
        },
        {
          "internalType": "bool",
          "name": "_useZro",
          "type": "bool"
        },
        {
          "internalType": "bytes",
          "name": "_adapterParams",
          "type": "bytes"
        }
      ],
      "name": "estimateSendFee",
      "outputs": [
        {
          "internalType": "uint256",
          "name": "nativeFee",
          "type": "uint256"
        },
        {
          "internalType": "uint256",
          "name": "zroFee",
          "type": "uint256"
        }
      ],
      "stateMutability": "view",
      "type": "function"
    },
    {
      "inputs": [
        {
          "internalType": "uint16",
          "name": "",
          "type": "uint16"
        },
        {
          "internalType": "bytes",
          "name": "",
          "type": "bytes"
        },
        {
          "internalType": "uint256",
          "name": "",
          "type": "uint256"
        }
      ],
      "name": "failedMessages",
      "outputs": [
        {
          "internalType": "bytes32",
          "name": "",
          "type": "bytes32"
        }
      ],
      "stateMutability": "view",
      "type": "function"
    },
    {
      "inputs": [
        {
          "internalType": "uint16",
          "name": "_srcChainId",
          "type": "uint16"
        },
        {
          "internalType": "bytes",
          "name": "_srcAddress",
          "type": "bytes"
        }
      ],
      "name": "forceResumeReceive",
      "outputs": [],
      "stateMutability": "nonpayable",
      "type": "function"
    },
    {
      "inputs": [
        {
          "internalType": "uint16",
          "name": "",
          "type": "uint16"
        },
        {
          "internalType": "uint16",
          "name": "_chainId",
          "type": "uint16"
        },
        {
          "internalType": "address",
          "name": "",
          "type": "address"
        },
        {
          "internalType": "uint256",
          "name": "_configType",
          "type": "uint256"
        }
      ],
      "name": "getConfig",
      "outputs": [
        {
          "internalType": "bytes",
          "name": "",
          "type": "bytes"
        }
      ],
      "stateMutability": "view",
      "type": "function"
    },
    {
      "inputs": [],
      "name": "getLzEndpoint",
      "outputs": [
        {
          "internalType": "address",
          "name": "",
          "type": "address"
        }
      ],
      "stateMutability": "view",
      "type": "function"
    },
    {
      "inputs": [
        {
          "internalType": "uint16",
          "name": "_chainId",
          "type": "uint16"
        }
      ],
      "name": "getTrustedRemote",
      "outputs": [
        {
          "internalType": "bytes",
          "name": "",
          "type": "bytes"
        }
      ],
      "stateMutability": "view",
      "type": "function"
    },
    {
      "inputs": [
        {
          "internalType": "address",
          "name": "account",
          "type": "address"
        },
        {
          "internalType": "address",
          "name": "operator",
          "type": "address"
        }
      ],
      "name": "isApprovedForAll",
      "outputs": [
        {
          "internalType": "bool",
          "name": "",
          "type": "bool"
        }
      ],
      "stateMutability": "view",
      "type": "function"
    },
    {
      "inputs": [
        {
          "internalType": "uint16",
          "name": "_srcChainId",
          "type": "uint16"
        },
        {
          "internalType": "bytes",
          "name": "_srcAddress",
          "type": "bytes"
        }
      ],
      "name": "isTrustedRemote",
      "outputs": [
        {
          "internalType": "bool",
          "name": "",
          "type": "bool"
        }
      ],
      "stateMutability": "view",
      "type": "function"
    },
    {
      "inputs": [
        {
          "internalType": "address",
          "name": "agentAddr",
          "type": "address"
        }
      ],
      "name": "license",
      "outputs": [],
      "stateMutability": "nonpayable",
      "type": "function"
    },
    {
      "inputs": [
        {
          "internalType": "uint16",
          "name": "_srcChainId",
          "type": "uint16"
        },
        {
          "internalType": "bytes",
          "name": "_srcAddress",
          "type": "bytes"
        },
        {
          "internalType": "uint64",
          "name": "_nonce",
          "type": "uint64"
        },
        {
          "internalType": "bytes",
          "name": "_payload",
          "type": "bytes"
        }
      ],
      "name": "lzReceive",
      "outputs": [],
      "stateMutability": "nonpayable",
      "type": "function"
    },
    {
      "inputs": [],
      "name": "maxMintId",
      "outputs": [
        {
          "internalType": "uint256",
          "name": "",
          "type": "uint256"
        }
      ],
      "stateMutability": "view",
      "type": "function"
    },
    {
      "inputs": [],
      "name": "minMintId",
      "outputs": [
        {
          "internalType": "uint256",
          "name": "",
          "type": "uint256"
        }
      ],
      "stateMutability": "view",
      "type": "function"
    },
    {
      "inputs": [
        {
          "internalType": "uint256",
          "name": "_tokenId",
          "type": "uint256"
        },
        {
          "internalType": "uint256",
          "name": "_amount",
          "type": "uint256"
        }
      ],
      "name": "mint",
      "outputs": [],
      "stateMutability": "nonpayable",
      "type": "function"
    },
    {
      "inputs": [
        {
          "internalType": "uint256[]",
          "name": "_tokenIds",
          "type": "uint256[]"
        },
        {
          "internalType": "uint256[]",
          "name": "_amounts",
          "type": "uint256[]"
        }
      ],
      "name": "mintBatch",
      "outputs": [],
      "stateMutability": "nonpayable",
      "type": "function"
    },
    {
      "inputs": [],
      "name": "name",
      "outputs": [
        {
          "internalType": "string",
          "name": "",
          "type": "string"
        }
      ],
      "stateMutability": "view",
      "type": "function"
    },
    {
      "inputs": [
        {
          "internalType": "uint16",
          "name": "_srcChainId",
          "type": "uint16"
        },
        {
          "internalType": "bytes",
          "name": "_srcAddress",
          "type": "bytes"
        },
        {
          "internalType": "uint64",
          "name": "_nonce",
          "type": "uint64"
        },
        {
          "internalType": "bytes",
          "name": "_payload",
          "type": "bytes"
        }
      ],
      "name": "nonblockingLzReceive",
      "outputs": [],
      "stateMutability": "nonpayable",
      "type": "function"
    },
    {
      "inputs": [],
      "name": "owner",
      "outputs": [
        {
          "internalType": "address",
          "name": "",
          "type": "address"
        }
      ],
      "stateMutability": "view",
      "type": "function"
    },
    {
      "inputs": [],
      "name": "releasedLimitations",
      "outputs": [],
      "stateMutability": "nonpayable",
      "type": "function"
    },
    {
      "inputs": [],
      "name": "renounceOwnership",
      "outputs": [],
      "stateMutability": "nonpayable",
      "type": "function"
    },
    {
      "inputs": [
        {
          "internalType": "uint16",
          "name": "_srcChainId",
          "type": "uint16"
        },
        {
          "internalType": "bytes",
          "name": "_srcAddress",
          "type": "bytes"
        },
        {
          "internalType": "uint64",
          "name": "_nonce",
          "type": "uint64"
        },
        {
          "internalType": "bytes",
          "name": "_payload",
          "type": "bytes"
        }
      ],
      "name": "retryMessage",
      "outputs": [],
      "stateMutability": "payable",
      "type": "function"
    },
    {
      "inputs": [],
      "name": "reveal",
      "outputs": [],
      "stateMutability": "nonpayable",
      "type": "function"
    },
    {
      "inputs": [
        {
          "internalType": "address",
          "name": "from",
          "type": "address"
        },
        {
          "internalType": "address",
          "name": "to",
          "type": "address"
        },
        {
          "internalType": "uint256[]",
          "name": "ids",
          "type": "uint256[]"
        },
        {
          "internalType": "uint256[]",
          "name": "amounts",
          "type": "uint256[]"
        },
        {
          "internalType": "bytes",
          "name": "data",
          "type": "bytes"
        }
      ],
      "name": "safeBatchTransferFrom",
      "outputs": [],
      "stateMutability": "nonpayable",
      "type": "function"
    },
    {
      "inputs": [
        {
          "internalType": "address",
          "name": "from",
          "type": "address"
        },
        {
          "internalType": "address",
          "name": "to",
          "type": "address"
        },
        {
          "internalType": "uint256",
          "name": "id",
          "type": "uint256"
        },
        {
          "internalType": "uint256",
          "name": "amount",
          "type": "uint256"
        },
        {
          "internalType": "bytes",
          "name": "data",
          "type": "bytes"
        }
      ],
      "name": "safeTransferFrom",
      "outputs": [],
      "stateMutability": "nonpayable",
      "type": "function"
    },
    {
      "inputs": [
        {
          "internalType": "uint16",
          "name": "_dstChainId",
          "type": "uint16"
        },
        {
          "internalType": "bytes",
          "name": "_toAddress",
          "type": "bytes"
        },
        {
          "internalType": "uint256",
          "name": "_tokenId",
          "type": "uint256"
        },
        {
          "internalType": "uint256",
          "name": "_amount",
          "type": "uint256"
        },
        {
          "internalType": "address payable",
          "name": "_refundAddress",
          "type": "address"
        },
        {
          "internalType": "address",
          "name": "_zroPaymentAddress",
          "type": "address"
        },
        {
          "internalType": "bytes",
          "name": "_adapterParam",
          "type": "bytes"
        }
      ],
      "name": "send",
      "outputs": [],
      "stateMutability": "payable",
      "type": "function"
    },
    {
      "inputs": [
        {
          "internalType": "uint16",
          "name": "_dstChainId",
          "type": "uint16"
        },
        {
          "internalType": "bytes",
          "name": "_toAddress",
          "type": "bytes"
        },
        {
          "internalType": "uint256[]",
          "name": "_tokenIds",
          "type": "uint256[]"
        },
        {
          "internalType": "uint256[]",
          "name": "_amounts",
          "type": "uint256[]"
        },
        {
          "internalType": "address payable",
          "name": "_refundAddress",
          "type": "address"
        },
        {
          "internalType": "address",
          "name": "_zroPaymentAddress",
          "type": "address"
        },
        {
          "internalType": "bytes",
          "name": "_adapterParam",
          "type": "bytes"
        }
      ],
      "name": "sendBatch",
      "outputs": [],
      "stateMutability": "payable",
      "type": "function"
    },
    {
      "inputs": [
        {
          "internalType": "address",
          "name": "_from",
          "type": "address"
        },
        {
          "internalType": "uint16",
          "name": "_dstChainId",
          "type": "uint16"
        },
        {
          "internalType": "bytes",
          "name": "_toAddress",
          "type": "bytes"
        },
        {
          "internalType": "uint256[]",
          "name": "_tokenIds",
          "type": "uint256[]"
        },
        {
          "internalType": "uint256[]",
          "name": "_amounts",
          "type": "uint256[]"
        },
        {
          "internalType": "address payable",
          "name": "_refundAddress",
          "type": "address"
        },
        {
          "internalType": "address",
          "name": "_zroPaymentAddress",
          "type": "address"
        },
        {
          "internalType": "bytes",
          "name": "_adapterParam",
          "type": "bytes"
        }
      ],
      "name": "sendBatchFrom",
      "outputs": [],
      "stateMutability": "payable",
      "type": "function"
    },
    {
      "inputs": [
        {
          "internalType": "address",
          "name": "_from",
          "type": "address"
        },
        {
          "internalType": "uint16",
          "name": "_dstChainId",
          "type": "uint16"
        },
        {
          "internalType": "bytes",
          "name": "_toAddress",
          "type": "bytes"
        },
        {
          "internalType": "uint256",
          "name": "_tokenId",
          "type": "uint256"
        },
        {
          "internalType": "uint256",
          "name": "_amount",
          "type": "uint256"
        },
        {
          "internalType": "address payable",
          "name": "_refundAddress",
          "type": "address"
        },
        {
          "internalType": "address",
          "name": "_zroPaymentAddress",
          "type": "address"
        },
        {
          "internalType": "bytes",
          "name": "_adapterParam",
          "type": "bytes"
        }
      ],
      "name": "sendFrom",
      "outputs": [],
      "stateMutability": "payable",
      "type": "function"
    },
    {
      "inputs": [
        {
          "internalType": "address",
          "name": "operator",
          "type": "address"
        },
        {
          "internalType": "bool",
          "name": "approved",
          "type": "bool"
        }
      ],
      "name": "setApprovalForAll",
      "outputs": [],
      "stateMutability": "nonpayable",
      "type": "function"
    },
    {
      "inputs": [
        {
          "internalType": "uint16",
          "name": "_version",
          "type": "uint16"
        },
        {
          "internalType": "uint16",
          "name": "_chainId",
          "type": "uint16"
        },
        {
          "internalType": "uint256",
          "name": "_configType",
          "type": "uint256"
        },
        {
          "internalType": "bytes",
          "name": "_config",
          "type": "bytes"
        }
      ],
      "name": "setConfig",
      "outputs": [],
      "stateMutability": "nonpayable",
      "type": "function"
    },
    {
      "inputs": [
        {
          "internalType": "uint16",
          "name": "_version",
          "type": "uint16"
        }
      ],
      "name": "setReceiveVersion",
      "outputs": [],
      "stateMutability": "nonpayable",
      "type": "function"
    },
    {
      "inputs": [
        {
          "internalType": "uint16",
          "name": "_version",
          "type": "uint16"
        }
      ],
      "name": "setSendVersion",
      "outputs": [],
      "stateMutability": "nonpayable",
      "type": "function"
    },
    {
      "inputs": [
        {
          "internalType": "uint16",
          "name": "_srcChainId",
          "type": "uint16"
        },
        {
          "internalType": "bytes",
          "name": "_srcAddress",
          "type": "bytes"
        }
      ],
      "name": "setTrustedRemote",
      "outputs": [],
      "stateMutability": "nonpayable",
      "type": "function"
    },
    {
      "inputs": [],
      "name": "startSale",
      "outputs": [],
      "stateMutability": "nonpayable",
      "type": "function"
    },
    {
      "inputs": [
        {
          "internalType": "bytes4",
          "name": "interfaceId",
          "type": "bytes4"
        }
      ],
      "name": "supportsInterface",
      "outputs": [
        {
          "internalType": "bool",
          "name": "",
          "type": "bool"
        }
      ],
      "stateMutability": "view",
      "type": "function"
    },
    {
      "inputs": [],
      "name": "suspendSale",
      "outputs": [],
      "stateMutability": "nonpayable",
      "type": "function"
    },
    {
      "inputs": [],
      "name": "symbol",
      "outputs": [
        {
          "internalType": "string",
          "name": "",
          "type": "string"
        }
      ],
      "stateMutability": "view",
      "type": "function"
    },
    {
      "inputs": [],
      "name": "totalSupply",
      "outputs": [
        {
          "internalType": "uint256",
          "name": "",
          "type": "uint256"
        }
      ],
      "stateMutability": "view",
      "type": "function"
    },
    {
      "inputs": [
        {
          "internalType": "address",
          "name": "newOwner",
          "type": "address"
        }
      ],
      "name": "transferOwnership",
      "outputs": [],
      "stateMutability": "nonpayable",
      "type": "function"
    },
    {
      "inputs": [
        {
          "internalType": "address",
          "name": "agentAddr",
          "type": "address"
        }
      ],
      "name": "unlicense",
      "outputs": [],
      "stateMutability": "nonpayable",
      "type": "function"
    },
    {
      "inputs": [
        {
          "internalType": "uint256",
          "name": "",
          "type": "uint256"
        }
      ],
      "name": "uri",
      "outputs": [
        {
          "internalType": "string",
          "name": "",
          "type": "string"
        }
      ],
      "stateMutability": "view",
      "type": "function"
    }
  ],
  "bytecode": "0x600c805461ffff19169055610120604052604860a0818152906200599a60c03980516200003591600d91602090910190620004ac565b503480156200004357600080fd5b50604051620059e2380380620059e2833981016040819052620000669162000552565b600d8054620000759062000597565b80601f0160208091040260200160405190810160405280929190818152602001828054620000a39062000597565b8015620000f45780601f10620000c857610100808354040283529160200191620000f4565b820191906000526020600020905b815481529060010190602001808311620000d657829003601f168201915b50505050508381818062000117620001116200043f60201b60201c565b62000443565b60601b6001600160601b03191660805250620001338162000493565b5050600f6020525060037f169f97de0d9a84d840042b17d3c6b9638b3d6fd9024c9eb0c7a306a17b49f88f8190557fa74ba3945261e09fde15ba3db55005b205e61eeb4ad811ac0faa2b315bffeead5560027f45f76dafbbad695564362934e24d72eedc57f9fc1a65f39bca62176cc82968288190557f367ccd2d0ac16bf7110a5dffe0801fdc9452a95a1adb7e1a12fe97dd3e9a4edd81905560017f6bda57492eba051cb4a12a1e19df47c9755d78165341d4009b1d09b3f36162048190557fb5a1e7cda73b1608e93d4d50ab796c3d35aa6216cb006a1f920df154d13ff618819055600a7f73dfc495eb54bd6713ffc079b9f5e40f2fecd3793d143759ba0128fbedb402548190557f49a9092dc5c03b26195f6621c97b5cf515cb77afe659e3fe008a73456354eb688190557f3e674ca654b1063e821161bbf601452dd0f1671d575d614ba17ca7f3cdc76039919091557fa13a7a52a9cbb6a90f40d40fbf35f68146be73226e0f48ff16963183fd5684ad8290557f0db0e9d5a07148aa3e0acc10f721b78526b53a3f4f3d07794be76568de7347c582905560147faed549f926a17a28853af2d56b17ad8ad8d799c48d325a734362b810173b772981905560057fe48c37f5ec5b77098fcb2a7935f0925fec1a69796c076c65ed90d9c90ef07dc58190557f61510b1e54e804ee2580bac0a66e3ff0bcf8eecee98d26e41ad5e6195d21ef9f8190557f09567c41c2b819e512ebbfc896a7d795b901b9f15f7637726d97561d5276acb08490557f19a91e2e18c07202ee013c560f8ebffb9b71a05a6a09fdb1d62a413e2117a159939093557f8252d0af7d8ed7c10ea80b7c6f14fb078bd62e077f890e6c18f704b57caaa5fe8290557f765724b689e31218aaf382b54d4ef85ae8209f9da80544d7ed82a51797a64b6d8390557f5f17331c879675a751c0e3884b2f2126ab802511155fffcf04a93b2bacc61e499290925560009190915260097f7c16d5886e618926ff2a48ede610aee33ddc3e26b240b1a3e692dab251ff80af81905592909255905550600680546001600160a01b03191633179055620005d4565b3390565b600080546001600160a01b038381166001600160a01b0319831681178455604051919092169283917f8be0079c531659141344cd1fd0a4f28419497f9722a3daafe3b4186f6b6457e09190a35050565b8051620004a8906005906020840190620004ac565b5050565b828054620004ba9062000597565b90600052602060002090601f016020900481019282620004de576000855562000529565b82601f10620004f957805160ff191683800117855562000529565b8280016001018555821562000529579182015b82811115620005295782518255916020019190600101906200050c565b50620005379291506200053b565b5090565b5b808211156200053757600081556001016200053c565b6000806000606084860312156200056857600080fd5b83516001600160a01b03811681146200058057600080fd5b602085015160409095015190969495509392505050565b600181811c90821680620005ac57607f821691505b60208210811415620005ce57634e487b7160e01b600052602260045260246000fd5b50919050565b60805160601c61535a62000640600039600081816107370152818161083d01528181610afe01528181610c3d01528181610f870152818161149b0152818161176f015281816118df01528181611f90015281816125390152818161278101526135e3015261535a6000f3fe6080604052600436106102705760003560e01c8063715018a61161014f578063b66a0e5d116100c1578063e1d4c8701161007a578063e1d4c8701461075b578063e985e9c514610771578063eb8d72b7146107ba578063f242432a146107da578063f2fde38b146107fa578063f5ecbdbc1461081a57600080fd5b8063b66a0e5d146106a0578063cbed8b9c146106b5578063d1deba1f146106d5578063d351cfdc146106e8578063d6062e4414610708578063dacbcbe21461072857600080fd5b806395d89b411161011357806395d89b41146106005780639d1835db14610615578063a22cb46514610635578063a475b5dd14610655578063ae578cc11461066a578063b25356631461068057600080fd5b8063715018a6146105205780638608e5f8146105355780638da5cb5b1461056a5780638ee749121461059c57806393d88409146105eb57600080fd5b80633d8b38f6116101e85780634e1273f4116101ac5780634e1273f4146104605780635f5e07101461048d5780635f6928e2146104ad57806366ad5c8a146104cd57806369b41f95146104ed5780636f6120a61461050d57600080fd5b80633d8b38f6146103e757806342d65a8d146104075780634ab4e687146104275780634be699cd1461043a5780634db8226a1461044d57600080fd5b80630e89341c1161023a5780630e89341c1461033c57806310ddb1371461035c57806318160ddd1461037c5780631b2ef1ca146103925780631b548e99146103b25780632eb2c2d6146103c757600080fd5b80621d356714610275578062fdd58e1461029757806301ffc9a7146102ca57806306fdde03146102fa57806307e0db171461031c575b600080fd5b34801561028157600080fd5b50610295610290366004614638565b61083a565b005b3480156102a357600080fd5b506102b76102b2366004613f60565b610943565b6040519081526020015b60405180910390f35b3480156102d657600080fd5b506102ea6102e53660046140aa565b6109d7565b60405190151581526020016102c1565b34801561030657600080fd5b5061030f610a29565b6040516102c19190614a78565b34801561032857600080fd5b506102956103373660046141ef565b610abb565b34801561034857600080fd5b5061030f610357366004614774565b610b66565b34801561036857600080fd5b506102956103773660046141ef565b610bfa565b34801561038857600080fd5b506102b7600b5481565b34801561039e57600080fd5b506102956103ad36600461478d565b610c74565b3480156103be57600080fd5b50610295610de2565b3480156103d357600080fd5b506102956103e2366004613c6a565b610e35565b3480156103f357600080fd5b506102ea610402366004614229565b610e7a565b34801561041357600080fd5b50610295610422366004614229565b610f46565b610295610435366004613db4565b610ff7565b610295610448366004614442565b61104c565b61029561045b366004613eb2565b6110a0565b34801561046c57600080fd5b5061048061047b366004613f8c565b6110e9565b6040516102c19190614a01565b34801561049957600080fd5b506102956104a8366004613c14565b611212565b3480156104b957600080fd5b506102956104c8366004613c14565b611277565b3480156104d957600080fd5b506102956104e8366004614638565b6112df565b3480156104f957600080fd5b5061030f6105083660046141ef565b611345565b61029561051b36600461427d565b611367565b34801561052c57600080fd5b506102956113b0565b34801561054157600080fd5b506105556105503660046144de565b6113e6565b604080519283526020830191909152016102c1565b34801561057657600080fd5b506000546001600160a01b03165b6040516001600160a01b0390911681526020016102c1565b3480156105a857600080fd5b506102b76105b736600461454f565b6002602090815260009384526040808520845180860184018051928152908401958401959095209452929052825290205481565b3480156105f757600080fd5b50610295611552565b34801561060c57600080fd5b5061030f6115e9565b34801561062157600080fd5b506102956106303660046141a7565b6115f8565b34801561064157600080fd5b50610295610650366004613d7f565b611648565b34801561066157600080fd5b50610295611657565b34801561067657600080fd5b506102b760095481565b34801561068c57600080fd5b5061055561069b366004614369565b61172e565b3480156106ac57600080fd5b5061029561180f565b3480156106c157600080fd5b506102956106d0366004614713565b61189e565b6102956106e33660046145a7565b61194a565b3480156106f457600080fd5b5061029561070336600461405e565b611ae4565b34801561071457600080fd5b50610295610723366004613c14565b611d68565b34801561073457600080fd5b507f0000000000000000000000000000000000000000000000000000000000000000610584565b34801561076757600080fd5b506102b7600a5481565b34801561077d57600080fd5b506102ea61078c366004613c31565b6001600160a01b03918216600090815260046020908152604080832093909416825291909152205460ff1690565b3480156107c657600080fd5b506102956107d5366004614229565b611dd0565b3480156107e657600080fd5b506102956107f5366004613d17565b611e59565b34801561080657600080fd5b50610295610815366004613c14565b611ee0565b34801561082657600080fd5b5061030f6108353660046146c2565b611f78565b337f00000000000000000000000000000000000000000000000000000000000000006001600160a01b03161461086f57600080fd5b61ffff84166000908152600160205260409020805461088d9061512b565b905083511480156108cc575061ffff84166000908152600160205260409081902090516108ba91906148ac565b60405180910390208380519060200120145b6109315760405162461bcd60e51b815260206004820152602b60248201527f4c7a52656365697665723a20696e76616c696420736f757263652073656e646960448201526a1b99c818dbdb9d1c9858dd60aa1b60648201526084015b60405180910390fd5b61093d848484846120ae565b50505050565b60006001600160a01b0383166109af5760405162461bcd60e51b815260206004820152602b60248201527f455243313135353a2062616c616e636520717565727920666f7220746865207a60448201526a65726f206164647265737360a81b6064820152608401610928565b5060009081526003602090815260408083206001600160a01b03949094168352929052205490565b60006001600160e01b03198216636cdb3d1360e11b1480610a0857506001600160e01b031982166303a24d0760e21b145b80610a2357506301ffc9a760e01b6001600160e01b03198316145b92915050565b606060078054610a389061512b565b80601f0160208091040260200160405190810160405280929190818152602001828054610a649061512b565b8015610ab15780601f10610a8657610100808354040283529160200191610ab1565b820191906000526020600020905b815481529060010190602001808311610a9457829003601f168201915b5050505050905090565b6000546001600160a01b03163314610ae55760405162461bcd60e51b815260040161092890614cc3565b6040516307e0db1760e01b815261ffff821660048201527f00000000000000000000000000000000000000000000000000000000000000006001600160a01b0316906307e0db17906024015b600060405180830381600087803b158015610b4b57600080fd5b505af1158015610b5f573d6000803e3d6000fd5b5050505050565b606060058054610b759061512b565b80601f0160208091040260200160405190810160405280929190818152602001828054610ba19061512b565b8015610bee5780601f10610bc357610100808354040283529160200191610bee565b820191906000526020600020905b815481529060010190602001808311610bd157829003601f168201915b50505050509050919050565b6000546001600160a01b03163314610c245760405162461bcd60e51b815260040161092890614cc3565b6040516310ddb13760e01b815261ffff821660048201527f00000000000000000000000000000000000000000000000000000000000000006001600160a01b0316906310ddb13790602401610b31565b6006546001600160a01b0316331480610c9c57503360009081526011602052604090205460ff165b610cb85760405162461bcd60e51b815260040161092890614be7565b6000828152600f6020908152604080832054600e9092529091205483918391610ce29083906150e7565b1115610d255760405162461bcd60e51b815260206004820152601260248201527113585e081cdd5c1c1b1e481c995858da195960721b6044820152606401610928565b6009548410158015610d395750600a548411155b610d555760405162461bcd60e51b815260040161092890614d39565b6000848152600e602052604081208054859290610d739084906150e7565b9250508190555082600b6000828254610d8c91906150e7565b90915550610dad90503385856040518060200160405280600081525061219f565b60408051858152602081018590523391600091839160008051602061530583398151915291015b60405180910390a450505050565b6006546001600160a01b0316331480610e0a57503360009081526011602052604090205460ff165b610e265760405162461bcd60e51b815260040161092890614be7565b600c805460ff19166001179055565b6001600160a01b038516331480610e515750610e51853361078c565b610e6d5760405162461bcd60e51b815260040161092890614b95565b610b5f8585858585612265565b61ffff831660009081526001602052604081208054829190610e9b9061512b565b80601f0160208091040260200160405190810160405280929190818152602001828054610ec79061512b565b8015610f145780601f10610ee957610100808354040283529160200191610f14565b820191906000526020600020905b815481529060010190602001808311610ef757829003601f168201915b505050505090508383604051610f2b929190614880565b60405180910390208180519060200120149150509392505050565b6000546001600160a01b03163314610f705760405162461bcd60e51b815260040161092890614cc3565b6040516342d65a8d60e01b81526001600160a01b037f000000000000000000000000000000000000000000000000000000000000000016906342d65a8d90610fc090869086908690600401614f01565b600060405180830381600087803b158015610fda57600080fd5b505af1158015610fee573d6000803e3d6000fd5b50505050505050565b6110408a8a8a8a8080601f0160208091040260200160405190810160405280939291908181526020018383808284376000920191909152508c92508b91508a9050898989612400565b50505050505050505050565b611095338a8a8a8080601f0160208091040260200160405190810160405280939291908181526020018383808284376000920191909152508c92508b91508a905089898961262a565b505050505050505050565b6110408a8a8a8a8080601f0160208091040260200160405190810160405280939291908181526020018383808284376000920191909152508c92508b91508a905089898961262a565b6060815183511461114e5760405162461bcd60e51b815260206004820152602960248201527f455243313135353a206163636f756e747320616e6420696473206c656e677468604482015268040dad2e6dac2e8c6d60bb1b6064820152608401610928565b600083516001600160401b03811115611169576111696151d9565b604051908082528060200260200182016040528015611192578160200160208202803683370190505b50905060005b845181101561120a576111dd8582815181106111b6576111b66151c3565b60200260200101518583815181106111d0576111d06151c3565b6020026020010151610943565b8282815181106111ef576111ef6151c3565b602090810291909101015261120381615192565b9050611198565b509392505050565b6006546001600160a01b031633148061123a57503360009081526011602052604090205460ff165b6112565760405162461bcd60e51b815260040161092890614be7565b6001600160a01b03166000908152601160205260409020805460ff19169055565b6006546001600160a01b031633148061129f57503360009081526011602052604090205460ff165b6112bb5760405162461bcd60e51b815260040161092890614be7565b6001600160a01b03166000908152601060205260409020805460ff19166001179055565b3330146113395760405162461bcd60e51b815260206004820152602260248201527f4c7a52656365697665723a2063616c6c6572206d757374206265204272696467604482015261329760f11b6064820152608401610928565b61093d8484848461288e565b61ffff81166000908152600160205260409020805460609190610b759061512b565b611095338a8a8a8080601f0160208091040260200160405190810160405280939291908181526020018383808284376000920191909152508c92508b91508a9050898989612400565b6000546001600160a01b031633146113da5760405162461bcd60e51b815260040161092890614cc3565b6113e46000612a01565b565b60408051600180825281830190925260009182918291602080830190803683375050604080516001808252818301909252929350600092915060208083019080368337019050509050600082600081518110611444576114446151c3565b602002602001018181525050600081600081518110611465576114656151c3565b6020026020010181815250506000808383604051602001611488939291906149c1565b60405160208183030381529060405290507f00000000000000000000000000000000000000000000000000000000000000006001600160a01b03166340a7bb108e30848c8c8c6040518763ffffffff1660e01b81526004016114ef96959493929190614eab565b604080518083038186803b15801561150657600080fd5b505afa15801561151a573d6000803e3d6000fd5b505050506040513d601f19601f8201168201806040525081019061153e91906147af565b945094505050509850989650505050505050565b6006546001600160a01b031633148061157a57503360009081526011602052604090205460ff165b6115965760405162461bcd60e51b815260040161092890614be7565b600c805461ff001916908190556040517f550905f1da7012a5beef71875850a6d1570b14618f64bdcc3cb876b9a231f5a3916115df9161010090910460ff161515815260200190565b60405180910390a1565b606060088054610a389061512b565b6006546001600160a01b031633148061162057503360009081526011602052604090205460ff165b61163c5760405162461bcd60e51b815260040161092890614be7565b61164581612a51565b50565b611653338383612a64565b5050565b6006546001600160a01b031633148061167f57503360009081526011602052604090205460ff165b61169b5760405162461bcd60e51b815260040161092890614be7565b6113e4600d80546116ab9061512b565b80601f01602080910402602001604051908101604052809291908181526020018280546116d79061512b565b80156117245780601f106116f957610100808354040283529160200191611724565b820191906000526020600020905b81548152906001019060200180831161170757829003601f168201915b5050505050612a51565b6000806000808888604051602001611748939291906149c1565b60408051601f198184030181529082905263040a7bb160e41b825291506001600160a01b037f000000000000000000000000000000000000000000000000000000000000000016906340a7bb10906117ae908e90309086908c908c908c90600401614eab565b604080518083038186803b1580156117c557600080fd5b505afa1580156117d9573d6000803e3d6000fd5b505050506040513d601f19601f820116820180604052508101906117fd91906147af565b92509250509850989650505050505050565b6006546001600160a01b031633148061183757503360009081526011602052604090205460ff165b6118535760405162461bcd60e51b815260040161092890614be7565b600c805461ff001916610100908117918290556040517f550905f1da7012a5beef71875850a6d1570b14618f64bdcc3cb876b9a231f5a3926115df92900460ff161515815260200190565b6000546001600160a01b031633146118c85760405162461bcd60e51b815260040161092890614cc3565b6040516332fb62e760e21b81526001600160a01b037f0000000000000000000000000000000000000000000000000000000000000000169063cbed8b9c9061191c908890889088908890889060040161506f565b600060405180830381600087803b15801561193657600080fd5b505af1158015611095573d6000803e3d6000fd5b61ffff8516600090815260026020526040808220905161196b908790614890565b90815260408051602092819003830190206001600160401b038716600090815292529020549050806119df5760405162461bcd60e51b815260206004820152601d60248201527f4c7a52656365697665723a206e6f2073746f726564206d6573736167650000006044820152606401610928565b8083836040516119f0929190614880565b604051809103902014611a455760405162461bcd60e51b815260206004820152601b60248201527f4c7a52656365697665723a20696e76616c6964207061796c6f616400000000006044820152606401610928565b61ffff86166000908152600260205260408082209051611a66908890614890565b9081526040805191829003602090810183206001600160401b038916600090815291522091909155633356ae4560e11b815230906366ad5c8a90611ab69089908990899089908990600401614f1f565b600060405180830381600087803b158015611ad057600080fd5b505af1158015611040573d6000803e3d6000fd5b6006546001600160a01b0316331480611b0c57503360009081526011602052604090205460ff165b611b285760405162461bcd60e51b815260040161092890614be7565b818160005b8251811015611c0957600f6000848381518110611b4c57611b4c6151c3565b6020026020010151815260200190815260200160002054828281518110611b7557611b756151c3565b6020026020010151600e6000868581518110611b9357611b936151c3565b6020026020010151815260200190815260200160002054611bb491906150e7565b1115611bf75760405162461bcd60e51b815260206004820152601260248201527113585e081cdd5c1c1b1e481c995858da195960721b6044820152606401610928565b80611c0181615192565b915050611b2d565b5060005b8451811015611d1757600954858281518110611c2b57611c2b6151c3565b602002602001015110158015611c5c5750600a54858281518110611c5157611c516151c3565b602002602001015111155b611c785760405162461bcd60e51b815260040161092890614d39565b838181518110611c8a57611c8a6151c3565b6020026020010151600e6000878481518110611ca857611ca86151c3565b602002602001015181526020019081526020016000206000828254611ccd91906150e7565b92505081905550838181518110611ce657611ce66151c3565b6020026020010151600b6000828254611cff91906150e7565b90915550819050611d0f81615192565b915050611c0d565b50611d3333858560405180602001604052806000815250612b45565b336001600160a01b03166000336001600160a01b03166000805160206152e58339815191528787604051610dd4929190614a14565b6006546001600160a01b0316331480611d9057503360009081526011602052604090205460ff165b611dac5760405162461bcd60e51b815260040161092890614be7565b6001600160a01b03166000908152601160205260409020805460ff19166001179055565b6000546001600160a01b03163314611dfa5760405162461bcd60e51b815260040161092890614cc3565b61ffff83166000908152600160205260409020611e189083836138f7565b507ffa41487ad5d6728f0b19276fa1eddc16558578f5109fc39d2dc33c3230470dab838383604051611e4c93929190614f01565b60405180910390a1505050565b6001600160a01b038516331480611e755750611e75853361078c565b611ed35760405162461bcd60e51b815260206004820152602960248201527f455243313135353a2063616c6c6572206973206e6f74206f776e6572206e6f7260448201526808185c1c1c9bdd995960ba1b6064820152608401610928565b610b5f8585858585612c8e565b6000546001600160a01b03163314611f0a5760405162461bcd60e51b815260040161092890614cc3565b6001600160a01b038116611f6f5760405162461bcd60e51b815260206004820152602660248201527f4f776e61626c653a206e6577206f776e657220697320746865207a65726f206160448201526564647265737360d01b6064820152608401610928565b61164581612a01565b6040516304b2b47b60e11b81523060048201526060907f00000000000000000000000000000000000000000000000000000000000000006001600160a01b03169063f5ecbdbc90829063096568f69060240160206040518083038186803b158015611fe257600080fd5b505afa158015611ff6573d6000803e3d6000fd5b505050506040513d601f19601f8201168201806040525081019061201a919061420c565b6040516001600160e01b031960e084901b16815261ffff918216600482015290871660248201523060448201526064810185905260840160006040518083038186803b15801561206957600080fd5b505afa15801561207d573d6000803e3d6000fd5b505050506040513d6000823e601f3d908101601f191682016040526120a591908101906140e4565b95945050505050565b604051633356ae4560e11b815230906366ad5c8a906120d7908790879087908790600401614f5e565b600060405180830381600087803b1580156120f157600080fd5b505af1925050508015612102575060015b61093d578080519060200120600260008661ffff1661ffff168152602001908152602001600020846040516121379190614890565b9081526040805191829003602090810183206001600160401b0387166000908152915220919091557fe6f254030bcb01ffd20558175c13fcaed6d1520be7becee4c961b65f79243b0d90612192908690869086908690614f5e565b60405180910390a161093d565b6001600160a01b0384166121c55760405162461bcd60e51b815260040161092890614e0e565b336121e5816000876121d688612d94565b6121df88612d94565b87612ddf565b60008481526003602090815260408083206001600160a01b0389168452909152812080548592906122179084906150e7565b909155505060408051858152602081018590526001600160a01b038088169260009291851691600080516020615305833981519152910160405180910390a4610b5f816000878787876132f0565b81518351146122865760405162461bcd60e51b815260040161092890614dc6565b6001600160a01b0384166122ac5760405162461bcd60e51b815260040161092890614b50565b336122bb818787878787612ddf565b60005b84518110156123a45760008582815181106122db576122db6151c3565b6020026020010151905060008583815181106122f9576122f96151c3565b60209081029190910181015160008481526003835260408082206001600160a01b038e16835290935291909120549091508181101561234a5760405162461bcd60e51b815260040161092890614c79565b60008381526003602090815260408083206001600160a01b038e8116855292528083208585039055908b168252812080548492906123899084906150e7565b925050819055505050508061239d90615192565b90506122be565b50846001600160a01b0316866001600160a01b0316826001600160a01b03166000805160206152e583398151915287876040516123e2929190614a14565b60405180910390a46123f881878787878761345b565b505050505050565b84518651146124675760405162461bcd60e51b815260206004820152602d60248201527f4f4e4654313135353a2069647320616e6420616d6f756e7473206d757374206260448201526c0ca40e6c2daca40d8cadccee8d609b1b6064820152608401610928565b336001600160a01b038a1614806124835750612483333361078c565b61249f5760405162461bcd60e51b815260040161092890614b95565b6124ac8989898989613525565b60008787876040516020016124c393929190614a8b565b60405160208183030381529060405290506125178982878787878080601f01602080910402602001604051908101604052809392919081815260200183838082843760009201919091525061353092505050565b604051630f428ae960e31b815261ffff8a1660048201523060248201526000907f00000000000000000000000000000000000000000000000000000000000000006001600160a01b031690637a1457489060440160206040518083038186803b15801561258357600080fd5b505afa158015612597573d6000803e3d6000fd5b505050506040513d601f19601f820116820180604052508101906125bb91906147d3565b9050886040516125cb9190614890565b60405180910390208a61ffff168c6001600160a01b03167f2d31495ecbe799a81d5475c03585aa019860601fed836229d70e335b732eab3d8b8b8660405161261593929190614a39565b60405180910390a45050505050505050505050565b336001600160a01b038a1614806126465750612646893361078c565b6126625760405162461bcd60e51b815260040161092890614b95565b61266f898989898961363c565b60408051600180825281830190925260009160208083019080368337505060408051600180825281830190925292935060009291506020808301908036833701905050905087826000815181106126c8576126c86151c3565b60200260200101818152505086816000815181106126e8576126e86151c3565b602002602001018181525050600089838360405160200161270b93929190614a8b565b604051602081830303815290604052905061275f8b82898989898080601f01602080910402602001604051908101604052809392919081815260200183838082843760009201919091525061353092505050565b604051630f428ae960e31b815261ffff8c1660048201523060248201526000907f00000000000000000000000000000000000000000000000000000000000000006001600160a01b031690637a1457489060440160206040518083038186803b1580156127cb57600080fd5b505afa1580156127df573d6000803e3d6000fd5b505050506040513d601f19601f8201168201806040525081019061280391906147d3565b90508a6040516128139190614890565b60405180910390208c61ffff168e6001600160a01b03167f65f8f231660ef9add3da95eb0bbdae4c246f6c10e274fae37b17190637080d4c8d8d866040516128779392919092835260208301919091526001600160401b0316604082015260600190565b60405180910390a450505050505050505050505050565b6000806000838060200190518101906128a79190614120565b601483015192955090935091508251600114156129a1576128fe8882856000815181106128d6576128d66151c3565b6020026020010151856000815181106128f1576128f16151c3565b6020026020010151613647565b7f8bccaf86bd8794bd0e54aefcb70b3fc3311241ce1d3079856c598be6f28d22ed888285600081518110612934576129346151c3565b60200260200101518560008151811061294f5761294f6151c3565b6020908102919091018101516040805161ffff90961686526001600160a01b03909416918501919091529183015260608201526001600160401b038816608082015260a00160405180910390a16129f7565b6001835111156129f7576129b78882858561366d565b7f33d59524159626dcbabfbceab8649c13e2c5dbe300a211f844fcff8697e81cc2888285858a6040516129ee959493929190614e4f565b60405180910390a15b5050505050505050565b600080546001600160a01b038381166001600160a01b0319831681178455604051919092169283917f8be0079c531659141344cd1fd0a4f28419497f9722a3daafe3b4186f6b6457e09190a35050565b805161165390600590602084019061397b565b816001600160a01b0316836001600160a01b03161415612ad85760405162461bcd60e51b815260206004820152602960248201527f455243313135353a2073657474696e6720617070726f76616c20737461747573604482015268103337b91039b2b63360b91b6064820152608401610928565b6001600160a01b03838116600081815260046020908152604080832094871680845294825291829020805460ff191686151590811790915591519182527f17307eab39ab6107e8899845ad3d59bd9653f200f220920489ca2b5937696c31910160405180910390a3505050565b6001600160a01b038416612b6b5760405162461bcd60e51b815260040161092890614e0e565b8151835114612b8c5760405162461bcd60e51b815260040161092890614dc6565b33612b9c81600087878787612ddf565b60005b8451811015612c3857838181518110612bba57612bba6151c3565b602002602001015160036000878481518110612bd857612bd86151c3565b602002602001015181526020019081526020016000206000886001600160a01b03166001600160a01b031681526020019081526020016000206000828254612c2091906150e7565b90915550819050612c3081615192565b915050612b9f565b50846001600160a01b031660006001600160a01b0316826001600160a01b03166000805160206152e58339815191528787604051612c77929190614a14565b60405180910390a4610b5f8160008787878761345b565b6001600160a01b038416612cb45760405162461bcd60e51b815260040161092890614b50565b33612cc48187876121d688612d94565b60008481526003602090815260408083206001600160a01b038a16845290915290205483811015612d075760405162461bcd60e51b815260040161092890614c79565b60008581526003602090815260408083206001600160a01b038b8116855292528083208785039055908816825281208054869290612d469084906150e7565b909155505060408051868152602081018690526001600160a01b03808916928a82169291861691600080516020615305833981519152910160405180910390a4610fee8288888888886132f0565b60408051600180825281830190925260609160009190602080830190803683370190505090508281600081518110612dce57612dce6151c3565b602090810291909101015292915050565b6001600160a01b0385161580612dfc57506001600160a01b038416155b80612e1557506000546001600160a01b03868116911614155b15612e1f576123f8565b600c54610100900460ff16612e6e5760405162461bcd60e51b815260206004820152601560248201527453616c652069732073757370656e646564206e6f7760581b6044820152606401610928565b600c54610100900460ff168015612e885750600c5460ff16155b156123f85760005b8351811015610fee576002848281518110612ead57612ead6151c3565b602002602001015111612fd9576001600160a01b03851660009081526010602052604090205460ff16612ef25760405162461bcd60e51b815260040161092890614cf8565b6001838281518110612f0657612f066151c3565b6020026020010151612f24878785815181106111d0576111d06151c3565b612f2e91906150e7565b1115612f4c5760405162461bcd60e51b815260040161092890614d7d565b846001600160a01b0316866001600160a01b03167fae4f547fa32bbfb0aacef985ccda1764fe4c357ccd59f52d389308624e764f06868481518110612f9357612f936151c3565b6020026020010151868581518110612fad57612fad6151c3565b6020026020010151604051612fcc929190918252602082015260400190565b60405180910390a36132de565b6004848281518110612fed57612fed6151c3565b60200260200101511161309b57600183828151811061300e5761300e6151c3565b602002602001015161302c878785815181106111d0576111d06151c3565b61303691906150e7565b11156130545760405162461bcd60e51b815260040161092890614d7d565b846001600160a01b0316866001600160a01b03167f9ee02141e53f94da9d53ecdc053896751d8482788078a5a339cc9654d67d9bc4868481518110612f9357612f936151c3565b60098482815181106130af576130af6151c3565b602002602001015111613100576006546001600160a01b03163314806130e457503360009081526011602052604090205460ff165b6130545760405162461bcd60e51b815260040161092890614be7565b600b848281518110613114576131146151c3565b602002602001015111613159576001600160a01b03851660009081526010602052604090205460ff16612ef25760405162461bcd60e51b815260040161092890614cf8565b600e84828151811061316d5761316d6151c3565b6020026020010151116131c6576001600160a01b03851660009081526010602052604090205460ff166131b25760405162461bcd60e51b815260040161092890614cf8565b6002838281518110612f0657612f066151c3565b60108482815181106131da576131da6151c3565b6020026020010151116131fb57600183828151811061300e5761300e6151c3565b600283828151811061320f5761320f6151c3565b602002602001015161322d878785815181106111d0576111d06151c3565b61323791906150e7565b11156132555760405162461bcd60e51b815260040161092890614d7d565b846001600160a01b0316866001600160a01b03167fae4f547fa32bbfb0aacef985ccda1764fe4c357ccd59f52d389308624e764f0686848151811061329c5761329c6151c3565b60200260200101518685815181106132b6576132b66151c3565b60200260200101516040516132d5929190918252602082015260400190565b60405180910390a35b806132e881615192565b915050612e90565b6001600160a01b0384163b156123f85760405163f23a6e6160e01b81526001600160a01b0385169063f23a6e6190613334908990899088908890889060040161497c565b602060405180830381600087803b15801561334e57600080fd5b505af192505050801561337e575060408051601f3d908101601f1916820190925261337b918101906140c7565b60015b61342b5761338a6151ef565b806308c379a014156133c4575061339f61520b565b806133aa57506133c6565b8060405162461bcd60e51b81526004016109289190614a78565b505b60405162461bcd60e51b815260206004820152603460248201527f455243313135353a207472616e7366657220746f206e6f6e20455243313135356044820152732932b1b2b4bb32b91034b6b83632b6b2b73a32b960611b6064820152608401610928565b6001600160e01b0319811663f23a6e6160e01b14610fee5760405162461bcd60e51b815260040161092890614ac4565b6001600160a01b0384163b156123f85760405163bc197c8160e01b81526001600160a01b0385169063bc197c819061349f908990899088908890889060040161491e565b602060405180830381600087803b1580156134b957600080fd5b505af19250505080156134e9575060408051601f3d908101601f191682019092526134e6918101906140c7565b60015b6134f55761338a6151ef565b6001600160e01b0319811663bc197c8160e01b14610fee5760405162461bcd60e51b815260040161092890614ac4565b610b5f858383613693565b61ffff85166000908152600160205260409020805461354e9061512b565b151590506135b95760405162461bcd60e51b815260206004820152603260248201527f4c7a53656e643a2064657374696e6174696f6e20636861696e206973206e6f746044820152711030903a393ab9ba32b21039b7bab931b29760711b6064820152608401610928565b61ffff851660009081526001602052604090819020905162c5803160e81b81526001600160a01b037f0000000000000000000000000000000000000000000000000000000000000000169163c5803100913491613623918a91908a908a908a908a90600401614f9c565b6000604051808303818588803b158015611ad057600080fd5b610b5f858383613804565b61093d83838360405180604001604052806002815260200161060f60f31b81525061219f565b61093d83838360405180604001604052806002815260200161060f60f31b815250612b45565b6001600160a01b0383166136b95760405162461bcd60e51b815260040161092890614c36565b80518251146136da5760405162461bcd60e51b815260040161092890614dc6565b60003390506136fd81856000868660405180602001604052806000815250612ddf565b60005b83518110156137c557600084828151811061371d5761371d6151c3565b60200260200101519050600084838151811061373b5761373b6151c3565b60209081029190910181015160008481526003835260408082206001600160a01b038c16835290935291909120549091508181101561378c5760405162461bcd60e51b815260040161092890614b0c565b60009283526003602090815260408085206001600160a01b038b16865290915290922091039055806137bd81615192565b915050613700565b5060006001600160a01b0316846001600160a01b0316826001600160a01b03166000805160206152e58339815191528686604051610dd4929190614a14565b6001600160a01b03831661382a5760405162461bcd60e51b815260040161092890614c36565b336138598185600061383b87612d94565b61384487612d94565b60405180602001604052806000815250612ddf565b60008381526003602090815260408083206001600160a01b03881684529091529020548281101561389c5760405162461bcd60e51b815260040161092890614b0c565b60008481526003602090815260408083206001600160a01b0389811680865291845282852088870390558251898152938401889052909290861691600080516020615305833981519152910160405180910390a45050505050565b8280546139039061512b565b90600052602060002090601f016020900481019282613925576000855561396b565b82601f1061393e5782800160ff1982351617855561396b565b8280016001018555821561396b579182015b8281111561396b578235825591602001919060010190613950565b506139779291506139ef565b5090565b8280546139879061512b565b90600052602060002090601f0160209004810192826139a9576000855561396b565b82601f106139c257805160ff191683800117855561396b565b8280016001018555821561396b579182015b8281111561396b5782518255916020019190600101906139d4565b5b8082111561397757600081556001016139f0565b6000613a0f836150c0565b604051613a1c8282615166565b809250848152858585011115613a3157600080fd5b8484602083013760006020868301015250509392505050565b8035613a5581615294565b919050565b600082601f830112613a6b57600080fd5b81356020613a788261509d565b604051613a858282615166565b8381528281019150858301600585901b87018401881015613aa557600080fd5b60005b85811015613ac457813584529284019290840190600101613aa8565b5090979650505050505050565b600082601f830112613ae257600080fd5b81516020613aef8261509d565b604051613afc8282615166565b8381528281019150858301600585901b87018401881015613b1c57600080fd5b60005b85811015613ac457815184529284019290840190600101613b1f565b80358015158114613a5557600080fd5b60008083601f840112613b5d57600080fd5b5081356001600160401b03811115613b7457600080fd5b602083019150836020828501011115613b8c57600080fd5b9250929050565b600082601f830112613ba457600080fd5b613bb383833560208501613a04565b9392505050565b600082601f830112613bcb57600080fd5b8151613bd6816150c0565b604051613be38282615166565b828152856020848701011115613bf857600080fd5b6120a58360208301602088016150ff565b8035613a55816152bf565b600060208284031215613c2657600080fd5b8135613bb381615294565b60008060408385031215613c4457600080fd5b8235613c4f81615294565b91506020830135613c5f81615294565b809150509250929050565b600080600080600060a08688031215613c8257600080fd5b8535613c8d81615294565b94506020860135613c9d81615294565b935060408601356001600160401b0380821115613cb957600080fd5b613cc589838a01613a5a565b94506060880135915080821115613cdb57600080fd5b613ce789838a01613a5a565b93506080880135915080821115613cfd57600080fd5b50613d0a88828901613b93565b9150509295509295909350565b600080600080600060a08688031215613d2f57600080fd5b8535613d3a81615294565b94506020860135613d4a81615294565b9350604086013592506060860135915060808601356001600160401b03811115613d7357600080fd5b613d0a88828901613b93565b60008060408385031215613d9257600080fd5b8235613d9d81615294565b9150613dab60208401613b3b565b90509250929050565b6000806000806000806000806000806101008b8d031215613dd457600080fd5b613ddd8b613a4a565b9950613deb60208c01613c09565b985060408b01356001600160401b0380821115613e0757600080fd5b613e138e838f01613b4b565b909a50985060608d0135915080821115613e2c57600080fd5b613e388e838f01613a5a565b975060808d0135915080821115613e4e57600080fd5b613e5a8e838f01613a5a565b9650613e6860a08e01613a4a565b9550613e7660c08e01613a4a565b945060e08d0135915080821115613e8c57600080fd5b50613e998d828e01613b4b565b915080935050809150509295989b9194979a5092959850565b6000806000806000806000806000806101008b8d031215613ed257600080fd5b8a35613edd81615294565b995060208b0135613eed816152bf565b985060408b01356001600160401b0380821115613f0957600080fd5b613f158e838f01613b4b565b909a50985060608d0135975060808d0135965060a08d01359150613f3882615294565b90945060c08c013590613f4a82615294565b90935060e08c01359080821115613e8c57600080fd5b60008060408385031215613f7357600080fd5b8235613f7e81615294565b946020939093013593505050565b60008060408385031215613f9f57600080fd5b82356001600160401b0380821115613fb657600080fd5b818501915085601f830112613fca57600080fd5b81356020613fd78261509d565b604051613fe48282615166565b8381528281019150858301600585901b870184018b101561400457600080fd5b600096505b8487101561403057803561401c81615294565b835260019690960195918301918301614009565b509650508601359250508082111561404757600080fd5b5061405485828601613a5a565b9150509250929050565b6000806040838503121561407157600080fd5b82356001600160401b038082111561408857600080fd5b61409486838701613a5a565b9350602085013591508082111561404757600080fd5b6000602082840312156140bc57600080fd5b8135613bb3816152a9565b6000602082840312156140d957600080fd5b8151613bb3816152a9565b6000602082840312156140f657600080fd5b81516001600160401b0381111561410c57600080fd5b61411884828501613bba565b949350505050565b60008060006060848603121561413557600080fd5b83516001600160401b038082111561414c57600080fd5b61415887838801613bba565b9450602086015191508082111561416e57600080fd5b61417a87838801613ad1565b9350604086015191508082111561419057600080fd5b5061419d86828701613ad1565b9150509250925092565b6000602082840312156141b957600080fd5b81356001600160401b038111156141cf57600080fd5b8201601f810184136141e057600080fd5b61411884823560208401613a04565b60006020828403121561420157600080fd5b8135613bb3816152bf565b60006020828403121561421e57600080fd5b8151613bb3816152bf565b60008060006040848603121561423e57600080fd5b8335614249816152bf565b925060208401356001600160401b0381111561426457600080fd5b61427086828701613b4b565b9497909650939450505050565b600080600080600080600080600060e08a8c03121561429b57600080fd5b6142a48a613c09565b985060208a01356001600160401b03808211156142c057600080fd5b6142cc8d838e01613b4b565b909a50985060408c01359150808211156142e557600080fd5b6142f18d838e01613a5a565b975060608c013591508082111561430757600080fd5b6143138d838e01613a5a565b965061432160808d01613a4a565b955061432f60a08d01613a4a565b945060c08c013591508082111561434557600080fd5b506143528c828d01613b4b565b915080935050809150509295985092959850929598565b60008060008060008060008060c0898b03121561438557600080fd5b61438e89613c09565b975060208901356001600160401b03808211156143aa57600080fd5b6143b68c838d01613b4b565b909950975060408b01359150808211156143cf57600080fd5b6143db8c838d01613a5a565b965060608b01359150808211156143f157600080fd5b6143fd8c838d01613a5a565b955061440b60808c01613b3b565b945060a08b013591508082111561442157600080fd5b5061442e8b828c01613b4b565b999c989b5096995094979396929594505050565b600080600080600080600080600060e08a8c03121561446057600080fd5b893561446b816152bf565b985060208a01356001600160401b038082111561448757600080fd5b6144938d838e01613b4b565b909a50985060408c0135975060608c0135965060808c013591506144b682615294565b90945060a08b0135906144c882615294565b90935060c08b0135908082111561434557600080fd5b60008060008060008060008060c0898b0312156144fa57600080fd5b8835614505816152bf565b975060208901356001600160401b038082111561452157600080fd5b61452d8c838d01613b4b565b909950975060408b0135965060608b0135955087915061440b60808c01613b3b565b60008060006060848603121561456457600080fd5b833561456f816152bf565b925060208401356001600160401b0381111561458a57600080fd5b61459686828701613b93565b925050604084013590509250925092565b6000806000806000608086880312156145bf57600080fd5b85356145ca816152bf565b945060208601356001600160401b03808211156145e657600080fd5b6145f289838a01613b93565b955060408801359150614604826152cf565b9093506060870135908082111561461a57600080fd5b5061462788828901613b4b565b969995985093965092949392505050565b6000806000806080858703121561464e57600080fd5b8435614659816152bf565b935060208501356001600160401b038082111561467557600080fd5b61468188838901613b93565b945060408701359150614693826152cf565b909250606086013590808211156146a957600080fd5b506146b687828801613b93565b91505092959194509250565b600080600080608085870312156146d857600080fd5b84356146e3816152bf565b935060208501356146f3816152bf565b9250604085013561470381615294565b9396929550929360600135925050565b60008060008060006080868803121561472b57600080fd5b8535614736816152bf565b94506020860135614746816152bf565b93506040860135925060608601356001600160401b0381111561476857600080fd5b61462788828901613b4b565b60006020828403121561478657600080fd5b5035919050565b600080604083850312156147a057600080fd5b50508035926020909101359150565b600080604083850312156147c257600080fd5b505080516020909101519092909150565b6000602082840312156147e557600080fd5b8151613bb3816152cf565b600081518084526020808501945080840160005b8381101561482057815187529582019590820190600101614804565b509495945050505050565b81835281816020850137506000828201602090810191909152601f909101601f19169091010190565b6000815180845261486c8160208601602086016150ff565b601f01601f19169290920160200192915050565b8183823760009101908152919050565b600082516148a28184602087016150ff565b9190910192915050565b60008083546148ba8161512b565b600182811680156148d257600181146148e357614912565b60ff19841687528287019450614912565b8760005260208060002060005b858110156149095781548a8201529084019082016148f0565b50505082870194505b50929695505050505050565b6001600160a01b0386811682528516602082015260a06040820181905260009061494a908301866147f0565b828103606084015261495c81866147f0565b905082810360808401526149708185614854565b98975050505050505050565b6001600160a01b03868116825285166020820152604081018490526060810183905260a0608082018190526000906149b690830184614854565b979650505050505050565b6001600160a01b03841681526060602082018190526000906149e5908301856147f0565b82810360408401526149f781856147f0565b9695505050505050565b602081526000613bb360208301846147f0565b604081526000614a2760408301856147f0565b82810360208401526120a581856147f0565b606081526000614a4c60608301866147f0565b8281036020840152614a5e81866147f0565b9150506001600160401b0383166040830152949350505050565b602081526000613bb36020830184614854565b606081526000614a9e6060830186614854565b8281036020840152614ab081866147f0565b905082810360408401526149f781856147f0565b60208082526028908201527f455243313135353a204552433131353552656365697665722072656a656374656040820152676420746f6b656e7360c01b606082015260800190565b60208082526024908201527f455243313135353a206275726e20616d6f756e7420657863656564732062616c604082015263616e636560e01b606082015260800190565b60208082526025908201527f455243313135353a207472616e7366657220746f20746865207a65726f206164604082015264647265737360d81b606082015260800190565b60208082526032908201527f455243313135353a207472616e736665722063616c6c6572206973206e6f74206040820152711bdddb995c881b9bdc88185c1c1c9bdd995960721b606082015260800190565b6020808252602f908201527f54686973206973206e6f7420616c6c6f7765642065786365707420666f72206360408201526e1c99585d1bdc881bdc881859d95b9d608a1b606082015260800190565b60208082526023908201527f455243313135353a206275726e2066726f6d20746865207a65726f206164647260408201526265737360e81b606082015260800190565b6020808252602a908201527f455243313135353a20696e73756666696369656e742062616c616e636520666f60408201526939103a3930b739b332b960b11b606082015260800190565b6020808252818101527f4f776e61626c653a2063616c6c6572206973206e6f7420746865206f776e6572604082015260600190565b60208082526021908201527f546869732061646472657373206973206e6f742061757468656e7469636174656040820152601960fa1b606082015260800190565b60208082526024908201527f746f6b656e4964206973206e6f7420616c6c6f776564206f6e207468697320636040820152633430b4b760e11b606082015260800190565b60208082526029908201527f43616e2774206275792073616d6520736f6e6773206d6f7265207468616e20746040820152681ddbc81c9958dbdc9960ba1b606082015260800190565b60208082526028908201527f455243313135353a2069647320616e6420616d6f756e7473206c656e677468206040820152670dad2e6dac2e8c6d60c31b606082015260800190565b60208082526021908201527f455243313135353a206d696e7420746f20746865207a65726f206164647265736040820152607360f81b606082015260800190565b61ffff861681526001600160a01b038516602082015260a060408201819052600090614e7d908301866147f0565b8281036060840152614e8f81866147f0565b9150506001600160401b03831660808301529695505050505050565b61ffff871681526001600160a01b038616602082015260a060408201819052600090614ed990830187614854565b85151560608401528281036080840152614ef481858761482b565b9998505050505050505050565b61ffff841681526040602082015260006120a560408301848661482b565b61ffff86168152608060208201526000614f3c6080830187614854565b6001600160401b0386166040840152828103606084015261497081858761482b565b61ffff85168152608060208201526000614f7b6080830186614854565b6001600160401b038516604084015282810360608401526149b68185614854565b61ffff871681526000602060c08184015260008854614fba8161512b565b8060c087015260e0600180841660008114614fdc5760018114614ff15761501f565b60ff198516898401526101008901955061501f565b8d6000528660002060005b858110156150175781548b8201860152908301908801614ffc565b8a0184019650505b505050505083810360408501526150368189614854565b91505061504e60608401876001600160a01b03169052565b6001600160a01b038516608084015282810360a0840152614ef48185614854565b600061ffff8088168352808716602084015250846040830152608060608301526149b660808301848661482b565b60006001600160401b038211156150b6576150b66151d9565b5060051b60200190565b60006001600160401b038211156150d9576150d96151d9565b50601f01601f191660200190565b600082198211156150fa576150fa6151ad565b500190565b60005b8381101561511a578181015183820152602001615102565b8381111561093d5750506000910152565b600181811c9082168061513f57607f821691505b6020821081141561516057634e487b7160e01b600052602260045260246000fd5b50919050565b601f8201601f191681016001600160401b038111828210171561518b5761518b6151d9565b6040525050565b60006000198214156151a6576151a66151ad565b5060010190565b634e487b7160e01b600052601160045260246000fd5b634e487b7160e01b600052603260045260246000fd5b634e487b7160e01b600052604160045260246000fd5b600060033d11156152085760046000803e5060005160e01c5b90565b600060443d10156152195790565b6040516003193d81016004833e81513d6001600160401b03816024840111818411171561524857505050505090565b82850191508151818111156152605750505050505090565b843d870101602082850101111561527a5750505050505090565b61528960208286010187615166565b509095945050505050565b6001600160a01b038116811461164557600080fd5b6001600160e01b03198116811461164557600080fd5b61ffff8116811461164557600080fd5b6001600160401b038116811461164557600080fdfe4a39dc06d4c0dbc64b70af90fd698a233a518aa5d07e595d983b8c0526c8f7fbc3d58168c5ae7397731d063d5bbf3d657854427343f4c083240f7aacaa2d0f62a2646970667358221220a72c283746ebf326d9e4ee1b2629e9dae45991a55900325e3d0741669dff887064736f6c63430008070033697066733a2f2f516d5a557a5a38384858385553426b6147436f7778567a61736669345374734571733554757857595763695537782f6d657461646174612f7b69647d2e6a736f6e",
  "linkReferences": {},
  "deployedLinkReferences": {}
}