{
  "_format": "hh-sol-artifact-1",
  "contractName": "MusicNFT",
  "sourceName": "contracts/MusicNFT.sol",
  "abi": [
    {
      "inputs": [],
      "stateMutability": "nonpayable",
      "type": "constructor"
    },
    {
      "anonymous": false,
      "inputs": [
        {
          "indexed": true,
          "internalType": "address",
          "name": "account",
          "type": "address"
        },
        {
          "indexed": true,
          "internalType": "address",
          "name": "operator",
          "type": "address"
        },
        {
          "indexed": false,
          "internalType": "bool",
          "name": "approved",
          "type": "bool"
        }
      ],
      "name": "ApprovalForAll",
      "type": "event"
    },
    {
      "anonymous": false,
      "inputs": [
        {
          "indexed": true,
          "internalType": "address",
          "name": "previousOwner",
          "type": "address"
        },
        {
          "indexed": true,
          "internalType": "address",
          "name": "newOwner",
          "type": "address"
        }
      ],
      "name": "OwnershipTransferred",
      "type": "event"
    },
    {
      "anonymous": false,
      "inputs": [
        {
          "indexed": true,
          "internalType": "address",
          "name": "operator",
          "type": "address"
        },
        {
          "indexed": true,
          "internalType": "address",
          "name": "from",
          "type": "address"
        },
        {
          "indexed": true,
          "internalType": "address",
          "name": "to",
          "type": "address"
        },
        {
          "indexed": false,
          "internalType": "uint256[]",
          "name": "ids",
          "type": "uint256[]"
        },
        {
          "indexed": false,
          "internalType": "uint256[]",
          "name": "values",
          "type": "uint256[]"
        }
      ],
      "name": "TransferBatch",
      "type": "event"
    },
    {
      "anonymous": false,
      "inputs": [
        {
          "indexed": true,
          "internalType": "address",
          "name": "operator",
          "type": "address"
        },
        {
          "indexed": true,
          "internalType": "address",
          "name": "from",
          "type": "address"
        },
        {
          "indexed": true,
          "internalType": "address",
          "name": "to",
          "type": "address"
        },
        {
          "indexed": false,
          "internalType": "uint256",
          "name": "id",
          "type": "uint256"
        },
        {
          "indexed": false,
          "internalType": "uint256",
          "name": "value",
          "type": "uint256"
        }
      ],
      "name": "TransferSingle",
      "type": "event"
    },
    {
      "anonymous": false,
      "inputs": [
        {
          "indexed": false,
          "internalType": "string",
          "name": "value",
          "type": "string"
        },
        {
          "indexed": true,
          "internalType": "uint256",
          "name": "id",
          "type": "uint256"
        }
      ],
      "name": "URI",
      "type": "event"
    },
    {
      "inputs": [
        {
          "internalType": "address",
          "name": "account",
          "type": "address"
        },
        {
          "internalType": "uint256",
          "name": "id",
          "type": "uint256"
        }
      ],
      "name": "balanceOf",
      "outputs": [
        {
          "internalType": "uint256",
          "name": "",
          "type": "uint256"
        }
      ],
      "stateMutability": "view",
      "type": "function"
    },
    {
      "inputs": [
        {
          "internalType": "address[]",
          "name": "accounts",
          "type": "address[]"
        },
        {
          "internalType": "uint256[]",
          "name": "ids",
          "type": "uint256[]"
        }
      ],
      "name": "balanceOfBatch",
      "outputs": [
        {
          "internalType": "uint256[]",
          "name": "",
          "type": "uint256[]"
        }
      ],
      "stateMutability": "view",
      "type": "function"
    },
    {
      "inputs": [
        {
          "internalType": "address",
          "name": "account",
          "type": "address"
        },
        {
          "internalType": "address",
          "name": "operator",
          "type": "address"
        }
      ],
      "name": "isApprovedForAll",
      "outputs": [
        {
          "internalType": "bool",
          "name": "",
          "type": "bool"
        }
      ],
      "stateMutability": "view",
      "type": "function"
    },
    {
      "inputs": [
        {
          "internalType": "uint256",
          "name": "_tokenId",
          "type": "uint256"
        },
        {
          "internalType": "uint256",
          "name": "amount",
          "type": "uint256"
        }
      ],
      "name": "mint",
      "outputs": [],
      "stateMutability": "nonpayable",
      "type": "function"
    },
    {
      "inputs": [],
      "name": "name",
      "outputs": [
        {
          "internalType": "string",
          "name": "",
          "type": "string"
        }
      ],
      "stateMutability": "view",
      "type": "function"
    },
    {
      "inputs": [],
      "name": "owner",
      "outputs": [
        {
          "internalType": "address",
          "name": "",
          "type": "address"
        }
      ],
      "stateMutability": "view",
      "type": "function"
    },
    {
      "inputs": [],
      "name": "renounceOwnership",
      "outputs": [],
      "stateMutability": "nonpayable",
      "type": "function"
    },
    {
      "inputs": [
        {
          "internalType": "address",
          "name": "from",
          "type": "address"
        },
        {
          "internalType": "address",
          "name": "to",
          "type": "address"
        },
        {
          "internalType": "uint256[]",
          "name": "ids",
          "type": "uint256[]"
        },
        {
          "internalType": "uint256[]",
          "name": "amounts",
          "type": "uint256[]"
        },
        {
          "internalType": "bytes",
          "name": "data",
          "type": "bytes"
        }
      ],
      "name": "safeBatchTransferFrom",
      "outputs": [],
      "stateMutability": "nonpayable",
      "type": "function"
    },
    {
      "inputs": [
        {
          "internalType": "address",
          "name": "from",
          "type": "address"
        },
        {
          "internalType": "address",
          "name": "to",
          "type": "address"
        },
        {
          "internalType": "uint256",
          "name": "id",
          "type": "uint256"
        },
        {
          "internalType": "uint256",
          "name": "amount",
          "type": "uint256"
        },
        {
          "internalType": "bytes",
          "name": "data",
          "type": "bytes"
        }
      ],
      "name": "safeTransferFrom",
      "outputs": [],
      "stateMutability": "nonpayable",
      "type": "function"
    },
    {
      "inputs": [
        {
          "internalType": "address",
          "name": "operator",
          "type": "address"
        },
        {
          "internalType": "bool",
          "name": "approved",
          "type": "bool"
        }
      ],
      "name": "setApprovalForAll",
      "outputs": [],
      "stateMutability": "nonpayable",
      "type": "function"
    },
    {
      "inputs": [
        {
          "internalType": "bytes4",
          "name": "interfaceId",
          "type": "bytes4"
        }
      ],
      "name": "supportsInterface",
      "outputs": [
        {
          "internalType": "bool",
          "name": "",
          "type": "bool"
        }
      ],
      "stateMutability": "view",
      "type": "function"
    },
    {
      "inputs": [],
      "name": "symbol",
      "outputs": [
        {
          "internalType": "string",
          "name": "",
          "type": "string"
        }
      ],
      "stateMutability": "view",
      "type": "function"
    },
    {
      "inputs": [
        {
          "internalType": "address",
          "name": "newOwner",
          "type": "address"
        }
      ],
      "name": "transferOwnership",
      "outputs": [],
      "stateMutability": "nonpayable",
      "type": "function"
    },
    {
      "inputs": [
        {
          "internalType": "uint256",
          "name": "",
          "type": "uint256"
        }
      ],
      "name": "uri",
      "outputs": [
        {
          "internalType": "string",
          "name": "",
          "type": "string"
        }
      ],
      "stateMutability": "view",
      "type": "function"
    }
  ],
  "bytecode": "0x60806040523480156200001157600080fd5b50604051806080016040528060488152602001620020f860489139620000378162000057565b50620000433362000070565b6200005160016002620000c2565b62000822565b80516200006c9060029060208401906200053c565b5050565b600380546001600160a01b038381166001600160a01b0319831681179093556040519116919082907f8be0079c531659141344cd1fd0a4f28419497f9722a3daafe3b4186f6b6457e090600090a35050565b6003546001600160a01b03163314620001225760405162461bcd60e51b815260206004820181905260248201527f4f776e61626c653a2063616c6c6572206973206e6f7420746865206f776e657260448201526064015b60405180910390fd5b6200006c338383604051806020016040528060008152506200014560201b60201c565b6001600160a01b038416620001a75760405162461bcd60e51b815260206004820152602160248201527f455243313135353a206d696e7420746f20746865207a65726f206164647265736044820152607360f81b606482015260840162000119565b33620001cd81600087620001bb8862000268565b620001c68862000268565b87620002b6565b6000848152602081815260408083206001600160a01b038916845290915281208054859290620001ff908490620006c1565b909155505060408051858152602081018590526001600160a01b0380881692600092918516917fc3d58168c5ae7397731d063d5bbf3d657854427343f4c083240f7aacaa2d0f62910160405180910390a4620002618160008787878762000347565b5050505050565b60408051600180825281830190925260609160009190602080830190803683370190505090508281600081518110620002a557620002a562000760565b602090810291909101015292915050565b6001600160a01b038516620002cb576200033f565b6001600160a01b03841660009081526006602052604090205460ff166200033f5760405162461bcd60e51b815260206004820152602160248201527f546869732061646472657373206973206e6f742061757468656e7469636174656044820152601960fa1b606482015260840162000119565b505050505050565b62000366846001600160a01b03166200052d60201b620007d21760201c565b156200033f5760405163f23a6e6160e01b81526001600160a01b0385169063f23a6e6190620003a2908990899088908890889060040162000665565b602060405180830381600087803b158015620003bd57600080fd5b505af1925050508015620003f0575060408051601f3d908101601f19168201909252620003ed91810190620005e2565b60015b620004b157620003ff62000776565b806308c379a014156200044057506200041762000793565b8062000424575062000442565b8060405162461bcd60e51b8152600401620001199190620006ac565b505b60405162461bcd60e51b815260206004820152603460248201527f455243313135353a207472616e7366657220746f206e6f6e204552433131353560448201527f526563656976657220696d706c656d656e746572000000000000000000000000606482015260840162000119565b6001600160e01b0319811663f23a6e6160e01b14620005245760405162461bcd60e51b815260206004820152602860248201527f455243313135353a204552433131353552656365697665722072656a656374656044820152676420746f6b656e7360c01b606482015260840162000119565b50505050505050565b6001600160a01b03163b151590565b8280546200054a90620006e8565b90600052602060002090601f0160209004810192826200056e5760008555620005b9565b82601f106200058957805160ff1916838001178555620005b9565b82800160010185558215620005b9579182015b82811115620005b95782518255916020019190600101906200059c565b50620005c7929150620005cb565b5090565b5b80821115620005c75760008155600101620005cc565b600060208284031215620005f557600080fd5b81516001600160e01b0319811681146200060e57600080fd5b9392505050565b6000815180845260005b818110156200063d576020818501810151868301820152016200061f565b8181111562000650576000602083870101525b50601f01601f19169290920160200192915050565b6001600160a01b03868116825285166020820152604081018490526060810183905260a060808201819052600090620006a19083018462000615565b979650505050505050565b6020815260006200060e602083018462000615565b60008219821115620006e357634e487b7160e01b600052601160045260246000fd5b500190565b600181811c90821680620006fd57607f821691505b602082108114156200071f57634e487b7160e01b600052602260045260246000fd5b50919050565b601f8201601f191681016001600160401b03811182821017156200075957634e487b7160e01b600052604160045260246000fd5b6040525050565b634e487b7160e01b600052603260045260246000fd5b600060033d1115620007905760046000803e5060005160e01c5b90565b600060443d1015620007a25790565b6040516003193d81016004833e81513d6001600160401b038083116024840183101715620007d257505050505090565b8285019150815181811115620007eb5750505050505090565b843d8701016020828501011115620008065750505050505090565b620008176020828601018762000725565b509095945050505050565b6118c680620008326000396000f3fe608060405234801561001057600080fd5b50600436106100e95760003560e01c8063715018a61161008c578063a22cb46511610066578063a22cb465146101d2578063e985e9c5146101e5578063f242432a14610221578063f2fde38b1461023457600080fd5b8063715018a6146101a75780638da5cb5b146101af57806395d89b41146101ca57600080fd5b80630e89341c116100c85780630e89341c1461014c5780631b2ef1ca1461015f5780632eb2c2d6146101745780634e1273f41461018757600080fd5b8062fdd58e146100ee57806301ffc9a71461011457806306fdde0314610137575b600080fd5b6101016100fc3660046112d8565b610247565b6040519081526020015b60405180910390f35b6101276101223660046113d3565b6102de565b604051901515815260200161010b565b61013f610330565b60405161010b91906115b4565b61013f61015a36600461140d565b6103c2565b61017261016d366004611426565b610456565b005b61017261018236600461118d565b61049f565b61019a610195366004611302565b610536565b60405161010b9190611573565b610172610660565b6003546040516001600160a01b03909116815260200161010b565b61013f610696565b6101726101e036600461129c565b6106a5565b6101276101f336600461115a565b6001600160a01b03918216600090815260016020908152604080832093909416825291909152205460ff1690565b61017261022f366004611237565b6106b0565b610172610242366004611138565b610737565b60006001600160a01b0383166102b85760405162461bcd60e51b815260206004820152602b60248201527f455243313135353a2062616c616e636520717565727920666f7220746865207a60448201526a65726f206164647265737360a81b60648201526084015b60405180910390fd5b506000908152602081815260408083206001600160a01b03949094168352929052205490565b60006001600160e01b03198216636cdb3d1360e11b148061030f57506001600160e01b031982166303a24d0760e21b145b8061032a57506301ffc9a760e01b6001600160e01b03198316145b92915050565b60606004805461033f9061170f565b80601f016020809104026020016040519081016040528092919081815260200182805461036b9061170f565b80156103b85780601f1061038d576101008083540402835291602001916103b8565b820191906000526020600020905b81548152906001019060200180831161039b57829003601f168201915b5050505050905090565b6060600280546103d19061170f565b80601f01602080910402602001604051908101604052809291908181526020018280546103fd9061170f565b801561044a5780601f1061041f5761010080835404028352916020019161044a565b820191906000526020600020905b81548152906001019060200180831161042d57829003601f168201915b50505050509050919050565b6003546001600160a01b031633146104805760405162461bcd60e51b81526004016102af9061169e565b61049b338383604051806020016040528060008152506107e1565b5050565b6001600160a01b0385163314806104bb57506104bb85336101f3565b6105225760405162461bcd60e51b815260206004820152603260248201527f455243313135353a207472616e736665722063616c6c6572206973206e6f74206044820152711bdddb995c881b9bdc88185c1c1c9bdd995960721b60648201526084016102af565b61052f85858585856108f1565b5050505050565b6060815183511461059b5760405162461bcd60e51b815260206004820152602960248201527f455243313135353a206163636f756e747320616e6420696473206c656e677468604482015268040dad2e6dac2e8c6d60bb1b60648201526084016102af565b6000835167ffffffffffffffff8111156105b7576105b76117be565b6040519080825280602002602001820160405280156105e0578160200160208202803683370190505b50905060005b84518110156106585761062b858281518110610604576106046117a8565b602002602001015185838151811061061e5761061e6117a8565b6020026020010151610247565b82828151811061063d5761063d6117a8565b602090810291909101015261065181611777565b90506105e6565b509392505050565b6003546001600160a01b0316331461068a5760405162461bcd60e51b81526004016102af9061169e565b6106946000610adc565b565b60606005805461033f9061170f565b61049b338383610b2e565b6001600160a01b0385163314806106cc57506106cc85336101f3565b61072a5760405162461bcd60e51b815260206004820152602960248201527f455243313135353a2063616c6c6572206973206e6f74206f776e6572206e6f7260448201526808185c1c1c9bdd995960ba1b60648201526084016102af565b61052f8585858585610c0f565b6003546001600160a01b031633146107615760405162461bcd60e51b81526004016102af9061169e565b6001600160a01b0381166107c65760405162461bcd60e51b815260206004820152602660248201527f4f776e61626c653a206e6577206f776e657220697320746865207a65726f206160448201526564647265737360d01b60648201526084016102af565b6107cf81610adc565b50565b6001600160a01b03163b151590565b6001600160a01b0384166108415760405162461bcd60e51b815260206004820152602160248201527f455243313135353a206d696e7420746f20746865207a65726f206164647265736044820152607360f81b60648201526084016102af565b336108618160008761085288610d2c565b61085b88610d2c565b87610d77565b6000848152602081815260408083206001600160a01b0389168452909152812080548592906108919084906116f7565b909155505060408051858152602081018590526001600160a01b0380881692600092918516917fc3d58168c5ae7397731d063d5bbf3d657854427343f4c083240f7aacaa2d0f62910160405180910390a461052f81600087878787610dfc565b81518351146109535760405162461bcd60e51b815260206004820152602860248201527f455243313135353a2069647320616e6420616d6f756e7473206c656e677468206044820152670dad2e6dac2e8c6d60c31b60648201526084016102af565b6001600160a01b0384166109795760405162461bcd60e51b81526004016102af9061160f565b33610988818787878787610d77565b60005b8451811015610a6e5760008582815181106109a8576109a86117a8565b6020026020010151905060008583815181106109c6576109c66117a8565b602090810291909101810151600084815280835260408082206001600160a01b038e168352909352919091205490915081811015610a165760405162461bcd60e51b81526004016102af90611654565b6000838152602081815260408083206001600160a01b038e8116855292528083208585039055908b16825281208054849290610a539084906116f7565b9250508190555050505080610a6790611777565b905061098b565b50846001600160a01b0316866001600160a01b0316826001600160a01b03167f4a39dc06d4c0dbc64b70af90fd698a233a518aa5d07e595d983b8c0526c8f7fb8787604051610abe929190611586565b60405180910390a4610ad4818787878787610f67565b505050505050565b600380546001600160a01b038381166001600160a01b0319831681179093556040519116919082907f8be0079c531659141344cd1fd0a4f28419497f9722a3daafe3b4186f6b6457e090600090a35050565b816001600160a01b0316836001600160a01b03161415610ba25760405162461bcd60e51b815260206004820152602960248201527f455243313135353a2073657474696e6720617070726f76616c20737461747573604482015268103337b91039b2b63360b91b60648201526084016102af565b6001600160a01b03838116600081815260016020908152604080832094871680845294825291829020805460ff191686151590811790915591519182527f17307eab39ab6107e8899845ad3d59bd9653f200f220920489ca2b5937696c31910160405180910390a3505050565b6001600160a01b038416610c355760405162461bcd60e51b81526004016102af9061160f565b33610c4581878761085288610d2c565b6000848152602081815260408083206001600160a01b038a16845290915290205483811015610c865760405162461bcd60e51b81526004016102af90611654565b6000858152602081815260408083206001600160a01b038b8116855292528083208785039055908816825281208054869290610cc39084906116f7565b909155505060408051868152602081018690526001600160a01b03808916928a821692918616917fc3d58168c5ae7397731d063d5bbf3d657854427343f4c083240f7aacaa2d0f62910160405180910390a4610d23828888888888610dfc565b50505050505050565b60408051600180825281830190925260609160009190602080830190803683370190505090508281600081518110610d6657610d666117a8565b602090810291909101015292915050565b6001600160a01b038516610d8a57610ad4565b6001600160a01b03841660009081526006602052604090205460ff16610ad45760405162461bcd60e51b815260206004820152602160248201527f546869732061646472657373206973206e6f742061757468656e7469636174656044820152601960fa1b60648201526084016102af565b6001600160a01b0384163b15610ad45760405163f23a6e6160e01b81526001600160a01b0385169063f23a6e6190610e40908990899088908890889060040161152e565b602060405180830381600087803b158015610e5a57600080fd5b505af1925050508015610e8a575060408051601f3d908101601f19168201909252610e87918101906113f0565b60015b610f3757610e966117d4565b806308c379a01415610ed05750610eab6117f0565b80610eb65750610ed2565b8060405162461bcd60e51b81526004016102af91906115b4565b505b60405162461bcd60e51b815260206004820152603460248201527f455243313135353a207472616e7366657220746f206e6f6e20455243313135356044820152732932b1b2b4bb32b91034b6b83632b6b2b73a32b960611b60648201526084016102af565b6001600160e01b0319811663f23a6e6160e01b14610d235760405162461bcd60e51b81526004016102af906115c7565b6001600160a01b0384163b15610ad45760405163bc197c8160e01b81526001600160a01b0385169063bc197c8190610fab90899089908890889088906004016114d0565b602060405180830381600087803b158015610fc557600080fd5b505af1925050508015610ff5575060408051601f3d908101601f19168201909252610ff2918101906113f0565b60015b61100157610e966117d4565b6001600160e01b0319811663bc197c8160e01b14610d235760405162461bcd60e51b81526004016102af906115c7565b80356001600160a01b038116811461104857600080fd5b919050565b600082601f83011261105e57600080fd5b8135602061106b826116d3565b604051611078828261174a565b8381528281019150858301600585901b8701840188101561109857600080fd5b60005b858110156110b75781358452928401929084019060010161109b565b5090979650505050505050565b600082601f8301126110d557600080fd5b813567ffffffffffffffff8111156110ef576110ef6117be565b604051611106601f8301601f19166020018261174a565b81815284602083860101111561111b57600080fd5b816020850160208301376000918101602001919091529392505050565b60006020828403121561114a57600080fd5b61115382611031565b9392505050565b6000806040838503121561116d57600080fd5b61117683611031565b915061118460208401611031565b90509250929050565b600080600080600060a086880312156111a557600080fd5b6111ae86611031565b94506111bc60208701611031565b9350604086013567ffffffffffffffff808211156111d957600080fd5b6111e589838a0161104d565b945060608801359150808211156111fb57600080fd5b61120789838a0161104d565b9350608088013591508082111561121d57600080fd5b5061122a888289016110c4565b9150509295509295909350565b600080600080600060a0868803121561124f57600080fd5b61125886611031565b945061126660208701611031565b93506040860135925060608601359150608086013567ffffffffffffffff81111561129057600080fd5b61122a888289016110c4565b600080604083850312156112af57600080fd5b6112b883611031565b9150602083013580151581146112cd57600080fd5b809150509250929050565b600080604083850312156112eb57600080fd5b6112f483611031565b946020939093013593505050565b6000806040838503121561131557600080fd5b823567ffffffffffffffff8082111561132d57600080fd5b818501915085601f83011261134157600080fd5b8135602061134e826116d3565b60405161135b828261174a565b8381528281019150858301600585901b870184018b101561137b57600080fd5b600096505b848710156113a55761139181611031565b835260019690960195918301918301611380565b50965050860135925050808211156113bc57600080fd5b506113c98582860161104d565b9150509250929050565b6000602082840312156113e557600080fd5b81356111538161187a565b60006020828403121561140257600080fd5b81516111538161187a565b60006020828403121561141f57600080fd5b5035919050565b6000806040838503121561143957600080fd5b50508035926020909101359150565b600081518084526020808501945080840160005b838110156114785781518752958201959082019060010161145c565b509495945050505050565b6000815180845260005b818110156114a95760208185018101518683018201520161148d565b818111156114bb576000602083870101525b50601f01601f19169290920160200192915050565b6001600160a01b0386811682528516602082015260a0604082018190526000906114fc90830186611448565b828103606084015261150e8186611448565b905082810360808401526115228185611483565b98975050505050505050565b6001600160a01b03868116825285166020820152604081018490526060810183905260a06080820181905260009061156890830184611483565b979650505050505050565b6020815260006111536020830184611448565b6040815260006115996040830185611448565b82810360208401526115ab8185611448565b95945050505050565b6020815260006111536020830184611483565b60208082526028908201527f455243313135353a204552433131353552656365697665722072656a656374656040820152676420746f6b656e7360c01b606082015260800190565b60208082526025908201527f455243313135353a207472616e7366657220746f20746865207a65726f206164604082015264647265737360d81b606082015260800190565b6020808252602a908201527f455243313135353a20696e73756666696369656e742062616c616e636520666f60408201526939103a3930b739b332b960b11b606082015260800190565b6020808252818101527f4f776e61626c653a2063616c6c6572206973206e6f7420746865206f776e6572604082015260600190565b600067ffffffffffffffff8211156116ed576116ed6117be565b5060051b60200190565b6000821982111561170a5761170a611792565b500190565b600181811c9082168061172357607f821691505b6020821081141561174457634e487b7160e01b600052602260045260246000fd5b50919050565b601f8201601f1916810167ffffffffffffffff81118282101715611770576117706117be565b6040525050565b600060001982141561178b5761178b611792565b5060010190565b634e487b7160e01b600052601160045260246000fd5b634e487b7160e01b600052603260045260246000fd5b634e487b7160e01b600052604160045260246000fd5b600060033d11156117ed5760046000803e5060005160e01c5b90565b600060443d10156117fe5790565b6040516003193d81016004833e81513d67ffffffffffffffff816024840111818411171561182e57505050505090565b82850191508151818111156118465750505050505090565b843d87010160208285010111156118605750505050505090565b61186f6020828601018761174a565b509095945050505050565b6001600160e01b0319811681146107cf57600080fdfea2646970667358221220019981d4b0bf07377eb766d3531c5bf3146091e6f46544e0acadd16cb7d2cdf064736f6c63430008070033697066733a2f2f516d5a557a5a38384858385553426b6147436f7778567a61736669345374734571733554757857595763695537782f6d657461646174612f7b69647d2e6a736f6e",
  "linkReferences": {},
  "deployedLinkReferences": {}
}