{
  "_format": "hh-sol-artifact-1",
  "contractName": "MusicNFT",
  "sourceName": "contracts/MusicNFT.sol",
  "abi": [
    {
      "inputs": [
        {
          "internalType": "address",
          "name": "_lzEndpoint",
          "type": "address"
        },
        {
          "internalType": "uint256",
          "name": "_minMintId",
          "type": "uint256"
        },
        {
          "internalType": "uint256",
          "name": "_maxMintId",
          "type": "uint256"
        }
      ],
      "stateMutability": "nonpayable",
      "type": "constructor"
    },
    {
      "anonymous": false,
      "inputs": [
        {
          "indexed": true,
          "internalType": "address",
          "name": "account",
          "type": "address"
        },
        {
          "indexed": true,
          "internalType": "address",
          "name": "operator",
          "type": "address"
        },
        {
          "indexed": false,
          "internalType": "bool",
          "name": "approved",
          "type": "bool"
        }
      ],
      "name": "ApprovalForAll",
      "type": "event"
    },
    {
      "anonymous": false,
      "inputs": [
        {
          "indexed": false,
          "internalType": "uint16",
          "name": "_srcChainId",
          "type": "uint16"
        },
        {
          "indexed": false,
          "internalType": "bytes",
          "name": "_srcAddress",
          "type": "bytes"
        },
        {
          "indexed": false,
          "internalType": "uint64",
          "name": "_nonce",
          "type": "uint64"
        },
        {
          "indexed": false,
          "internalType": "bytes",
          "name": "_payload",
          "type": "bytes"
        }
      ],
      "name": "MessageFailed",
      "type": "event"
    },
    {
      "anonymous": false,
      "inputs": [
        {
          "indexed": false,
          "internalType": "bool",
          "name": "_onsale",
          "type": "bool"
        }
      ],
      "name": "NowOnSale",
      "type": "event"
    },
    {
      "anonymous": false,
      "inputs": [
        {
          "indexed": true,
          "internalType": "address",
          "name": "previousOwner",
          "type": "address"
        },
        {
          "indexed": true,
          "internalType": "address",
          "name": "newOwner",
          "type": "address"
        }
      ],
      "name": "OwnershipTransferred",
      "type": "event"
    },
    {
      "anonymous": false,
      "inputs": [
        {
          "indexed": false,
          "internalType": "uint16",
          "name": "_srcChainId",
          "type": "uint16"
        },
        {
          "indexed": false,
          "internalType": "address",
          "name": "_toAddress",
          "type": "address"
        },
        {
          "indexed": false,
          "internalType": "uint256",
          "name": "_tokenId",
          "type": "uint256"
        },
        {
          "indexed": false,
          "internalType": "uint64",
          "name": "_nonce",
          "type": "uint64"
        }
      ],
      "name": "ReceiveFromChain",
      "type": "event"
    },
    {
      "anonymous": false,
      "inputs": [
        {
          "indexed": true,
          "internalType": "address",
          "name": "_sender",
          "type": "address"
        },
        {
          "indexed": true,
          "internalType": "uint16",
          "name": "_dstChainId",
          "type": "uint16"
        },
        {
          "indexed": true,
          "internalType": "bytes",
          "name": "_toAddress",
          "type": "bytes"
        },
        {
          "indexed": false,
          "internalType": "uint256",
          "name": "_tokenId",
          "type": "uint256"
        },
        {
          "indexed": false,
          "internalType": "uint64",
          "name": "_nonce",
          "type": "uint64"
        }
      ],
      "name": "SendToChain",
      "type": "event"
    },
    {
      "anonymous": false,
      "inputs": [
        {
          "indexed": false,
          "internalType": "uint16",
          "name": "_srcChainId",
          "type": "uint16"
        },
        {
          "indexed": false,
          "internalType": "bytes",
          "name": "_srcAddress",
          "type": "bytes"
        }
      ],
      "name": "SetTrustedRemote",
      "type": "event"
    },
    {
      "anonymous": false,
      "inputs": [
        {
          "indexed": true,
          "internalType": "address",
          "name": "_from",
          "type": "address"
        },
        {
          "indexed": true,
          "internalType": "address",
          "name": "_to",
          "type": "address"
        },
        {
          "indexed": false,
          "internalType": "uint256",
          "name": "_id",
          "type": "uint256"
        },
        {
          "indexed": false,
          "internalType": "uint256",
          "name": "_amount",
          "type": "uint256"
        }
      ],
      "name": "SoldForGiveaway",
      "type": "event"
    },
    {
      "anonymous": false,
      "inputs": [
        {
          "indexed": true,
          "internalType": "address",
          "name": "_from",
          "type": "address"
        },
        {
          "indexed": true,
          "internalType": "address",
          "name": "_to",
          "type": "address"
        },
        {
          "indexed": false,
          "internalType": "uint256",
          "name": "_id",
          "type": "uint256"
        },
        {
          "indexed": false,
          "internalType": "uint256",
          "name": "_amount",
          "type": "uint256"
        }
      ],
      "name": "SoldForPresale",
      "type": "event"
    },
    {
      "anonymous": false,
      "inputs": [
        {
          "indexed": true,
          "internalType": "address",
          "name": "_from",
          "type": "address"
        },
        {
          "indexed": true,
          "internalType": "address",
          "name": "_to",
          "type": "address"
        },
        {
          "indexed": false,
          "internalType": "uint256",
          "name": "_id",
          "type": "uint256"
        },
        {
          "indexed": false,
          "internalType": "uint256",
          "name": "_amount",
          "type": "uint256"
        }
      ],
      "name": "SoldForPublicSale",
      "type": "event"
    },
    {
      "anonymous": false,
      "inputs": [
        {
          "indexed": true,
          "internalType": "address",
          "name": "operator",
          "type": "address"
        },
        {
          "indexed": true,
          "internalType": "address",
          "name": "from",
          "type": "address"
        },
        {
          "indexed": true,
          "internalType": "address",
          "name": "to",
          "type": "address"
        },
        {
          "indexed": false,
          "internalType": "uint256[]",
          "name": "ids",
          "type": "uint256[]"
        },
        {
          "indexed": false,
          "internalType": "uint256[]",
          "name": "values",
          "type": "uint256[]"
        }
      ],
      "name": "TransferBatch",
      "type": "event"
    },
    {
      "anonymous": false,
      "inputs": [
        {
          "indexed": true,
          "internalType": "address",
          "name": "operator",
          "type": "address"
        },
        {
          "indexed": true,
          "internalType": "address",
          "name": "from",
          "type": "address"
        },
        {
          "indexed": true,
          "internalType": "address",
          "name": "to",
          "type": "address"
        },
        {
          "indexed": false,
          "internalType": "uint256",
          "name": "id",
          "type": "uint256"
        },
        {
          "indexed": false,
          "internalType": "uint256",
          "name": "value",
          "type": "uint256"
        }
      ],
      "name": "TransferSingle",
      "type": "event"
    },
    {
      "anonymous": false,
      "inputs": [
        {
          "indexed": false,
          "internalType": "string",
          "name": "value",
          "type": "string"
        },
        {
          "indexed": true,
          "internalType": "uint256",
          "name": "id",
          "type": "uint256"
        }
      ],
      "name": "URI",
      "type": "event"
    },
    {
      "inputs": [
        {
          "internalType": "string",
          "name": "_EMGuri",
          "type": "string"
        }
      ],
      "name": "EMGreveal",
      "outputs": [],
      "stateMutability": "nonpayable",
      "type": "function"
    },
    {
      "inputs": [
        {
          "internalType": "address",
          "name": "allowAddr",
          "type": "address"
        }
      ],
      "name": "addAllowlist",
      "outputs": [],
      "stateMutability": "nonpayable",
      "type": "function"
    },
    {
      "inputs": [
        {
          "internalType": "address",
          "name": "account",
          "type": "address"
        },
        {
          "internalType": "uint256",
          "name": "id",
          "type": "uint256"
        }
      ],
      "name": "balanceOf",
      "outputs": [
        {
          "internalType": "uint256",
          "name": "",
          "type": "uint256"
        }
      ],
      "stateMutability": "view",
      "type": "function"
    },
    {
      "inputs": [
        {
          "internalType": "address[]",
          "name": "accounts",
          "type": "address[]"
        },
        {
          "internalType": "uint256[]",
          "name": "ids",
          "type": "uint256[]"
        }
      ],
      "name": "balanceOfBatch",
      "outputs": [
        {
          "internalType": "uint256[]",
          "name": "",
          "type": "uint256[]"
        }
      ],
      "stateMutability": "view",
      "type": "function"
    },
    {
      "inputs": [
        {
          "internalType": "uint16",
          "name": "",
          "type": "uint16"
        },
        {
          "internalType": "bytes",
          "name": "",
          "type": "bytes"
        },
        {
          "internalType": "uint256",
          "name": "",
          "type": "uint256"
        }
      ],
      "name": "failedMessages",
      "outputs": [
        {
          "internalType": "bytes32",
          "name": "",
          "type": "bytes32"
        }
      ],
      "stateMutability": "view",
      "type": "function"
    },
    {
      "inputs": [
        {
          "internalType": "uint16",
          "name": "_srcChainId",
          "type": "uint16"
        },
        {
          "internalType": "bytes",
          "name": "_srcAddress",
          "type": "bytes"
        }
      ],
      "name": "forceResumeReceive",
      "outputs": [],
      "stateMutability": "nonpayable",
      "type": "function"
    },
    {
      "inputs": [
        {
          "internalType": "uint16",
          "name": "",
          "type": "uint16"
        },
        {
          "internalType": "uint16",
          "name": "_chainId",
          "type": "uint16"
        },
        {
          "internalType": "address",
          "name": "",
          "type": "address"
        },
        {
          "internalType": "uint256",
          "name": "_configType",
          "type": "uint256"
        }
      ],
      "name": "getConfig",
      "outputs": [
        {
          "internalType": "bytes",
          "name": "",
          "type": "bytes"
        }
      ],
      "stateMutability": "view",
      "type": "function"
    },
    {
      "inputs": [],
      "name": "getLzEndpoint",
      "outputs": [
        {
          "internalType": "address",
          "name": "",
          "type": "address"
        }
      ],
      "stateMutability": "view",
      "type": "function"
    },
    {
      "inputs": [
        {
          "internalType": "uint16",
          "name": "_chainId",
          "type": "uint16"
        }
      ],
      "name": "getTrustedRemote",
      "outputs": [
        {
          "internalType": "bytes",
          "name": "",
          "type": "bytes"
        }
      ],
      "stateMutability": "view",
      "type": "function"
    },
    {
      "inputs": [
        {
          "internalType": "address",
          "name": "account",
          "type": "address"
        },
        {
          "internalType": "address",
          "name": "operator",
          "type": "address"
        }
      ],
      "name": "isApprovedForAll",
      "outputs": [
        {
          "internalType": "bool",
          "name": "",
          "type": "bool"
        }
      ],
      "stateMutability": "view",
      "type": "function"
    },
    {
      "inputs": [
        {
          "internalType": "uint16",
          "name": "_srcChainId",
          "type": "uint16"
        },
        {
          "internalType": "bytes",
          "name": "_srcAddress",
          "type": "bytes"
        }
      ],
      "name": "isTrustedRemote",
      "outputs": [
        {
          "internalType": "bool",
          "name": "",
          "type": "bool"
        }
      ],
      "stateMutability": "view",
      "type": "function"
    },
    {
      "inputs": [
        {
          "internalType": "address",
          "name": "agentAddr",
          "type": "address"
        }
      ],
      "name": "license",
      "outputs": [],
      "stateMutability": "nonpayable",
      "type": "function"
    },
    {
      "inputs": [
        {
          "internalType": "uint16",
          "name": "_srcChainId",
          "type": "uint16"
        },
        {
          "internalType": "bytes",
          "name": "_srcAddress",
          "type": "bytes"
        },
        {
          "internalType": "uint64",
          "name": "_nonce",
          "type": "uint64"
        },
        {
          "internalType": "bytes",
          "name": "_payload",
          "type": "bytes"
        }
      ],
      "name": "lzReceive",
      "outputs": [],
      "stateMutability": "nonpayable",
      "type": "function"
    },
    {
      "inputs": [],
      "name": "maxMintId",
      "outputs": [
        {
          "internalType": "uint256",
          "name": "",
          "type": "uint256"
        }
      ],
      "stateMutability": "view",
      "type": "function"
    },
    {
      "inputs": [],
      "name": "minMintId",
      "outputs": [
        {
          "internalType": "uint256",
          "name": "",
          "type": "uint256"
        }
      ],
      "stateMutability": "view",
      "type": "function"
    },
    {
      "inputs": [
        {
          "internalType": "uint256",
          "name": "_tokenId",
          "type": "uint256"
        },
        {
          "internalType": "uint256",
          "name": "_amount",
          "type": "uint256"
        }
      ],
      "name": "mint",
      "outputs": [],
      "stateMutability": "nonpayable",
      "type": "function"
    },
    {
      "inputs": [
        {
          "internalType": "uint256[]",
          "name": "_tokenIds",
          "type": "uint256[]"
        },
        {
          "internalType": "uint256[]",
          "name": "_amounts",
          "type": "uint256[]"
        }
      ],
      "name": "mintBatch",
      "outputs": [],
      "stateMutability": "nonpayable",
      "type": "function"
    },
    {
      "inputs": [],
      "name": "name",
      "outputs": [
        {
          "internalType": "string",
          "name": "",
          "type": "string"
        }
      ],
      "stateMutability": "view",
      "type": "function"
    },
    {
      "inputs": [
        {
          "internalType": "uint16",
          "name": "_srcChainId",
          "type": "uint16"
        },
        {
          "internalType": "bytes",
          "name": "_srcAddress",
          "type": "bytes"
        },
        {
          "internalType": "uint64",
          "name": "_nonce",
          "type": "uint64"
        },
        {
          "internalType": "bytes",
          "name": "_payload",
          "type": "bytes"
        }
      ],
      "name": "nonblockingLzReceive",
      "outputs": [],
      "stateMutability": "nonpayable",
      "type": "function"
    },
    {
      "inputs": [],
      "name": "owner",
      "outputs": [
        {
          "internalType": "address",
          "name": "",
          "type": "address"
        }
      ],
      "stateMutability": "view",
      "type": "function"
    },
    {
      "inputs": [],
      "name": "releasedLimitations",
      "outputs": [],
      "stateMutability": "nonpayable",
      "type": "function"
    },
    {
      "inputs": [],
      "name": "renounceOwnership",
      "outputs": [],
      "stateMutability": "nonpayable",
      "type": "function"
    },
    {
      "inputs": [
        {
          "internalType": "uint16",
          "name": "_srcChainId",
          "type": "uint16"
        },
        {
          "internalType": "bytes",
          "name": "_srcAddress",
          "type": "bytes"
        },
        {
          "internalType": "uint64",
          "name": "_nonce",
          "type": "uint64"
        },
        {
          "internalType": "bytes",
          "name": "_payload",
          "type": "bytes"
        }
      ],
      "name": "retryMessage",
      "outputs": [],
      "stateMutability": "payable",
      "type": "function"
    },
    {
      "inputs": [],
      "name": "reveal",
      "outputs": [],
      "stateMutability": "nonpayable",
      "type": "function"
    },
    {
      "inputs": [
        {
          "internalType": "address",
          "name": "from",
          "type": "address"
        },
        {
          "internalType": "address",
          "name": "to",
          "type": "address"
        },
        {
          "internalType": "uint256[]",
          "name": "ids",
          "type": "uint256[]"
        },
        {
          "internalType": "uint256[]",
          "name": "amounts",
          "type": "uint256[]"
        },
        {
          "internalType": "bytes",
          "name": "data",
          "type": "bytes"
        }
      ],
      "name": "safeBatchTransferFrom",
      "outputs": [],
      "stateMutability": "nonpayable",
      "type": "function"
    },
    {
      "inputs": [
        {
          "internalType": "address",
          "name": "from",
          "type": "address"
        },
        {
          "internalType": "address",
          "name": "to",
          "type": "address"
        },
        {
          "internalType": "uint256",
          "name": "id",
          "type": "uint256"
        },
        {
          "internalType": "uint256",
          "name": "amount",
          "type": "uint256"
        },
        {
          "internalType": "bytes",
          "name": "data",
          "type": "bytes"
        }
      ],
      "name": "safeTransferFrom",
      "outputs": [],
      "stateMutability": "nonpayable",
      "type": "function"
    },
    {
      "inputs": [
        {
          "internalType": "uint16",
          "name": "_dstChainId",
          "type": "uint16"
        },
        {
          "internalType": "bytes",
          "name": "_toAddress",
          "type": "bytes"
        },
        {
          "internalType": "uint256",
          "name": "_tokenId",
          "type": "uint256"
        },
        {
          "internalType": "address payable",
          "name": "_refundAddress",
          "type": "address"
        },
        {
          "internalType": "address",
          "name": "_zroPaymentAddress",
          "type": "address"
        },
        {
          "internalType": "bytes",
          "name": "_adapterParam",
          "type": "bytes"
        }
      ],
      "name": "send",
      "outputs": [],
      "stateMutability": "payable",
      "type": "function"
    },
    {
      "inputs": [
        {
          "internalType": "address",
          "name": "_from",
          "type": "address"
        },
        {
          "internalType": "uint16",
          "name": "_dstChainId",
          "type": "uint16"
        },
        {
          "internalType": "bytes",
          "name": "_toAddress",
          "type": "bytes"
        },
        {
          "internalType": "uint256",
          "name": "_tokenId",
          "type": "uint256"
        },
        {
          "internalType": "address payable",
          "name": "_refundAddress",
          "type": "address"
        },
        {
          "internalType": "address",
          "name": "_zroPaymentAddress",
          "type": "address"
        },
        {
          "internalType": "bytes",
          "name": "_adapterParam",
          "type": "bytes"
        }
      ],
      "name": "sendFrom",
      "outputs": [],
      "stateMutability": "payable",
      "type": "function"
    },
    {
      "inputs": [
        {
          "internalType": "address",
          "name": "operator",
          "type": "address"
        },
        {
          "internalType": "bool",
          "name": "approved",
          "type": "bool"
        }
      ],
      "name": "setApprovalForAll",
      "outputs": [],
      "stateMutability": "nonpayable",
      "type": "function"
    },
    {
      "inputs": [
        {
          "internalType": "uint16",
          "name": "_version",
          "type": "uint16"
        },
        {
          "internalType": "uint16",
          "name": "_chainId",
          "type": "uint16"
        },
        {
          "internalType": "uint256",
          "name": "_configType",
          "type": "uint256"
        },
        {
          "internalType": "bytes",
          "name": "_config",
          "type": "bytes"
        }
      ],
      "name": "setConfig",
      "outputs": [],
      "stateMutability": "nonpayable",
      "type": "function"
    },
    {
      "inputs": [
        {
          "internalType": "uint16",
          "name": "_version",
          "type": "uint16"
        }
      ],
      "name": "setReceiveVersion",
      "outputs": [],
      "stateMutability": "nonpayable",
      "type": "function"
    },
    {
      "inputs": [
        {
          "internalType": "uint16",
          "name": "_version",
          "type": "uint16"
        }
      ],
      "name": "setSendVersion",
      "outputs": [],
      "stateMutability": "nonpayable",
      "type": "function"
    },
    {
      "inputs": [
        {
          "internalType": "uint16",
          "name": "_srcChainId",
          "type": "uint16"
        },
        {
          "internalType": "bytes",
          "name": "_srcAddress",
          "type": "bytes"
        }
      ],
      "name": "setTrustedRemote",
      "outputs": [],
      "stateMutability": "nonpayable",
      "type": "function"
    },
    {
      "inputs": [],
      "name": "startSale",
      "outputs": [],
      "stateMutability": "nonpayable",
      "type": "function"
    },
    {
      "inputs": [
        {
          "internalType": "bytes4",
          "name": "interfaceId",
          "type": "bytes4"
        }
      ],
      "name": "supportsInterface",
      "outputs": [
        {
          "internalType": "bool",
          "name": "",
          "type": "bool"
        }
      ],
      "stateMutability": "view",
      "type": "function"
    },
    {
      "inputs": [],
      "name": "suspendSale",
      "outputs": [],
      "stateMutability": "nonpayable",
      "type": "function"
    },
    {
      "inputs": [],
      "name": "symbol",
      "outputs": [
        {
          "internalType": "string",
          "name": "",
          "type": "string"
        }
      ],
      "stateMutability": "view",
      "type": "function"
    },
    {
      "inputs": [],
      "name": "totalSupply",
      "outputs": [
        {
          "internalType": "uint256",
          "name": "",
          "type": "uint256"
        }
      ],
      "stateMutability": "view",
      "type": "function"
    },
    {
      "inputs": [
        {
          "internalType": "address",
          "name": "newOwner",
          "type": "address"
        }
      ],
      "name": "transferOwnership",
      "outputs": [],
      "stateMutability": "nonpayable",
      "type": "function"
    },
    {
      "inputs": [
        {
          "internalType": "address",
          "name": "agentAddr",
          "type": "address"
        }
      ],
      "name": "unlicense",
      "outputs": [],
      "stateMutability": "nonpayable",
      "type": "function"
    },
    {
      "inputs": [
        {
          "internalType": "uint256",
          "name": "",
          "type": "uint256"
        }
      ],
      "name": "uri",
      "outputs": [
        {
          "internalType": "string",
          "name": "",
          "type": "string"
        }
      ],
      "stateMutability": "view",
      "type": "function"
    }
  ],
  "bytecode": "0x600c805461ffff19169055610120604052604860a08181529062004b7f60c03980516200003591600d91602090910190620004ac565b503480156200004357600080fd5b5060405162004bc738038062004bc7833981016040819052620000669162000552565b600d8054620000759062000597565b80601f0160208091040260200160405190810160405280929190818152602001828054620000a39062000597565b8015620000f45780601f10620000c857610100808354040283529160200191620000f4565b820191906000526020600020905b815481529060010190602001808311620000d657829003601f168201915b50505050508381818062000117620001116200043f60201b60201c565b62000443565b60601b6001600160601b03191660805250620001338162000493565b5050600f6020525060037f169f97de0d9a84d840042b17d3c6b9638b3d6fd9024c9eb0c7a306a17b49f88f8190557fa74ba3945261e09fde15ba3db55005b205e61eeb4ad811ac0faa2b315bffeead5560027f45f76dafbbad695564362934e24d72eedc57f9fc1a65f39bca62176cc82968288190557f367ccd2d0ac16bf7110a5dffe0801fdc9452a95a1adb7e1a12fe97dd3e9a4edd81905560017f6bda57492eba051cb4a12a1e19df47c9755d78165341d4009b1d09b3f36162048190557fb5a1e7cda73b1608e93d4d50ab796c3d35aa6216cb006a1f920df154d13ff618819055600a7f73dfc495eb54bd6713ffc079b9f5e40f2fecd3793d143759ba0128fbedb402548190557f49a9092dc5c03b26195f6621c97b5cf515cb77afe659e3fe008a73456354eb688190557f3e674ca654b1063e821161bbf601452dd0f1671d575d614ba17ca7f3cdc76039919091557fa13a7a52a9cbb6a90f40d40fbf35f68146be73226e0f48ff16963183fd5684ad8290557f0db0e9d5a07148aa3e0acc10f721b78526b53a3f4f3d07794be76568de7347c582905560147faed549f926a17a28853af2d56b17ad8ad8d799c48d325a734362b810173b772981905560057fe48c37f5ec5b77098fcb2a7935f0925fec1a69796c076c65ed90d9c90ef07dc58190557f61510b1e54e804ee2580bac0a66e3ff0bcf8eecee98d26e41ad5e6195d21ef9f8190557f09567c41c2b819e512ebbfc896a7d795b901b9f15f7637726d97561d5276acb08490557f19a91e2e18c07202ee013c560f8ebffb9b71a05a6a09fdb1d62a413e2117a159939093557f8252d0af7d8ed7c10ea80b7c6f14fb078bd62e077f890e6c18f704b57caaa5fe8290557f765724b689e31218aaf382b54d4ef85ae8209f9da80544d7ed82a51797a64b6d8390557f5f17331c879675a751c0e3884b2f2126ab802511155fffcf04a93b2bacc61e499290925560009190915260097f7c16d5886e618926ff2a48ede610aee33ddc3e26b240b1a3e692dab251ff80af81905592909255905550600680546001600160a01b03191633179055620005d4565b3390565b600080546001600160a01b038381166001600160a01b0319831681178455604051919092169283917f8be0079c531659141344cd1fd0a4f28419497f9722a3daafe3b4186f6b6457e09190a35050565b8051620004a8906005906020840190620004ac565b5050565b828054620004ba9062000597565b90600052602060002090601f016020900481019282620004de576000855562000529565b82601f10620004f957805160ff191683800117855562000529565b8280016001018555821562000529579182015b82811115620005295782518255916020019190600101906200050c565b50620005379291506200053b565b5090565b5b808211156200053757600081556001016200053c565b6000806000606084860312156200056857600080fd5b83516001600160a01b03811681146200058057600080fd5b602085015160409095015190969495509392505050565b600181811c90821680620005ac57607f821691505b60208210811415620005ce57634e487b7160e01b600052602260045260246000fd5b50919050565b60805160601c6145546200062b6000396000818161067d0152818161079601528181610a5701528181610b9601528181610f2b0152818161154e01528181611c2d0152818161217e0152612ef401526145546000f3fe6080604052600436106102445760003560e01c80638da5cb5b11610139578063d1deba1f116100b6578063e985e9c51161007a578063e985e9c5146106b7578063eb8d72b714610700578063eed33cef14610720578063f242432a14610733578063f2fde38b14610753578063f5ecbdbc1461077357600080fd5b8063d1deba1f1461061b578063d351cfdc1461062e578063d6062e441461064e578063dacbcbe21461066e578063e1d4c870146106a157600080fd5b8063a22cb465116100fd578063a22cb4651461059b578063a475b5dd146105bb578063ae578cc1146105d0578063b66a0e5d146105e6578063cbed8b9c146105fb57600080fd5b80638da5cb5b146104d05780638ee749121461050257806393d884091461055157806395d89b41146105665780639d1835db1461057b57600080fd5b80632eb2c2d6116101c75780635f5e07101161018b5780635f5e07101461043b5780635f6928e21461045b57806366ad5c8a1461047b57806369b41f951461049b578063715018a6146104bb57600080fd5b80632eb2c2d61461039b5780633d8b38f6146103bb57806342d65a8d146103db5780634e1273f4146103fb578063519056361461042857600080fd5b80630e89341c1161020e5780630e89341c1461031057806310ddb1371461033057806318160ddd146103505780631b2ef1ca146103665780631b548e991461038657600080fd5b80621d356714610249578062fdd58e1461026b57806301ffc9a71461029e57806306fdde03146102ce57806307e0db17146102f0575b600080fd5b34801561025557600080fd5b50610269610264366004613a41565b610793565b005b34801561027757600080fd5b5061028b6102863660046135c8565b61089c565b6040519081526020015b60405180910390f35b3480156102aa57600080fd5b506102be6102b9366004613712565b610930565b6040519015158152602001610295565b3480156102da57600080fd5b506102e3610982565b6040516102959190613dde565b3480156102fc57600080fd5b5061026961030b366004613816565b610a14565b34801561031c57600080fd5b506102e361032b366004613b7d565b610abf565b34801561033c57600080fd5b5061026961034b366004613816565b610b53565b34801561035c57600080fd5b5061028b600b5481565b34801561037257600080fd5b50610269610381366004613b96565b610bcd565b34801561039257600080fd5b50610269610d3b565b3480156103a757600080fd5b506102696103b63660046133b7565b610d8e565b3480156103c757600080fd5b506102be6103d6366004613850565b610e1e565b3480156103e757600080fd5b506102696103f6366004613850565b610eea565b34801561040757600080fd5b5061041b6104163660046135f4565b610f9b565b6040516102959190613da6565b6102696104363660046134ff565b6110c4565b34801561044757600080fd5b50610269610456366004613361565b611117565b34801561046757600080fd5b50610269610476366004613361565b61117c565b34801561048757600080fd5b50610269610496366004613a41565b6111e4565b3480156104a757600080fd5b506102e36104b6366004613816565b61124a565b3480156104c757600080fd5b5061026961126c565b3480156104dc57600080fd5b506000546001600160a01b03165b6040516001600160a01b039091168152602001610295565b34801561050e57600080fd5b5061028b61051d366004613958565b6002602090815260009384526040808520845180860184018051928152908401958401959095209452929052825290205481565b34801561055d57600080fd5b506102696112a2565b34801561057257600080fd5b506102e3611339565b34801561058757600080fd5b506102696105963660046137ce565b611348565b3480156105a757600080fd5b506102696105b63660046134cc565b611398565b3480156105c757600080fd5b506102696113a7565b3480156105dc57600080fd5b5061028b60095481565b3480156105f257600080fd5b5061026961147e565b34801561060757600080fd5b50610269610616366004613b1c565b61150d565b6102696106293660046139b0565b6115b9565b34801561063a57600080fd5b506102696106493660046136c6565b61175f565b34801561065a57600080fd5b50610269610669366004613361565b6119f5565b34801561067a57600080fd5b507f00000000000000000000000000000000000000000000000000000000000000006104ea565b3480156106ad57600080fd5b5061028b600a5481565b3480156106c357600080fd5b506102be6106d236600461337e565b6001600160a01b03918216600090815260046020908152604080832093909416825291909152205460ff1690565b34801561070c57600080fd5b5061026961071b366004613850565b611a5d565b61026961072e3660046138a4565b611ae6565b34801561073f57600080fd5b5061026961074e366004613464565b611b38565b34801561075f57600080fd5b5061026961076e366004613361565b611b7d565b34801561077f57600080fd5b506102e361078e366004613acb565b611c15565b337f00000000000000000000000000000000000000000000000000000000000000006001600160a01b0316146107c857600080fd5b61ffff8416600090815260016020526040902080546107e690614345565b90508351148015610825575061ffff84166000908152600160205260409081902090516108139190613c91565b60405180910390208380519060200120145b61088a5760405162461bcd60e51b815260206004820152602b60248201527f4c7a52656365697665723a20696e76616c696420736f757263652073656e646960448201526a1b99c818dbdb9d1c9858dd60aa1b60648201526084015b60405180910390fd5b61089684848484611d4b565b50505050565b60006001600160a01b0383166109085760405162461bcd60e51b815260206004820152602b60248201527f455243313135353a2062616c616e636520717565727920666f7220746865207a60448201526a65726f206164647265737360a81b6064820152608401610881565b5060009081526003602090815260408083206001600160a01b03949094168352929052205490565b60006001600160e01b03198216636cdb3d1360e11b148061096157506001600160e01b031982166303a24d0760e21b145b8061097c57506301ffc9a760e01b6001600160e01b03198316145b92915050565b60606007805461099190614345565b80601f01602080910402602001604051908101604052809291908181526020018280546109bd90614345565b8015610a0a5780601f106109df57610100808354040283529160200191610a0a565b820191906000526020600020905b8154815290600101906020018083116109ed57829003601f168201915b5050505050905090565b6000546001600160a01b03163314610a3e5760405162461bcd60e51b815260040161088190613f82565b6040516307e0db1760e01b815261ffff821660048201527f00000000000000000000000000000000000000000000000000000000000000006001600160a01b0316906307e0db17906024015b600060405180830381600087803b158015610aa457600080fd5b505af1158015610ab8573d6000803e3d6000fd5b5050505050565b606060058054610ace90614345565b80601f0160208091040260200160405190810160405280929190818152602001828054610afa90614345565b8015610b475780601f10610b1c57610100808354040283529160200191610b47565b820191906000526020600020905b815481529060010190602001808311610b2a57829003601f168201915b50505050509050919050565b6000546001600160a01b03163314610b7d5760405162461bcd60e51b815260040161088190613f82565b6040516310ddb13760e01b815261ffff821660048201527f00000000000000000000000000000000000000000000000000000000000000006001600160a01b0316906310ddb13790602401610a8a565b6006546001600160a01b0316331480610bf557503360009081526011602052604090205460ff165b610c115760405162461bcd60e51b815260040161088190613ee9565b6000828152600f6020908152604080832054600e9092529091205483918391610c3b908390614301565b1115610c7e5760405162461bcd60e51b815260206004820152601260248201527113585e081cdd5c1c1b1e481c995858da195960721b6044820152606401610881565b6009548410158015610c925750600a548411155b610cae5760405162461bcd60e51b815260040161088190613ff8565b6000848152600e602052604081208054859290610ccc908490614301565b9250508190555082600b6000828254610ce59190614301565b90915550610d06905033858560405180602001604052806000815250611e3c565b6040805185815260208101859052339160009183916000805160206144ff83398151915291015b60405180910390a450505050565b6006546001600160a01b0316331480610d6357503360009081526011602052604090205460ff165b610d7f5760405162461bcd60e51b815260040161088190613ee9565b600c805460ff19166001179055565b6001600160a01b038516331480610daa5750610daa85336106d2565b610e115760405162461bcd60e51b815260206004820152603260248201527f455243313135353a207472616e736665722063616c6c6572206973206e6f74206044820152711bdddb995c881b9bdc88185c1c1c9bdd995960721b6064820152608401610881565b610ab88585858585611f02565b61ffff831660009081526001602052604081208054829190610e3f90614345565b80601f0160208091040260200160405190810160405280929190818152602001828054610e6b90614345565b8015610eb85780601f10610e8d57610100808354040283529160200191610eb8565b820191906000526020600020905b815481529060010190602001808311610e9b57829003601f168201915b505050505090508383604051610ecf929190613c65565b60405180910390208180519060200120149150509392505050565b6000546001600160a01b03163314610f145760405162461bcd60e51b815260040161088190613f82565b6040516342d65a8d60e01b81526001600160a01b037f000000000000000000000000000000000000000000000000000000000000000016906342d65a8d90610f649086908690869060040161410e565b600060405180830381600087803b158015610f7e57600080fd5b505af1158015610f92573d6000803e3d6000fd5b50505050505050565b606081518351146110005760405162461bcd60e51b815260206004820152602960248201527f455243313135353a206163636f756e747320616e6420696473206c656e677468604482015268040dad2e6dac2e8c6d60bb1b6064820152608401610881565b600083516001600160401b0381111561101b5761101b6143f3565b604051908082528060200260200182016040528015611044578160200160208202803683370190505b50905060005b84518110156110bc5761108f858281518110611068576110686143dd565b6020026020010151858381518110611082576110826143dd565b602002602001015161089c565b8282815181106110a1576110a16143dd565b60209081029190910101526110b5816143ac565b905061104a565b509392505050565b61110c898989898080601f0160208091040260200160405190810160405280939291908181526020018383808284376000920191909152508b92508a915089905088886120af565b505050505050505050565b6006546001600160a01b031633148061113f57503360009081526011602052604090205460ff165b61115b5760405162461bcd60e51b815260040161088190613ee9565b6001600160a01b03166000908152601160205260409020805460ff19169055565b6006546001600160a01b03163314806111a457503360009081526011602052604090205460ff165b6111c05760405162461bcd60e51b815260040161088190613ee9565b6001600160a01b03166000908152601060205260409020805460ff19166001179055565b33301461123e5760405162461bcd60e51b815260206004820152602260248201527f4c7a52656365697665723a2063616c6c6572206d757374206265204272696467604482015261329760f11b6064820152608401610881565b6108968484848461226e565b61ffff81166000908152600160205260409020805460609190610ace90614345565b6000546001600160a01b031633146112965760405162461bcd60e51b815260040161088190613f82565b6112a060006122ff565b565b6006546001600160a01b03163314806112ca57503360009081526011602052604090205460ff165b6112e65760405162461bcd60e51b815260040161088190613ee9565b600c805461ff001916908190556040517f550905f1da7012a5beef71875850a6d1570b14618f64bdcc3cb876b9a231f5a39161132f9161010090910460ff161515815260200190565b60405180910390a1565b60606008805461099190614345565b6006546001600160a01b031633148061137057503360009081526011602052604090205460ff165b61138c5760405162461bcd60e51b815260040161088190613ee9565b6113958161234f565b50565b6113a3338383612362565b5050565b6006546001600160a01b03163314806113cf57503360009081526011602052604090205460ff165b6113eb5760405162461bcd60e51b815260040161088190613ee9565b6112a0600d80546113fb90614345565b80601f016020809104026020016040519081016040528092919081815260200182805461142790614345565b80156114745780601f1061144957610100808354040283529160200191611474565b820191906000526020600020905b81548152906001019060200180831161145757829003601f168201915b505050505061234f565b6006546001600160a01b03163314806114a657503360009081526011602052604090205460ff165b6114c25760405162461bcd60e51b815260040161088190613ee9565b600c805461ff001916610100908117918290556040517f550905f1da7012a5beef71875850a6d1570b14618f64bdcc3cb876b9a231f5a39261132f92900460ff161515815260200190565b6000546001600160a01b031633146115375760405162461bcd60e51b815260040161088190613f82565b6040516332fb62e760e21b81526001600160a01b037f0000000000000000000000000000000000000000000000000000000000000000169063cbed8b9c9061158b9088908890889088908890600401614289565b600060405180830381600087803b1580156115a557600080fd5b505af115801561110c573d6000803e3d6000fd5b61ffff851660009081526002602052604080822090516115da908790613c75565b90815260408051602092819003830190206001600160401b0387166000908152925290205490508061164e5760405162461bcd60e51b815260206004820152601d60248201527f4c7a52656365697665723a206e6f2073746f726564206d6573736167650000006044820152606401610881565b80838360405161165f929190613c65565b6040518091039020146116b45760405162461bcd60e51b815260206004820152601b60248201527f4c7a52656365697665723a20696e76616c6964207061796c6f616400000000006044820152606401610881565b61ffff861660009081526002602052604080822090516116d5908890613c75565b9081526040805191829003602090810183206001600160401b038916600090815291522091909155633356ae4560e11b815230906366ad5c8a90611725908990899089908990899060040161412c565b600060405180830381600087803b15801561173f57600080fd5b505af1158015611753573d6000803e3d6000fd5b50505050505050505050565b6006546001600160a01b031633148061178757503360009081526011602052604090205460ff165b6117a35760405162461bcd60e51b815260040161088190613ee9565b818160005b825181101561188457600f60008483815181106117c7576117c76143dd565b60200260200101518152602001908152602001600020548282815181106117f0576117f06143dd565b6020026020010151600e600086858151811061180e5761180e6143dd565b602002602001015181526020019081526020016000205461182f9190614301565b11156118725760405162461bcd60e51b815260206004820152601260248201527113585e081cdd5c1c1b1e481c995858da195960721b6044820152606401610881565b8061187c816143ac565b9150506117a8565b5060005b8451811015611992576009548582815181106118a6576118a66143dd565b6020026020010151101580156118d75750600a548582815181106118cc576118cc6143dd565b602002602001015111155b6118f35760405162461bcd60e51b815260040161088190613ff8565b838181518110611905576119056143dd565b6020026020010151600e6000878481518110611923576119236143dd565b6020026020010151815260200190815260200160002060008282546119489190614301565b92505081905550838181518110611961576119616143dd565b6020026020010151600b600082825461197a9190614301565b9091555081905061198a816143ac565b915050611888565b506119ae33858560405180602001604052806000815250612443565b336001600160a01b03166000336001600160a01b03167f4a39dc06d4c0dbc64b70af90fd698a233a518aa5d07e595d983b8c0526c8f7fb8787604051610d2d929190613db9565b6006546001600160a01b0316331480611a1d57503360009081526011602052604090205460ff165b611a395760405162461bcd60e51b815260040161088190613ee9565b6001600160a01b03166000908152601160205260409020805460ff19166001179055565b6000546001600160a01b03163314611a875760405162461bcd60e51b815260040161088190613f82565b61ffff83166000908152600160205260409020611aa59083836130d9565b507ffa41487ad5d6728f0b19276fa1eddc16558578f5109fc39d2dc33c3230470dab838383604051611ad99392919061410e565b60405180910390a1505050565b611b2e338989898080601f0160208091040260200160405190810160405280939291908181526020018383808284376000920191909152508b92508a915089905088886120af565b5050505050505050565b6001600160a01b038516331480611b545750611b5485336106d2565b611b705760405162461bcd60e51b815260040161088190613e5b565b610ab8858585858561259e565b6000546001600160a01b03163314611ba75760405162461bcd60e51b815260040161088190613f82565b6001600160a01b038116611c0c5760405162461bcd60e51b815260206004820152602660248201527f4f776e61626c653a206e6577206f776e657220697320746865207a65726f206160448201526564647265737360d01b6064820152608401610881565b611395816122ff565b6040516304b2b47b60e11b81523060048201526060907f00000000000000000000000000000000000000000000000000000000000000006001600160a01b03169063f5ecbdbc90829063096568f69060240160206040518083038186803b158015611c7f57600080fd5b505afa158015611c93573d6000803e3d6000fd5b505050506040513d601f19601f82011682018060405250810190611cb79190613833565b6040516001600160e01b031960e084901b16815261ffff918216600482015290871660248201523060448201526064810185905260840160006040518083038186803b158015611d0657600080fd5b505afa158015611d1a573d6000803e3d6000fd5b505050506040513d6000823e601f3d908101601f19168201604052611d42919081019061374c565b95945050505050565b604051633356ae4560e11b815230906366ad5c8a90611d7490879087908790879060040161416b565b600060405180830381600087803b158015611d8e57600080fd5b505af1925050508015611d9f575060015b610896578080519060200120600260008661ffff1661ffff16815260200190815260200160002084604051611dd49190613c75565b9081526040805191829003602090810183206001600160401b0387166000908152915220919091557fe6f254030bcb01ffd20558175c13fcaed6d1520be7becee4c961b65f79243b0d90611e2f90869086908690869061416b565b60405180910390a1610896565b6001600160a01b038416611e625760405162461bcd60e51b8152600401610881906140cd565b33611e8281600087611e73886126a4565b611e7c886126a4565b876126ef565b60008481526003602090815260408083206001600160a01b038916845290915281208054859290611eb4908490614301565b909155505060408051858152602081018590526001600160a01b0380881692600092918516916000805160206144ff833981519152910160405180910390a4610ab881600087878787612c00565b8151835114611f235760405162461bcd60e51b815260040161088190614085565b6001600160a01b038416611f495760405162461bcd60e51b815260040161088190613ea4565b33611f588187878787876126ef565b60005b8451811015612041576000858281518110611f7857611f786143dd565b602002602001015190506000858381518110611f9657611f966143dd565b60209081029190910181015160008481526003835260408082206001600160a01b038e168352909352919091205490915081811015611fe75760405162461bcd60e51b815260040161088190613f38565b60008381526003602090815260408083206001600160a01b038e8116855292528083208585039055908b16825281208054849290612026908490614301565b925050819055505050508061203a906143ac565b9050611f5b565b50846001600160a01b0316866001600160a01b0316826001600160a01b03167f4a39dc06d4c0dbc64b70af90fd698a233a518aa5d07e595d983b8c0526c8f7fb8787604051612091929190613db9565b60405180910390a46120a7818787878787612d6b565b505050505050565b6001600160a01b0388163314806120cb57506120cb88336106d2565b6120e75760405162461bcd60e51b815260040161088190613e5b565b6120f388888888612e35565b60008686604051602001612108929190613df1565b604051602081830303815290604052905061215c8882878787878080601f016020809104026020016040519081016040528093929190818152602001838380828437600092019190915250612e4192505050565b604051630f428ae960e31b815261ffff891660048201523060248201526000907f00000000000000000000000000000000000000000000000000000000000000006001600160a01b031690637a1457489060440160206040518083038186803b1580156121c857600080fd5b505afa1580156121dc573d6000803e3d6000fd5b505050506040513d601f19601f820116820180604052508101906122009190613bb8565b9050876040516122109190613c75565b604080519182900382208983526001600160401b03841660208401529161ffff8c16916001600160a01b038e16917f024797cc77ce15dc717112d54fb1df125fdfd8c81344fb046c5e074427ce1543910160405180910390a4611753565b600080828060200190518101906122859190613788565b6014820151919350915061229a878284612f52565b6040805161ffff891681526001600160a01b03831660208201529081018390526001600160401b03861660608201527fd4d39d20f72eabd06c301e516d54653dfc9116de62c1d54bf1cb48cf3b42a7db9060800160405180910390a150505050505050565b600080546001600160a01b038381166001600160a01b0319831681178455604051919092169283917f8be0079c531659141344cd1fd0a4f28419497f9722a3daafe3b4186f6b6457e09190a35050565b80516113a390600590602084019061315d565b816001600160a01b0316836001600160a01b031614156123d65760405162461bcd60e51b815260206004820152602960248201527f455243313135353a2073657474696e6720617070726f76616c20737461747573604482015268103337b91039b2b63360b91b6064820152608401610881565b6001600160a01b03838116600081815260046020908152604080832094871680845294825291829020805460ff191686151590811790915591519182527f17307eab39ab6107e8899845ad3d59bd9653f200f220920489ca2b5937696c31910160405180910390a3505050565b6001600160a01b0384166124695760405162461bcd60e51b8152600401610881906140cd565b815183511461248a5760405162461bcd60e51b815260040161088190614085565b3361249a816000878787876126ef565b60005b8451811015612536578381815181106124b8576124b86143dd565b6020026020010151600360008784815181106124d6576124d66143dd565b602002602001015181526020019081526020016000206000886001600160a01b03166001600160a01b03168152602001908152602001600020600082825461251e9190614301565b9091555081905061252e816143ac565b91505061249d565b50846001600160a01b031660006001600160a01b0316826001600160a01b03167f4a39dc06d4c0dbc64b70af90fd698a233a518aa5d07e595d983b8c0526c8f7fb8787604051612587929190613db9565b60405180910390a4610ab881600087878787612d6b565b6001600160a01b0384166125c45760405162461bcd60e51b815260040161088190613ea4565b336125d4818787611e73886126a4565b60008481526003602090815260408083206001600160a01b038a168452909152902054838110156126175760405162461bcd60e51b815260040161088190613f38565b60008581526003602090815260408083206001600160a01b038b8116855292528083208785039055908816825281208054869290612656908490614301565b909155505060408051868152602081018690526001600160a01b03808916928a821692918616916000805160206144ff833981519152910160405180910390a4610f92828888888888612c00565b604080516001808252818301909252606091600091906020808301908036833701905050905082816000815181106126de576126de6143dd565b602090810291909101015292915050565b6001600160a01b038516158061270c57506001600160a01b038416155b8061272557506000546001600160a01b03868116911614155b1561272f576120a7565b600c54610100900460ff1661277e5760405162461bcd60e51b815260206004820152601560248201527453616c652069732073757370656e646564206e6f7760581b6044820152606401610881565b600c54610100900460ff1680156127985750600c5460ff16155b156120a75760005b8351811015610f925760028482815181106127bd576127bd6143dd565b6020026020010151116128e9576001600160a01b03851660009081526010602052604090205460ff166128025760405162461bcd60e51b815260040161088190613fb7565b6001838281518110612816576128166143dd565b602002602001015161283487878581518110611082576110826143dd565b61283e9190614301565b111561285c5760405162461bcd60e51b81526004016108819061403c565b846001600160a01b0316866001600160a01b03167fae4f547fa32bbfb0aacef985ccda1764fe4c357ccd59f52d389308624e764f068684815181106128a3576128a36143dd565b60200260200101518685815181106128bd576128bd6143dd565b60200260200101516040516128dc929190918252602082015260400190565b60405180910390a3612bee565b60048482815181106128fd576128fd6143dd565b6020026020010151116129ab57600183828151811061291e5761291e6143dd565b602002602001015161293c87878581518110611082576110826143dd565b6129469190614301565b11156129645760405162461bcd60e51b81526004016108819061403c565b846001600160a01b0316866001600160a01b03167f9ee02141e53f94da9d53ecdc053896751d8482788078a5a339cc9654d67d9bc48684815181106128a3576128a36143dd565b60098482815181106129bf576129bf6143dd565b602002602001015111612a10576006546001600160a01b03163314806129f457503360009081526011602052604090205460ff165b6129645760405162461bcd60e51b815260040161088190613ee9565b600b848281518110612a2457612a246143dd565b602002602001015111612a69576001600160a01b03851660009081526010602052604090205460ff166128025760405162461bcd60e51b815260040161088190613fb7565b600e848281518110612a7d57612a7d6143dd565b602002602001015111612ad6576001600160a01b03851660009081526010602052604090205460ff16612ac25760405162461bcd60e51b815260040161088190613fb7565b6002838281518110612816576128166143dd565b6010848281518110612aea57612aea6143dd565b602002602001015111612b0b57600183828151811061291e5761291e6143dd565b6002838281518110612b1f57612b1f6143dd565b6020026020010151612b3d87878581518110611082576110826143dd565b612b479190614301565b1115612b655760405162461bcd60e51b81526004016108819061403c565b846001600160a01b0316866001600160a01b03167fae4f547fa32bbfb0aacef985ccda1764fe4c357ccd59f52d389308624e764f06868481518110612bac57612bac6143dd565b6020026020010151868581518110612bc657612bc66143dd565b6020026020010151604051612be5929190918252602082015260400190565b60405180910390a35b80612bf8816143ac565b9150506127a0565b6001600160a01b0384163b156120a75760405163f23a6e6160e01b81526001600160a01b0385169063f23a6e6190612c449089908990889088908890600401613d61565b602060405180830381600087803b158015612c5e57600080fd5b505af1925050508015612c8e575060408051601f3d908101601f19168201909252612c8b9181019061372f565b60015b612d3b57612c9a614409565b806308c379a01415612cd45750612caf614425565b80612cba5750612cd6565b8060405162461bcd60e51b81526004016108819190613dde565b505b60405162461bcd60e51b815260206004820152603460248201527f455243313135353a207472616e7366657220746f206e6f6e20455243313135356044820152732932b1b2b4bb32b91034b6b83632b6b2b73a32b960611b6064820152608401610881565b6001600160e01b0319811663f23a6e6160e01b14610f925760405162461bcd60e51b815260040161088190613e13565b6001600160a01b0384163b156120a75760405163bc197c8160e01b81526001600160a01b0385169063bc197c8190612daf9089908990889088908890600401613d03565b602060405180830381600087803b158015612dc957600080fd5b505af1925050508015612df9575060408051601f3d908101601f19168201909252612df69181019061372f565b60015b612e0557612c9a614409565b6001600160e01b0319811663bc197c8160e01b14610f925760405162461bcd60e51b815260040161088190613e13565b61089633826001612f6e565b61ffff851660009081526001602052604090208054612e5f90614345565b15159050612eca5760405162461bcd60e51b815260206004820152603260248201527f4c7a53656e643a2064657374696e6174696f6e20636861696e206973206e6f746044820152711030903a393ab9ba32b21039b7bab931b29760711b6064820152608401610881565b61ffff851660009081526001602052604090819020905162c5803160e81b81526001600160a01b037f0000000000000000000000000000000000000000000000000000000000000000169163c5803100913491612f34918a91908a908a908a908a906004016141a9565b6000604051808303818588803b15801561173f57600080fd5b505050565b612f4d8282600160405180602001604052806000815250611e3c565b6001600160a01b038316612fd05760405162461bcd60e51b815260206004820152602360248201527f455243313135353a206275726e2066726f6d20746865207a65726f206164647260448201526265737360e81b6064820152608401610881565b33612fff81856000612fe1876126a4565b612fea876126a4565b604051806020016040528060008152506126ef565b60008381526003602090815260408083206001600160a01b03881684529091529020548281101561307e5760405162461bcd60e51b8152602060048201526024808201527f455243313135353a206275726e20616d6f756e7420657863656564732062616c604482015263616e636560e01b6064820152608401610881565b60008481526003602090815260408083206001600160a01b03898116808652918452828520888703905582518981529384018890529092908616916000805160206144ff833981519152910160405180910390a45050505050565b8280546130e590614345565b90600052602060002090601f016020900481019282613107576000855561314d565b82601f106131205782800160ff1982351617855561314d565b8280016001018555821561314d579182015b8281111561314d578235825591602001919060010190613132565b506131599291506131d1565b5090565b82805461316990614345565b90600052602060002090601f01602090048101928261318b576000855561314d565b82601f106131a457805160ff191683800117855561314d565b8280016001018555821561314d579182015b8281111561314d5782518255916020019190600101906131b6565b5b8082111561315957600081556001016131d2565b60006131f1836142da565b6040516131fe8282614380565b80925084815285858501111561321357600080fd5b8484602083013760006020868301015250509392505050565b600082601f83011261323d57600080fd5b8135602061324a826142b7565b6040516132578282614380565b8381528281019150858301600585901b8701840188101561327757600080fd5b60005b858110156132965781358452928401929084019060010161327a565b5090979650505050505050565b60008083601f8401126132b557600080fd5b5081356001600160401b038111156132cc57600080fd5b6020830191508360208285010111156132e457600080fd5b9250929050565b600082601f8301126132fc57600080fd5b61330b838335602085016131e6565b9392505050565b600082601f83011261332357600080fd5b815161332e816142da565b60405161333b8282614380565b82815285602084870101111561335057600080fd5b611d42836020830160208801614319565b60006020828403121561337357600080fd5b813561330b816144ae565b6000806040838503121561339157600080fd5b823561339c816144ae565b915060208301356133ac816144ae565b809150509250929050565b600080600080600060a086880312156133cf57600080fd5b85356133da816144ae565b945060208601356133ea816144ae565b935060408601356001600160401b038082111561340657600080fd5b61341289838a0161322c565b9450606088013591508082111561342857600080fd5b61343489838a0161322c565b9350608088013591508082111561344a57600080fd5b50613457888289016132eb565b9150509295509295909350565b600080600080600060a0868803121561347c57600080fd5b8535613487816144ae565b94506020860135613497816144ae565b9350604086013592506060860135915060808601356001600160401b038111156134c057600080fd5b613457888289016132eb565b600080604083850312156134df57600080fd5b82356134ea816144ae565b9150602083013580151581146133ac57600080fd5b600080600080600080600080600060e08a8c03121561351d57600080fd5b8935613528816144ae565b985060208a0135613538816144d9565b975060408a01356001600160401b038082111561355457600080fd5b6135608d838e016132a3565b909950975060608c0135965060808c0135915061357c826144ae565b90945060a08b01359061358e826144ae565b90935060c08b013590808211156135a457600080fd5b506135b18c828d016132a3565b915080935050809150509295985092959850929598565b600080604083850312156135db57600080fd5b82356135e6816144ae565b946020939093013593505050565b6000806040838503121561360757600080fd5b82356001600160401b038082111561361e57600080fd5b818501915085601f83011261363257600080fd5b8135602061363f826142b7565b60405161364c8282614380565b8381528281019150858301600585901b870184018b101561366c57600080fd5b600096505b84871015613698578035613684816144ae565b835260019690960195918301918301613671565b50965050860135925050808211156136af57600080fd5b506136bc8582860161322c565b9150509250929050565b600080604083850312156136d957600080fd5b82356001600160401b03808211156136f057600080fd5b6136fc8683870161322c565b935060208501359150808211156136af57600080fd5b60006020828403121561372457600080fd5b813561330b816144c3565b60006020828403121561374157600080fd5b815161330b816144c3565b60006020828403121561375e57600080fd5b81516001600160401b0381111561377457600080fd5b61378084828501613312565b949350505050565b6000806040838503121561379b57600080fd5b82516001600160401b038111156137b157600080fd5b6137bd85828601613312565b925050602083015190509250929050565b6000602082840312156137e057600080fd5b81356001600160401b038111156137f657600080fd5b8201601f8101841361380757600080fd5b613780848235602084016131e6565b60006020828403121561382857600080fd5b813561330b816144d9565b60006020828403121561384557600080fd5b815161330b816144d9565b60008060006040848603121561386557600080fd5b8335613870816144d9565b925060208401356001600160401b0381111561388b57600080fd5b613897868287016132a3565b9497909650939450505050565b60008060008060008060008060c0898b0312156138c057600080fd5b88356138cb816144d9565b975060208901356001600160401b03808211156138e757600080fd5b6138f38c838d016132a3565b909950975060408b0135965060608b0135915061390f826144ae565b90945060808a013590613921826144ae565b90935060a08a0135908082111561393757600080fd5b506139448b828c016132a3565b999c989b5096995094979396929594505050565b60008060006060848603121561396d57600080fd5b8335613978816144d9565b925060208401356001600160401b0381111561399357600080fd5b61399f868287016132eb565b925050604084013590509250925092565b6000806000806000608086880312156139c857600080fd5b85356139d3816144d9565b945060208601356001600160401b03808211156139ef57600080fd5b6139fb89838a016132eb565b955060408801359150613a0d826144e9565b90935060608701359080821115613a2357600080fd5b50613a30888289016132a3565b969995985093965092949392505050565b60008060008060808587031215613a5757600080fd5b8435613a62816144d9565b935060208501356001600160401b0380821115613a7e57600080fd5b613a8a888389016132eb565b945060408701359150613a9c826144e9565b90925060608601359080821115613ab257600080fd5b50613abf878288016132eb565b91505092959194509250565b60008060008060808587031215613ae157600080fd5b8435613aec816144d9565b93506020850135613afc816144d9565b92506040850135613b0c816144ae565b9396929550929360600135925050565b600080600080600060808688031215613b3457600080fd5b8535613b3f816144d9565b94506020860135613b4f816144d9565b93506040860135925060608601356001600160401b03811115613b7157600080fd5b613a30888289016132a3565b600060208284031215613b8f57600080fd5b5035919050565b60008060408385031215613ba957600080fd5b50508035926020909101359150565b600060208284031215613bca57600080fd5b815161330b816144e9565b600081518084526020808501945080840160005b83811015613c0557815187529582019590820190600101613be9565b509495945050505050565b81835281816020850137506000828201602090810191909152601f909101601f19169091010190565b60008151808452613c51816020860160208601614319565b601f01601f19169290920160200192915050565b8183823760009101908152919050565b60008251613c87818460208701614319565b9190910192915050565b6000808354613c9f81614345565b60018281168015613cb75760018114613cc857613cf7565b60ff19841687528287019450613cf7565b8760005260208060002060005b85811015613cee5781548a820152908401908201613cd5565b50505082870194505b50929695505050505050565b6001600160a01b0386811682528516602082015260a060408201819052600090613d2f90830186613bd5565b8281036060840152613d418186613bd5565b90508281036080840152613d558185613c39565b98975050505050505050565b6001600160a01b03868116825285166020820152604081018490526060810183905260a060808201819052600090613d9b90830184613c39565b979650505050505050565b60208152600061330b6020830184613bd5565b604081526000613dcc6040830185613bd5565b8281036020840152611d428185613bd5565b60208152600061330b6020830184613c39565b604081526000613e046040830185613c39565b90508260208301529392505050565b60208082526028908201527f455243313135353a204552433131353552656365697665722072656a656374656040820152676420746f6b656e7360c01b606082015260800190565b60208082526029908201527f455243313135353a2063616c6c6572206973206e6f74206f776e6572206e6f7260408201526808185c1c1c9bdd995960ba1b606082015260800190565b60208082526025908201527f455243313135353a207472616e7366657220746f20746865207a65726f206164604082015264647265737360d81b606082015260800190565b6020808252602f908201527f54686973206973206e6f7420616c6c6f7765642065786365707420666f72206360408201526e1c99585d1bdc881bdc881859d95b9d608a1b606082015260800190565b6020808252602a908201527f455243313135353a20696e73756666696369656e742062616c616e636520666f60408201526939103a3930b739b332b960b11b606082015260800190565b6020808252818101527f4f776e61626c653a2063616c6c6572206973206e6f7420746865206f776e6572604082015260600190565b60208082526021908201527f546869732061646472657373206973206e6f742061757468656e7469636174656040820152601960fa1b606082015260800190565b60208082526024908201527f746f6b656e4964206973206e6f7420616c6c6f776564206f6e207468697320636040820152633430b4b760e11b606082015260800190565b60208082526029908201527f43616e2774206275792073616d6520736f6e6773206d6f7265207468616e20746040820152681ddbc81c9958dbdc9960ba1b606082015260800190565b60208082526028908201527f455243313135353a2069647320616e6420616d6f756e7473206c656e677468206040820152670dad2e6dac2e8c6d60c31b606082015260800190565b60208082526021908201527f455243313135353a206d696e7420746f20746865207a65726f206164647265736040820152607360f81b606082015260800190565b61ffff84168152604060208201526000611d42604083018486613c10565b61ffff861681526080602082015260006141496080830187613c39565b6001600160401b03861660408401528281036060840152613d55818587613c10565b61ffff851681526080602082015260006141886080830186613c39565b6001600160401b03851660408401528281036060840152613d9b8185613c39565b61ffff871681526000602060c081840152600088546141c781614345565b8060c087015260e06001808416600081146141e957600181146141fe5761422c565b60ff198516898401526101008901955061422c565b8d6000528660002060005b858110156142245781548b8201860152908301908801614209565b8a0184019650505b505050505083810360408501526142438189613c39565b91505061425b60608401876001600160a01b03169052565b6001600160a01b038516608084015282810360a084015261427c8185613c39565b9998505050505050505050565b600061ffff808816835280871660208401525084604083015260806060830152613d9b608083018486613c10565b60006001600160401b038211156142d0576142d06143f3565b5060051b60200190565b60006001600160401b038211156142f3576142f36143f3565b50601f01601f191660200190565b60008219821115614314576143146143c7565b500190565b60005b8381101561433457818101518382015260200161431c565b838111156108965750506000910152565b600181811c9082168061435957607f821691505b6020821081141561437a57634e487b7160e01b600052602260045260246000fd5b50919050565b601f8201601f191681016001600160401b03811182821017156143a5576143a56143f3565b6040525050565b60006000198214156143c0576143c06143c7565b5060010190565b634e487b7160e01b600052601160045260246000fd5b634e487b7160e01b600052603260045260246000fd5b634e487b7160e01b600052604160045260246000fd5b600060033d11156144225760046000803e5060005160e01c5b90565b600060443d10156144335790565b6040516003193d81016004833e81513d6001600160401b03816024840111818411171561446257505050505090565b828501915081518181111561447a5750505050505090565b843d87010160208285010111156144945750505050505090565b6144a360208286010187614380565b509095945050505050565b6001600160a01b038116811461139557600080fd5b6001600160e01b03198116811461139557600080fd5b61ffff8116811461139557600080fd5b6001600160401b038116811461139557600080fdfec3d58168c5ae7397731d063d5bbf3d657854427343f4c083240f7aacaa2d0f62a2646970667358221220aec423f4b69d4cd8434bcf2fe3f26ff2540f09c8f8f54e7a0951a24324701c6764736f6c63430008070033697066733a2f2f516d5a557a5a38384858385553426b6147436f7778567a61736669345374734571733554757857595763695537782f6d657461646174612f7b69647d2e6a736f6e",
  "linkReferences": {},
  "deployedLinkReferences": {}
}